:020000040800F2
:100000005008002001010008EB1D0008DD15000864
:10001000E91D0008A5020008B92200080000000040
:10002000000000000000000000000000EF1D0008BC
:10003000B502000800000000ED1D0008F11D0008D9
:100040001B0100081B0100081B0100081B01000820
:100050001B0100081B0100081B0100081B01000810
:100060001B0100081B0100081B0100081B01000800
:100070001B010008A90200081B0100081B01000861
:100080001B0100081B0100081B0100081B010008E0
:100090001B0100081B0100081B0100081B010008D0
:1000A0001B0100081B0100081B0100081B010008C0
:1000B0008D1E00081B0100081B0100081B01000821
:1000C0001B0100081B0100081B0100081B010008A0
:1000D0001B0100081B0100081B010008AD220008DD
:1000E0001B0100081B0100081B010008DFF80CD0F1
:1000F00000F06CF800480047A527000850080020D1
:100100000648804706480047FEE7FEE7FEE7FEE7B1
:10011000FEE7FEE7FEE7FEE7FEE7FEE7451E000816
:10012000ED000008202A04DB203A21FA02F0002129
:10013000704721FA02F3D040C2F1200291400843F7
:1001400019467047D2B201E000F8012B491EFBD2DC
:1001500070470022F6E710B513460A4604461946D2
:10016000FFF7F0FF204610BD2DE9F05F05460020A7
:1001700092469B4688460646814640241BE0284618
:10018000414647462246FFF7CDFF53465A46C01A1E
:10019000914110D311461846224600F029F82D1A35
:1001A00067EB01084F4622460120002100F020F8AD
:1001B00017EB00094E41201EA4F10104DFDC484684
:1001C00031462A464346BDE8F09F0000064C074DE5
:1001D00006E0E06840F0010394E807009847103417
:1001E000AC42F6D3FFF786FF9C280008BC28000825
:1001F000202A04DB203A00FA02F1002070479140E7
:10020000C2F1200320FA03F319439040704770B500
:100210008C1810F8015B15F0070301D110F8013BB1
:100220002A1106D110F8012B03E010F8016B01F838
:10023000016B5B1EF9D12B0705D40023521E0DD490
:1002400001F8013BFAE710F8013BCB1A921C03E0DE
:1002500013F8015B01F8015B521EF9D5A142D8D316
:10026000002070BDF0B507461C4615460E462A20F4
:1002700001F096FC07F1280001F086FC05F128004A
:1002800001F082FC2B2001F08BFC06F1350001F01F
:100290007BFC04F1350001F077FCBDE8F0402C2038
:1002A00001F07EBCFEE70000014800F051B80000FC
:1002B000080400207047704710B590F82110002402
:1002C000022903D00421816301243DE001680A680A
:1002D00022F00E020A6001680A6822F001020A6038
:1002E0001A4A0168914201D1012121E0174A1432D2
:1002F000914201D110211BE0144A2832914201D1D0
:10030000891515E0114A3C32914201D189140FE060
:100310000E4A5032914202D14FF4803108E00B4A2C
:100320006432914202D14FF4801101E04FF08071AC
:10033000064A083A5160012180F82110002180F816
:100340002010416B01B18847204610BD08000240D3
:100350002DE9F05FC16B0C6801680B68D0F840C0F4
:10036000042202FA0CF2494DDFF824A1494E4A4F0B
:10037000DFF828B1DFF828E122422CD05A072AD52D
:100380000A68920603D40A6822F004020A6001682F
:10039000A94201D1042219E0514501D1402215E0C2
:1003A000B14202D14FF4806210E0B94202D14FF461
:1003B00080420BE0594502D14FF4802206E071459E
:1003C00002D14FF4800201E04FF080622F490839DA
:1003D0004A60C16A3BE04FF0020808FA0CF818EADC
:1003E000040F4FF000094FF0010235D05FEA837827
:1003F00032D50B689B0605D40B6823F00A030B600B
:1004000080F821200168A94201D1022219E051455A
:1004100001D1202215E0B14202D14FF4007210E068
:10042000B94202D14FF400520BE0594502D14FF4CA
:10043000003206E0714502D14FF4001201E04FF0A6
:100440000072124908394A6080F82090816A0029B8
:100450001AD0BDE8F05F0847082505FA0CF52542DB
:1004600012D01B0710D50B6823F00E030B6090F819
:100470004010C36B02FA01F15960826380F82120B9
:1004800080F82090016BE2E7BDE8F09F0800024091
:100490001C0002403000024044000240580002406C
:1004A0006C00024030B528B308C81349142219441F
:1004B000B1FBF2F18900C1631049816302214177E8
:1004C0001A6843F6F0718A43D0E900142143D0E959
:1004D00002452C4321430469214344692143846933
:1004E00021431143196000214163012242770177C2
:1004F000084630BD012030BDF8FFFDBF00000240BE
:100500002DE9F84FDFF8B891002409F1040A0AF147
:10051000040B23460F270BF1040EC9E00125A5406B
:100520002A40AA427DD1674ED1F804C0ACEB060840
:10053000B44532D014DCBCF1030F3AD009DCBCF175
:10054000000F2AD0BCF1010F1CD0BCF1020F31D139
:100550001DE0BCF1110F17D0BCF1120F2AD119E028
:10056000B8F5881F19D006DCB8F5803F15D0B8F56E
:10057000801F1FD111E0B8F5001F0ED0B8F5041F81
:1005800018D10AE0CB6815E0CB681B1D12E0CB68E0
:1005900008330FE0CB680C330CE08B682BB1012BD8
:1005A0004FF0080303D0456104E0042302E0056135
:1005B00000E00023FF2A01D8064601E000F104060E
:1005C0004FEA840501D9A5F12005D6F8008007FA85
:1005D00005FC28EA0C0803FA05F548EA0508C6F800
:1005E00000804D68ED0062D5374DAE6946F00106DA
:1005F000AE61AD6924F0030605F001050095334DA9
:1006000006EB050CDCF80850A607360F07FA06F8CB
:1006100025EA0805DFF8B880404503D14FF000080F
:1006200017E044E0DFF8AC80404502D14FF001080C
:100630000FE0DFF8A480404502D14FF0020808E047
:10064000DFF89880404502D14FF0030801E04FF0F9
:10065000040808FA06F848EA0508CCF808804D684E
:10066000D9F80060ED034D4601D5164300E09643EE
:100670002E604D68DAF80060AD03554601D516438B
:1006800000E096432E604D68DBF80060ED025D46A9
:1006900001D5164300E096432E604D68DEF80060F9
:1006A000AD02754601D5164300E096432E60641CEA
:1006B0000D682A46E5407FF431AFBDE8F88F0000B1
:1006C0000004014000001110001002400000014031
:1006D00000080140000C01400010014000140140DE
:1006E0000AB1016170470904FBE700000148806816
:1006F0007047000088020020024881680278114497
:100700008160704788020020074810B5016841F0F9
:1007100010010160032000F075F8002000F006F8D9
:1007200000F024F8002010BD0020024070B50D4DEF
:1007300004464FF47A712878B1FBF0F00A49096851
:10074000B1FBF0F000F092FB48B9102C07D2002268
:100750002146501E00F036F800206C6070BD01206C
:1007600070BD000088020020940200200C4808B5EB
:10077000816941F001018161816901F0010100910C
:10078000C16941F08051C161C06900F080500090A2
:100790000448416821F0E06141F00071416008BD0A
:1007A0000010024000000140002809DB00F01F0299
:1007B000012191404009800000F1E020C0F80011C3
:1007C00070470000F0B40E4B1B680C46C3F30223C5
:1007D000C3F10705042D00D90425191D072901D2ED
:1007E000002300E0DB1E012606FA05F1491E214028
:1007F00099409E40761E16403143F0BC01F06EBD1C
:100800000CED00E0064900F0070208684FF6FF0310
:10081000184040EA0220034A104308607047000075
:100820000CED00E00000FA052DE9F0470F46050049
:1008300061D0434E306800F00700B84209D23068FA
:1008400020F0070038433060306800F00700B842FD
:1008500051D128683B4C810712D5400703D5606809
:1008600040F4E06060602878000703D5606840F4D9
:10087000605060606068A96820F0F0000843606024
:100880002878C00728D06868012810D0216802287D
:1008900010D0890700292EDA616821F00301014395
:1008A0006160FFF723FF804641F288390DE021683F
:1008B0008903EFE78901EDE7FFF718FFA0EB0801D7
:1008C000494502D90320BDE8F0876068696800F0F7
:1008D0000C00B0EB810FEFD1306800F00700B84298
:1008E0000BD9306820F0070038433060306800F0E2
:1008F0000700B84201D00120E5E72878400705D578
:100900006068E96820F4E0600843606028780007C8
:1009100006D56068296920F4605040EAC100606033
:1009200000F038F86168084AC1F30311515CC8400F
:100930000649086006480068FFF7F8FE0020C2E795
:100940000020024000100240842800089402002089
:100950008C0200200448054900684968044AC1F334
:100960000221515CC84070479402002000100240F0
:10097000942800080448054900684968044AC1F3FE
:10098000C221515CC8407047940200200010024010
:100990009428000812A185B00FC98DE80F0014A09B
:1009A000144A006804905168134801F00C03042BAA
:1009B00010D0082B0ED1C1F38343C9031DF80300E7
:1009C0000AD5516804AAC1F34041515C0A4A504318
:1009D000B0FBF1F005B0704708494843FAE7000062
:1009E00002030405060708090A0B0C0D0E0F101070
:1009F000010200000010024000127A0000093D00D0
:100A00002DE9F84F040070D02078C04DC00749D0C0
:100A10006868C0F38100012807D06868C0F38100CE
:100A2000022809D16868C00306D52868800339D533
:100A300060680028E7D035E06068B0F5803F0BD0F3
:100A400010B1B0F5A02F11D0286820F480302860B4
:100A5000286820F4802002E0286840F48030286074
:100A6000606890B1FFF742FE06460AE0286840F44D
:100A700080202860F0E700BFFFF738FE801B642865
:100A800073D828688003F7D50CE0FFF72FFE0646E1
:100A900005E000BFFFF72AFE801B6428F0D8286815
:100AA0008003F7D420789A4E80074FF001094FF069
:100AB000000839D5686810F00C0F07D06868C0F3DB
:100AC0008100022809D16868C00306D4286880071D
:100AD00014D52069012808D110E02069B0B1C6F80A
:100AE0000090FFF703FE074605E00AE1FFF7FEFD71
:100AF000C01B0228C4D828688007F7D52868616918
:100B000020F0F80040EAC10028600DE0C6F800803F
:100B1000FFF7ECFD074604E0FFF7E8FDC01B0228E5
:100B200023D828688007F7D4207800072CD5794887
:100B3000A169D9B1C0F80090FFF7D8FD074604E0DD
:100B4000FFF7D4FDC01B02280FD8686A8007F7D5CD
:100B500071484FF4FA510068B0FBF1F0009000BF0B
:100B60000098411E0091FAD20EE080E0C0F80080AB
:100B7000FFF7BCFD074604E0FFF7B8FDC01B0228E5
:100B800075D8686A8007F7D42078400760D5E8698F
:100B90000027C00008D4E86940F08050E861E869A7
:100BA000012700F0805000905C480168C90513D40B
:100BB0000168834641F480710160FFF797FD82462A
:100BC00006E000BFFFF792FDA0EB0A0064284ED8B4
:100BD000DBF80000C005F5D5E06801280AD008B1AF
:100BE000052813D0286A20F001002862286A20F026
:100BF000040002E0286A40F001002862E06841F247
:100C0000883B98B1FFF772FD82460BE0286A40F0FE
:100C100004002862EEE700BFFFF768FDA0EB0A01C1
:100C200059455AD8286A8007F6D50CE0FFF75EFDD3
:100C3000824605E0FFF75AFDA0EB0A0159454CD862
:100C4000286A8007F6D41FB1E86920F08050E86177
:100C5000E06988B36968C1F38101022944D00228A0
:100C6000C6F8608004D0FFF741FD044638E034E068
:100C7000FFF73CFD074604E0FFF738FDC01B0228E4
:100C80002BD828688001F7D4206AB0F5803F05D1C1
:100C90006868A16820F4003008436860D4E908015E
:100CA0000843696821F4741108436860C6F86090CD
:100CB000FFF71CFD044606E025E000BFFFF716FD28
:100CC000001B022809D828688001F7D51BE000BF67
:100CD000FFF70CFD001B022802D90320BDE8F88FA6
:100CE00028688001F4D40EE00128F7D06868226AF1
:100CF00000F48031914204D1616A00F4701088429E
:100D000001D00120EAE70020E8E7000000100240DF
:100D100000004242800442429402002000700040E1
:100D200070B5040005D00025A56294F8510010B1FB
:100D300006E0012070BD84F85050204600F02EF8E7
:100D4000022084F851002068016821F04001016010
:100D5000D4E901010843D4E903121143084361694E
:100D60000843218B01F400710843E1690843216ABB
:100D70000843A16A084321680860A069042101EAC8
:100D80001040216848602068C16921F40061C16198
:100D90006565012084F85100002070BD70B586B0F3
:100DA000002500950195029503950646284C036899
:100DB000284902200322A3422DD18B6943F480539A
:100DC0008B618B6903F4805304938B6943F00403B4
:100DD0008B618969039201F004010491A021CDE99E
:100DE000001069461C48FFF78BFB1D4C1B48206018
:100DF0001020C4E901058020C4E903056561A561EF
:100E00002046E561FFF74EFB08B1FFF754FAB464E2
:100E1000666206B070BD134CA342FAD1CB6943F4AD
:100E20008043CB61CB6903F4804304938B6943F027
:100E300008038B618969039201F0080104914FF462
:100E40002041CDE9001069460748FFF759FBE0E76C
:100E50000030014000100240000801403000024014
:100E60000804002000380040000C014010B5401E6E
:100E7000B0F1807F01D3012010BD4FF0E02460610C
:100E80000F21601701F02AFA0020A06107202061DD
:100E9000002010BD7047704710B590F83C20012A23
:100EA00022D0012280F83C20CA688C6822F440726B
:100EB00022434C6822F4806222430C6822F40062D0
:100EC00022430C6922F4805222434C6922F40052DE
:100ED0002243C969002322F480420A4301684A641C
:100EE00080F83C30002010BD022010BD70B590F895
:100EF0003C20012A19D0012400F83C4F0222427004
:100F000050F83C3C5A689D6822F070060A684968AF
:100F1000324325F0800529435A6050F83C2C9160FB
:100F2000447000210170084670BD022070BD10B5EC
:100F3000040003D094F83D0010B107E0012010BD7B
:100F4000002084F83C00204600F00CF8022084F8D1
:100F50003D00211D206800F09FFF012084F83D0026
:100F6000002010BD00B585B00021009101910291D3
:100F700003910068B0F1804F1ED11048C16941F063
:100F80000101C161C16901F001010491816941F070
:100F9000040181618069694600F004000490012029
:100FA00000900748FFF7ACFA002211461C20FFF71B
:100FB00009FC1C20FFF7F8FB05B000BD0010024043
:100FC000000801400168CA6842F00102CA60006876
:100FD000816801F00701062903D0016841F0010191
:100FE00001600020704770B5044690F83C0001286D
:100FF00017D0012584F83C50022084F83D00206879
:10100000826822F0770222F47F42826008685028CA
:1010100030D00DDC20284DD005DC98B310283BD112
:1010200048E0022070BD302844D0402834D139E057
:10103000602828D0702806D0B0F5805F2CD0B0F59D
:10104000005F29D10AE0CB68D1E90121206800F0D6
:1010500066FF2068816841F0770109E0CB68D1E93B
:101060000121206800F05BFF2068816841F4804125
:10107000816011E0CA684968206801F005F85021D4
:10108000206807E016E0CA684968206801F00DF89A
:101090006021206800F04DFF84F83D50002084F866
:1010A0003C0070BDCA684968206800F0EDFF40212F
:1010B0002068EFE7226801461046EBE7704770B5FD
:1010C0000446006801694FF00005C943890715D43B
:1010D000C168C943890711D4E91E01610120207745
:1010E000206880698007204602D0FFF7E7FF04E010
:1010F00000F0BEF8204600F053F92577206801691A
:10110000C943490717D4C168C943490713D46FF0CD
:1011100004010161022020772068806910F4407F7B
:10112000204602D0FFF7CAFF04E000F0A1F82046F5
:1011300000F036F9257720680169C943090716D4FC
:10114000C168C943090712D46FF008010161042086
:1011500020772068C0698007204602D0FFF7AEFFE5
:1011600004E000F085F8204600F01AF925772068A1
:101170000169C943C90617D4C168C943C90613D454
:101180006FF010010161082020772068C06910F419
:10119000407F204602D0FFF791FF04E000F068F89E
:1011A000204600F0FDF8257720680169C943C9078A
:1011B00008D1C168C943C90704D1891E016120460D
:1011C00000F00CF920680169C943090609D4C16817
:1011D000C943090605D46FF0800101612046FFF77D
:1011E00059FE20680169C943490609D4C168C94349
:1011F000490605D46FF040010161204600F0EFF888
:1012000020680169C94389060BD4C168C9438906AE
:1012100007D46FF0200101612046BDE87040FFF760
:101220003ABE70BD00B585B00021009101910291D8
:10123000039100680B49884212D10B48816941F043
:10124000040181618069694600F0040004904FF454
:10125000006000900220019003900448FFF750F9CD
:1012600005B000BD002C0140001002400008014004
:10127000704770B5044690F83C000D4601280DD02B
:10128000012684F83C60022084F83D0042B1042A23
:1012900018D0082A2AD00C2A4DD139E0022070BD7E
:1012A000206800F04FFE2068816941F008018161EB
:1012B0002068816921F004018161206881692A69BF
:1012C000114311E0206800F065FE2068816941F457
:1012D000006181612068816921F4806181612068F9
:1012E00081692A6941EA0221816124E0206800F0D5
:1012F0007DFE2068C16941F00801C1612068C169B3
:1013000021F00401C1612068C1692A69114311E01B
:10131000206800F097FE2068C16941F40061C16156
:101320002068C16921F48061C1612068C1692A69AE
:1013300041EA0221C16184F83D60002084F83C004C
:1013400070BD10B5040003D094F83D0010B107E063
:10135000012010BD002084F83C00204600F00CF86D
:10136000022084F83D00211D206800F095FD012039
:1013700084F83D00002010BD08B500680649884289
:1013800008D10648816941F400618161806900F4F7
:101390000060009008BD0000002C014000100240D9
:1013A0007047000010B504460068012200F0AAFD55
:1013B00009492068884203D1416C41F400414164ED
:1013C0002068816801F00701062903D0016841F017
:1013D00001010160002010BD002C014070477047E2
:1013E0007047000070B5026804461068D168536900
:1013F00010F00F0F50D003F0010501F49076354343
:101400005DD0C20705D0CA0503D5E26B42F00102E8
:10141000E263420705D5DA0703D0E26B42F002022D
:10142000E263820705D5DA0703D0E26B42F00402DB
:10143000E263020705D5DA0703D0E26B42F0080247
:10144000E263E26B002A33D0800604D5880602D519
:10145000204600F052FE20684069E16BC0F3801026
:10146000090700D428B3204600F039FE20684169FE
:1014700049061AD5416921F040014161606BA0B174
:101480001B494163606BFEF717FF002810D0606BAB
:10149000416BBDE870400847830610D58B060ED51A
:1014A0002046BDE8704000F028BE2046FFF798FFB8
:1014B00070BD2046FFF794FF0020E06370BD030677
:1014C00006D50B0604D52046BDE8704000F0BCBE32
:1014D0004006F3D54806F1D5D168204621F04001F9
:1014E000D160202184F8391000F077F870BD000039
:1014F000CF20000870B5040004D094F8390000250E
:1015000010B106E0012070BD84F83850204600F08C
:1015100023F8242084F839002068C16821F40051A0
:10152000C160204600F034FE2068016921F490413A
:1015300001612068416921F02A0141612068C16888
:1015400041F40051C160E563202084F8390084F83B
:101550003A00002070BD000030B585B00024009432
:101560000194029403940068184988422CD11848C9
:10157000C16941F48021C161C16901F480210491F4
:10158000816941F0080181618069124D00F0080015
:1015900004904FF48060009002200190032003909B
:1015A00069462846FEF7ACFFE814CDE90004694619
:1015B00028460294FEF7A4FF002211462720FFF7D9
:1015C00001F92720FFF7F0F805B030BD00480040D2
:1015D00000100240000C014070477047FEE7000019
:1015E00070B50D48016821F470010160016841F493
:1015F00080110160094C0025C4F89051C4F8945141
:10160000022004F5C87401F0BAF80120206002201D
:1016100001F0B5F8256070BD000C0140008021424A
:1016200070B50D4C0025C4F890510C48016821F4A8
:1016300070010160016841F4801101600126C4F865
:101640009461022004F5C87401F099F82660022024
:1016500001F095F8256070BD00802142000C01402A
:101660002DE9F047814617480024016821F47001F4
:101670000160016841F480010160134E2546274650
:101680004FF00108C6F89071022001F078F8C6F812
:1016900090816006040ED6F8140108B1641CE4B20F
:1016A000012001F06CF86D1CEDB2082DEAD3B9F100
:1016B000000F04D0FFF794FF2046BDE8F087FFF746
:1016C000AFFFF9E7000C01400080214210B50C4645
:1016D00000F0F6F8402000F019F800F037F9204645
:1016E00000F014F800F032F900F0EAF8C02000F041
:1016F0000DF800F02BF90020FFF7B2FF0446FFF7CA
:101700008FFF00F0FDF8204610BD00002DE9F041EC
:1017100006461448016821F470010160016841F433
:1017200080110160104C0027C4F890713D464FF0C5
:101730000108F009C4F894017006060E022001F0B9
:101740001EF8C4F89081022001F019F8C4F89071D5
:10175000022001F014F86D1CEDB2082DE9D3BDE8AC
:10176000F0810000000C0140008021422DE9F0478B
:1017700000242746A2462CA000F0A0FDDFF8CC9064
:10178000334D4FF00108002600F09AF86006000E75
:10179000FFF7BCFFD9F8001021F47001C9F8001060
:1017A000D9F8001041F48001C9F80010C5F89481FF
:1017B000012000F0E4FFC5F89081012000F0DFFF78
:1017C00006E0761CF6B2FA2E02D900F099F81CE079
:1017D000D5F814010028F4D1FA2E16D2224651462B
:1017E0001CA000F06BFD0AE039465046FFF76EFF83
:1017F0000246394623A000F061FD7F1CFFB2FF2F97
:10180000F2D30AF1010000F0FF0A0020C5F89001B0
:1018100000F076F8641CE4B2FF2CB4D3BDE8F047C6
:1018200020A000F04BBD0000436F6E736F6C653EEF
:10183000494943313A204C69737420616C6C2064CF
:101840006576696365732E0D0A000000000C014087
:1018500000802142436F6E736F6C653E494943318E
:101860003A20207C446576696365434E542E2533C7
:10187000642C204949435F41444452203D202523A4
:10188000780D0A00436F6E736F6C653E49494331B2
:101890003A20207C7265672E2532582C202532583C
:1018A0000D0A0000436F6E736F6C653E494943310A
:1018B0003A205363616E206F7665722E0D0A000028
:1018C00070B50D48016821F470010160016841F4B0
:1018D00080110160094C0120C4F89401C4F8900102
:1018E000042004F5C87400F04AFF00256560042058
:1018F00000F045FF256070BD000C014000802142D2
:101900000E4810B5016821F470010160016841F4CE
:10191000801101600A4C0020C4F89001C4F89401C1
:10192000042004F5C87400F02AFF012020606060E4
:10193000BDE81040042000F022BF0000000C014070
:1019400000802142FFF712FFFEE7000070B5144847
:101950000024016821F470010160016841F48001F4
:101960000160104D0126C5F89461304600F007FF74
:10197000C5F89061012000F002FF0AE0641CE4B2A7
:10198000FA2C06D9FFF7BCFF07A000F097FC012056
:1019900070BDD5F814010028F0D1C5F8900170BDD4
:1019A000000C01400080214241434B206D6973735C
:1019B0006564210D0A00000070B5064600218623EB
:1019C000EF220846FEF74EFC00240025304600F0CA
:1019D000DBF86D1CADB2F02DF8D3641CA4B2872CDB
:1019E000F3D370BD70B5664D0024C5F8A4416420E2
:1019F00005F5D27500F0F8F801262E60642000F09D
:101A0000F3F8112000F0CCF8782000F0EDF8362043
:101A100000F0C6F8702000F0D1F83A2000F0C0F8CD
:101A2000052000F0CBF8B22000F0BAF80C2000F04E
:101A3000C5F80C2000F0C2F8204600F0BFF83320B3
:101A400000F0BCF8332000F0B9F8B72000F0A8F897
:101A5000352000F0B3F8BB2000F0A2F8192000F008
:101A6000ADF8C02000F09CF82C2000F0A7F8C220B0
:101A700000F096F8304600F0A1F8C32000F090F88E
:101A8000122000F09BF8C42000F08AF8202000F01B
:101A900095F8C62000F084F80F2000F08FF8D020D1
:101AA00000F07EF8A42000F089F8A12000F086F86C
:101AB000E02000F075F8D02000F080F8042000F05D
:101AC0007DF80D2000F07AF8112000F077F813204F
:101AD00000F074F82B2000F071F83F2000F06EF851
:101AE000542000F06BF84C2000F068F8182000F04B
:101AF00065F80D2000F062F80B2000F05FF81F2061
:101B000000F05CF8232000F059F8E12000F048F8DC
:101B1000D02000F053F8042000F050F80C2000F022
:101B20004DF8112000F04AF8132000F047F82C205F
:101B300000F044F83F2000F041F8442000F03EF867
:101B4000512000F03BF82F2000F038F81F2000F063
:101B500035F81F2000F032F8202000F02FF8232065
:101B600000F02CF8212000F01BF8292000F018F8D4
:101B70004FF47F442046FFF71FFF0248048070BDEA
:101B8000000021420000002000B50346C0F30720FA
:101B900000F014F8D8B25DF804EB00F00FB80000C4
:101BA000054B00B50021C3F8A01103F5D07300F078
:101BB00005F80120186000BD00002142084A0021FC
:101BC000C2F8B01107490A689207FCD5054A121DF0
:101BD00010600868C007FCD01068C0B270470000F1
:101BE000008021420838004002E04621491EFDD213
:101BF000401EFAD2704700002DE9F04385B0002462
:101C000021480094019402940394816941F02001D9
:101C10008161816901F020010491816941F0040131
:101C20008161816901F004010491816941F0080139
:101C300081618069DFF8548000F0080041F2F035DE
:101C40000490002229464046FEF74AFDDFF8409006
:101C50004FF41747002239464846FEF741FD0095EC
:101C6000022601250396CDE9015469464046FEF758
:101C700047FC00970396CDE9015469464846FEF7B4
:101C80003FFC05B0BDE8F08300100240000C0140AD
:101C9000000801400C480B49022201604FF4827198
:101CA000416000218160C0E90312012242615202B9
:101CB00082610822C0E90721416281620A21C16272
:101CC000FFF72EB800300140980200200C480B4965
:101CD000022201604FF48271416000218160C0E9FD
:101CE0000312012242615202C0E9062101624162EF
:101CF00081620A21C162FFF713B80000003800407A
:101D0000F002002010B592B000240F941C2108A806
:101D10001094FEF71EFA20216846FEF71AFA1B48B7
:101D2000194901604721C0E9011440F2E731C0E9D7
:101D3000031444618461FFF704FB0F940FA9134857
:101D40001094FFF7D3F8602008904FF4FA70CDE9B3
:101D500009040C940D940C2208A90C480E94FFF76A
:101D600088FA00944FF40050CDE9044002940194A5
:101D70000394694605480794FFF78EF80348FFF778
:101D800051FA12B010BD0000002C014048030020A1
:101D900010B586B000241348009401940294039473
:101DA00004944FF08041059401604FF4B471C0E990
:101DB000011440F2CF71C0E903148461FFF7B7F852
:101DC0004FF40050CDE9000402946946054803949D
:101DD000FFF709F9049404A902480594FFF786F86F
:101DE00006B010BD88030020FEE7704770477047BB
:101DF000FEF782BC30B58FB028216846FEF7A9F9FE
:101E000014210AA8FEF7A5F901210804CDE9001064
:101E10000024029402250491CDE907504FF4E0100C
:101E200009906846FEF7ECFD0F20CDE90A0568022F
:101E3000CDE90C4002210AA80E94FEF7F5FC0FB084
:101E400030BD00000D48016841F0010101604168AA
:101E50000B4A1140416001680A4A11400160016863
:101E600021F480210160416821F4FE0141604FF4BA
:101E70001F0181600449C0030860704700100240E0
:101E80000000FFF8FFFFF6FE08ED00E00148FFF755
:101E900016B9000088030020F0B50268164B174CF5
:101EA000174D4FF08047984205D0B84203D0A0426A
:101EB00001D0A84203D122F070064A68324398420A
:101EC00005D0B84203D0A04201D0A84203D122F4E9
:101ED0004074CA6822434C6922F0800222430260A7
:101EE0008A68C2620A688262984201D10969016304
:101EF00001214161F0BD0000002C014000040040C0
:101F00000008004010B501F01F030121046A994048
:101F10008C430462016A9A401143016210BD10B5FE
:101F2000846842EA032224F47F440A432243826005
:101F300010BD826822F070020A4342F007018160FE
:101F40007047000030B5026A22F001020262026AA4
:101F50004368846924F073050C682C4322F0020561
:101F60008A682A430A4DA8420BD122F00805CA68A4
:101F700023F440732A434D6922F004021D438B6908
:101F80002B434360846149684163026230BD0000B5
:101F9000002C014030B5026A22F010020262026A8F
:101FA000436884690D6824F4E64444EA05248D6896
:101FB00022F0200242EA05120B4DA8420ED1CD6854
:101FC00022F0800242EA05124D6923F4406343EA9D
:101FD00085038D6922F0400243EA850343608461F2
:101FE00049688163026230BD002C014030B5026A4D
:101FF00022F480720262036A4268C46923F40073A7
:1020000024F073050C682C438D6843EA05230C4DBE
:10201000A8420ED1CD6823F4006343EA05234D693D
:1020200022F4405242EA05128D6923F4806342EAA9
:1020300005124260C4614968C163036230BD00009B
:10204000002C014030B5026A22F480520262046A18
:102050004268C3690D6823F4E64343EA05238D68AB
:1020600024F4005444EA0534064DA84204D14D69D5
:1020700022F4804242EA85124260C36149680164E9
:10208000046230BD002C014010B5036A046A24F0DC
:1020900001040462846924F0F00444EA021423F089
:1020A0000A020A438461026210BD10B5036A23F07C
:1020B000100303628369046A23F4704343EA023223
:1020C00024F0A00343EA01118261016210BD10B542
:1020D000406A0021C185C184FFF782F910BD016803
:1020E000CA6822F49072CA6001684A6922F001024B
:1020F0004A61202180F83A10704710B590F83A10E4
:10210000222901D0022010BD8168B1F5805F11D075
:102110000169002901681FD0496801F07F03816AC5
:102120004A1C82620B70C18D491E0904090CC185CD
:1021300018D02BE00269816A002A0268526805D033
:10214000D2B20A80816A491C8162ECE7C2F30802BC
:102150000A80816A891CF7E74A68816A4B1C83629E
:102160000A70E0E70168CA6822F02002CA600168CC
:10217000CA6822F48072CA6001684A6922F00102CA
:102180004A61202180F83A10FFF726FA002010BD9E
:102190002DE9F041044600680169E26821F44051EC
:1021A000114301612169A0680843616908432168FE
:1021B000CA6841F20C639A430243CA6020684169CD
:1021C000A26921F44071114341611E4920686425D0
:1021D0003226884202D1FEF7CDFB01E0FEF7BAFBC2
:1021E00000EBC00101EB001160686FF01807800080
:1021F000B1FBF0F2B2FBF5F2B1FBF0F37A4303EB83
:102200008202B1FBF0F306EB0212B2FBF5F2B3FB74
:10221000F5F302F0F00202EB0312B1FBF0F3B1FBB5
:10222000F0F0B0FBF5F0784303EB800006EB001014
:10223000B0FBF5F0216800F00F0010448860BDE8A5
:10224000F08100000038014090F83910212901D0B8
:10225000022070478168B1F5805F016A0BD04A1C8B
:102260000262026809785160C18C491E0904090C98
:10227000C1840ED017E009880268C1F308015160DB
:1022800001690029016A02D0491C0162ECE7891C3E
:10229000FBE70168CA6822F08002CA600068C16872
:1022A00041F04001C1600020704700000148FFF785
:1022B00099B80000C8030020FEE700000FB4054BEA
:1022C00010B503A9044A029800F028F810BC5DF884
:1022D00014FB00008D270008840200200907090E66
:1022E000002804DB00F1E02080F80014704700F0C3
:1022F0000F0000F1E02080F8141D704702E008C8CC
:10230000121F08C1002AFAD170477047002001E06F
:1023100001C1121F002AFBD1704700002DE9FF4FB9
:102320008DB00F460546002606E025280BD0DDE9D6
:102330000F1290476D1C761C28780028F5D111B03B
:102340003046BDE8F08F0024A246A1460122EC49A8
:1023500000E0044315F8013F203B02FA03F0084275
:10236000F7D128782A2810D06FF02F022878A0F112
:102370003001092914D80AEB8A0102EB410144F02B
:10238000020400EB010A6D1CF0E701CF5FEA000ACE
:1023900003D544F40054CAF1000A44F002046D1C51
:1023A00028782E2817D115F8010F44F004042A28A4
:1023B0000ED06FF02F022878A0F1300109290AD839
:1023C00009EB890102EB410100EB01096D1CF2E709
:1023D00057F8049B6D1C28786C280FD006DC4C281D
:1023E00017D068280DD06A2814D104E0742810D0C2
:1023F0007A280FD10DE044F400140AE044F480146C
:1024000001E044F440146978814202D104F580145B
:102410006D1C6D1C2A786E2A1FD00CDC632A31D00B
:1024200004DC002A8BD0582A11D1A3E0642A68D09A
:10243000692A0CD165E0732A2ED004DC6F2A73D090
:10244000702A04D19BE0752A6FD0782A6ED010468E
:10245000DDE90F129047761C50E1C4F302500228C8
:1024600006D0032809D0042801CF09D0066045E131
:1024700001CFF117C0E9006140E101CF06803DE1E5
:1024800006703BE117F8040B8DF8000000208DF872
:102490000100EB46012003E057F804BB4FF0FF308A
:1024A00061074FF0000102D40DE008F101018846F8
:1024B00049450FDA8045F8DB1BF808100029F4D1F4
:1024C00008E008F1010188468142FADB1BF8081098
:1024D0000029F6D1DDE90F23AAEB08008146214649
:1024E00000F036F9304400EB080604E0DDE90F1295
:1024F0001BF8010B9047B8F10108F7D22146484676
:10250000F7E00A21C4F302534FF0000B0891022BAD
:1025100004D001CFC117032B09D00AE0FF1D27F01B
:102520000707F7E8020108E032E01FE020E000B210
:10253000C117042B01D140B2C117031E71F1000372
:1025400007DA4FF0000CD0EB0C006CEB01012D23EF
:1025500002E0230504D52B238DF82430012303E06A
:10256000E30701D02023F7E7984658E00A2110E05E
:1025700010210EE010204FF0000B08900CE010210D
:102580004FF0000B44F004044FF00809089103E0F9
:1025900008214FF0000B0891C4F30253022B04D022
:1025A00001CF0021032B06D006E0FF1D27F007070F
:1025B000F7E8020103E080B2042B00D1C0B24FF073
:1025C000000823072BD5702A07D0DDF820C08CF037
:1025D000100C5CEA0B0C05D00EE040238DF8243083
:1025E000012308E050EA010306D030238DF824309F
:1025F0008DF8252002239846DDF820C08CF0080CC9
:102600005CEA0B0C0BD150EA010301D1630706D53C
:1026100030238DF824304FF00108A9F10109582A20
:1026200004D038A20B9208AA0A920BE03AA2F9E76A
:102630005B46089AFDF798FD0B9B9B5C0A9A521E1D
:102640000A92137050EA0102F2D10A98ADEB000031
:1026500000F1200B600702D524F4803401E04FF034
:102660000109D94502DDA9EB0B0000E0002000EBD9
:102670000B0141440890AAEB010AE00306D4DDE90E
:102680000F232146504600F063F806444FF000093E
:1026900008E009A911F80900DDE90F12904709F1D6
:1026A0000109761CC145F4DBE0030CD5DDE90F23FD
:1026B0002146504600F04CF8064404E0DDE90F12D4
:1026C00030209047761C0899481E08900029F5DCB8
:1026D00008E00A980A990078491C0A91DDE90F126E
:1026E0009047761CBBF10001ABF1010BF1DC2146F8
:1026F0005046DDE90F2300F019F806446D1C1BE677
:1027000009280100303132333435363738396162C7
:10271000636465660000000030313233343536378B
:102720003839414243444546000000002DE9F0415C
:10273000044600251E461746880404D405E03946A1
:102740002020B0476D1C641EF9D52846BDE8F081F5
:102750002DE9F041044600251E469046C80301D5E8
:10276000302700E02027880404D505E0414638469C
:10277000B0476D1C641EF9D52846BDE8F08102E023
:102780004621491EFDD2401EFAD2704704490A680C
:102790005206FCD5024AC1B2121D116070470000FA
:1027A0000048004008B5FDF7AFFFFFF723FBFFF738
:1027B00023FA2A48416941F0010141614069002240
:1027C00000F00100009011460D20FDF7FBFF0D20E9
:1027D000FDF7EAFFFFF75EFAFFF778FA2148204994
:1027E0000C2201604FF4E131416000218160C16041
:1027F000C0E904128161C161FEF77CFEFFF7C8FAEF
:10280000FFF780FA1748D8380068016841F04001A6
:1028100001601548016821F038010160FFF7E2F816
:1028200010484038FEF7CEFB0E480C218038FEF7EA
:10283000B9FD0E480124C0F8BC410D4DC5F88C41CE
:10284000C0F8B041C0F8A8410AA0FFF737FD00BFAB
:10285000C5F89C41FFF776F8FAE700000010024047
:1028600000480040C803002000380040000021421A
:1028700000802142544F46206F6E6C696E652E0DAC
:102880000A00000000000000000000000102030434
:10289000060708090000000001020304BC28000824
:1028A00000000020980200000E020008D429000851
:1028B00098020020B80500000C230008D12A8004EB
:1028C000FA0104080D1A1080010CF0FFFF0F308090
:1028D00001040419246A070C0912480910040113A1
:1028E0001A011914FFFF011A03082904E90C3381A6
:1028F000812A0304261CFCFFFF3F1A400B5AC02804
:102900002AC00C49041BFFFF4C22411A0468230E05
:10291000711B07815A14010760100B010E189801F2
:102920001C04E001181927F11A08C4231F304A0CAF
:10293000046809100C30FE3F0C30041069041BC001
:102940000C281E0D3030060E049C0C3010044B1861
:102950008604101208060D300C860D3006EE0F307E
:1029600002FC0D30015B0CF040193C2A0F081A10D4
:102970009ED1299019CB4908890417E0FFFF036015
:10298000C009130409161C59181A010429441A080D
:10299000045A100419F8130138041780FF1F260386
:1029A000C0FFFF071A8004293D326032181A0C1349
:1029B0005A030419A41C800108045E1CFCFFFF3F9D
:1029C000100928041AFC0432E0A2401912199D7162
:0429D0001324F400D8
:04000005080000ED02
:00000001FF
