:020000040800F2
:10000000280D002001010008CF1C0008351600084B
:10001000CD1C0008D9020008E12100080000000002
:10002000000000000000000000000000171D000894
:10003000E902000800000000151D0008191D000855
:100040001B0100081B0100081B0100081B01000820
:100050001B0100081B0100081B0100081B01000810
:100060001B0100081B0100081B0100081B01000800
:100070001B010008DD0200081B0100081B0100082D
:100080001B0100081B0100081B0100081B010008E0
:100090001B0100081B0100081B010008EB020008FF
:1000A0001B0100081B0100081B0100081B010008C0
:1000B000B51D00081B0100081B0100081B010008FA
:1000C0001B0100081B0100081B0100081B010008A0
:1000D0001B0100081B0100081B010008D5210008B6
:1000E0001B0100081B0100081B010008DFF80CD0F1
:1000F00000F086F800480047ED4F0008280D00206A
:100100000648804706480047FEE7FEE7FEE7FEE7B1
:10011000FEE7FEE7FEE7FEE7FEE7FEE76D1D0008EF
:10012000ED000008202A04DB203A21FA02F0002129
:10013000704721FA02F3D040C2F1200291400843F7
:100140001946704740EA01039B0703D009E008C93C
:10015000121F08C0042AFAD203E011F8013B00F88C
:10016000013B521EF9D27047D2B201E000F8012BD8
:10017000491EFBD270470022F6E710B513460A4627
:1001800004461946FFF7F0FF204610BD034611F85C
:10019000012B00F8012B002AF9D1184670472DE9F0
:1001A000F05F0546002092469B46884606468146FB
:1001B00040241BE02846414647462246FFF7B2FF4F
:1001C00053465A46C01A914110D31146184622464A
:1001D00000F028F82D1A67EB01084F46224601204F
:1001E000002100F01FF817EB00094E41201EA4F17A
:1001F0000104DFDC484631462A464346BDE8F09F0D
:10020000064C074D06E0E06840F0010394E8070063
:1002100098471034AC42F6D3FFF76CFF68550008DE
:1002200088550008202A04DB203A00FA02F1002059
:1002300070479140C2F1200320FA03F31943904024
:10024000704770B58C1810F8015B15F0070301D1E9
:1002500010F8013B2A1106D110F8012B03E010F829
:10026000016B01F8016B5B1EF9D12B0705D400234C
:10027000521E0DD401F8013BFAE710F8013BCB1AEE
:10028000921C03E013F8015B01F8015B521EF9D5E3
:10029000A142D8D3002070BDF0B507461C461546D4
:1002A0000E462A2001F0DAFB07F1280001F0CAFB14
:1002B00005F1280001F0C6FB2B2001F0CFFB06F171
:1002C000350001F0BFFB04F1350001F0BBFBBDE8D8
:1002D000F0402C2001F0C2BBFEE70000014800F016
:1002E00055B80000E40800207047402000F028B90D
:1002F0007047000010B590F821100024022903D0A7
:100300000421816301243DE001680A6822F00E02A5
:100310000A6001680A6822F001020A601A4A01684C
:10032000914201D1012121E0174A1432914201D1B9
:1003300010211BE0144A2832914201D1891515E0A1
:10034000114A3C32914201D189140FE00E4A5032D9
:10035000914202D14FF4803108E00B4A643291425D
:1003600002D14FF4801101E04FF08071064A083A43
:100370005160012180F82110002180F82010416B8C
:1003800001B18847204610BD080002402DE9F05F0A
:10039000C16B0C6801680B68D0F840C0042202FAF7
:1003A0000CF2494DDFF824A1494E4A4FDFF828B13D
:1003B000DFF828E122422CD05A072AD50A68920693
:1003C00003D40A6822F004020A600168A94201D13C
:1003D000042219E0514501D1402215E0B14202D179
:1003E0004FF4806210E0B94202D14FF480420BE03A
:1003F000594502D14FF4802206E0714502D14FF4F5
:10040000800201E04FF080622F4908394A60C16ADA
:100410003BE04FF0020808FA0CF818EA040F4FF01E
:1004200000094FF0010235D05FEA837832D50B68BE
:100430009B0605D40B6823F00A030B6080F821208B
:100440000168A94201D1022219E0514501D12022BF
:1004500015E0B14202D14FF4007210E0B94202D16E
:100460004FF400520BE0594502D14FF4003206E040
:10047000714502D14FF4001201E04FF000721249B1
:1004800008394A6080F82090816A00291AD0BDE8B6
:10049000F05F0847082505FA0CF5254212D01B0726
:1004A00010D50B6823F00E030B6090F84010C36B5F
:1004B00002FA01F15960826380F8212080F82090CF
:1004C000016BE2E7BDE8F09F080002401C0002401B
:1004D0003000024044000240580002406C000240DC
:1004E00030B528B308C8134914221944B1FBF2F1FE
:1004F0008900C16310498163022141771A6843F67C
:10050000F0718A43D0E900142143D0E902452C431D
:1005100021430469214344692143846921431143F0
:10052000196000214163012242770177084630BDFE
:10053000012030BDF8FFFDBF000002407047000001
:10054000044910B50A68024202D00860FFF7F6FFBE
:1005500010BD0000140401402DE9F84FDFF8B891F8
:10056000002409F1040A0AF1040B23460F270BF1BA
:10057000040EC9E00125A5402A40AA427DD1674E5C
:10058000D1F804C0ACEB0608B44532D014DCBCF1A1
:10059000030F3AD009DCBCF1000F2AD0BCF1010FE7
:1005A0001CD0BCF1020F31D11DE0BCF1110F17D0EE
:1005B000BCF1120F2AD119E0B8F5881F19D006DC5A
:1005C000B8F5803F15D0B8F5801F1FD111E0B8F500
:1005D000001F0ED0B8F5041F18D10AE0CB6815E053
:1005E000CB681B1D12E0CB6808330FE0CB680C33DF
:1005F0000CE08B682BB1012B4FF0080303D0456151
:1006000004E0042302E0056100E00023FF2A01D892
:10061000064601E000F104064FEA840501D9A5F180
:100620002005D6F8008007FA05FC28EA0C0803FA32
:1006300005F548EA0508C6F800804D68ED0062D56A
:10064000374DAE6946F00106AE61AD6924F0030690
:1006500005F001050095334D06EB050CDCF808505C
:10066000A607360F07FA06F825EA0805DFF8B8806E
:10067000404503D14FF0000817E044E0DFF8AC80BC
:10068000404502D14FF001080FE0DFF8A48040455B
:1006900002D14FF0020808E0DFF89880404502D10F
:1006A0004FF0030801E04FF0040808FA06F848EAA2
:1006B0000508CCF808804D68D9F80060ED034D4678
:1006C00001D5164300E096432E604D68DAF80060CD
:1006D000AD03554601D5164300E096432E604D68A4
:1006E000DBF80060ED025D4601D5164300E096435D
:1006F0002E604D68DEF80060AD02754601D51643E8
:1007000000E096432E60641C0D682A46E5407FF4A5
:1007100031AFBDE8F88F0000000401400000111067
:10072000001002400000014000080140000C0140A0
:1007300000100140001401400AB101617047090432
:10074000FBE700000148806870470000C8020020F5
:10075000024881680278114481607047C802002015
:10076000074810B5016841F010010160032000F056
:1007700075F8002000F006F800F024F8002010BD05
:100780000020024070B50D4D04464FF47A71287870
:10079000B1FBF0F00A490968B1FBF0F000F092FB00
:1007A00048B9102C07D200222146501E00F036F81E
:1007B00000206C6070BD012070BD0000C8020020E8
:1007C000D40200200C4808B5816941F00101816123
:1007D000816901F001010091C16941F08051C1615D
:1007E000C06900F0805000900448416821F0E06149
:1007F00041F00071416008BD00100240000001405E
:10080000002809DB00F01F0201219140400980000F
:1008100000F1E020C0F8001170470000F0B40E4B6A
:100820001B680C46C3F30223C3F10705042D00D94E
:100830000425191D072901D2002300E0DB1E012633
:1008400006FA05F1491E214099409E40761E164049
:100850003143F0BC04F04EB80CED00E0064900F066
:10086000070208684FF6FF03184040EA0220034AD7
:1008700010430860704700000CED00E00000FA052E
:100880002DE9F0470F46050061D0434E306800F077
:100890000700B84209D2306820F0070038433060C2
:1008A000306800F00700B84251D128683B4C8107FE
:1008B00012D5400703D5606840F4E0606060287896
:1008C000000703D5606840F4605060606068A96804
:1008D00020F0F000084360602878C00728D06868DE
:1008E000012810D02168022810D0890700292EDAAB
:1008F000616821F0030101436160FFF723FF804637
:1009000041F288390DE021688903EFE78901EDE7BD
:10091000FFF718FFA0EB0801494502D90320BDE805
:10092000F0876068696800F00C00B0EB810FEFD1D0
:10093000306800F00700B8420BD9306820F007009B
:1009400038433060306800F00700B84201D0012021
:10095000E5E72878400705D56068E96820F4E0609D
:10096000084360602878000706D56068296920F48C
:10097000605040EAC100606000F038F86168084AE1
:10098000C1F30311515CC84006490860064800687D
:10099000FFF7F8FE0020C2E70020024000100240EE
:1009A00050550008D4020020CC020020044805491C
:1009B00000684968044AC1F30221515CC84070478D
:1009C000D402002000100240605500080448054988
:1009D00000684968044AC1F3C221515CC8407047AD
:1009E000D4020020001002406055000812A185B01A
:1009F0000FC98DE80F0014A0144A006804905168D4
:100A0000134801F00C03042B10D0082B0ED1C1F3B6
:100A10008343C9031DF803000AD5516804AAC1F332
:100A20004041515C0A4A5043B0FBF1F005B07047B9
:100A300008494843FAE700000203040506070809CD
:100A40000A0B0C0D0E0F10100102000000100240E6
:100A500000127A0000093D002DE9F84F040070D023
:100A60002078C04DC00749D06868C0F381000128D4
:100A700007D06868C0F38100022809D16868C00304
:100A800006D52868800339D560680028E7D035E0AE
:100A90006068B0F5803F0BD010B1B0F5A02F11D039
:100AA000286820F480302860286820F4802002E044
:100AB000286840F480302860606890B1FFF742FEFB
:100AC00006460AE0286840F480202860F0E700BF6E
:100AD000FFF738FE801B642873D828688003F7D599
:100AE0000CE0FFF72FFE064605E000BFFFF72AFEE9
:100AF000801B6428F0D828688003F7D420789A4EA9
:100B000080074FF001094FF0000839D5686810F0F0
:100B10000C0F07D06868C0F38100022809D168680B
:100B2000C00306D42868800714D52069012808D19D
:100B300010E02069B0B1C6F80090FFF703FE074649
:100B400005E00AE1FFF7FEFDC01B0228C4D82868B3
:100B50008007F7D52868616920F0F80040EAC100F5
:100B600028600DE0C6F80080FFF7ECFD074604E0C2
:100B7000FFF7E8FDC01B022823D828688007F7D4B8
:100B8000207800072CD57948A169D9B1C0F8009028
:100B9000FFF7D8FD074604E0FFF7D4FDC01B02288D
:100BA0000FD8686A8007F7D571484FF4FA5100688A
:100BB000B0FBF1F0009000BF0098411E0091FAD206
:100BC0000EE080E0C0F80080FFF7BCFD074604E0BF
:100BD000FFF7B8FDC01B022875D8686A8007F7D4F4
:100BE0002078400760D5E8690027C00008D4E8698C
:100BF00040F08050E861E869012700F080500090E3
:100C00005C480168C90513D40168834641F48071CA
:100C10000160FFF797FD824606E000BFFFF792FDF7
:100C2000A0EB0A0064284ED8DBF80000C005F5D51B
:100C3000E06801280AD008B1052813D0286A20F0FE
:100C400001002862286A20F0040002E0286A40F0CF
:100C500001002862E06841F2883B98B1FFF772FD1D
:100C600082460BE0286A40F004002862EEE700BFED
:100C7000FFF768FDA0EB0A0159455AD8286A80079A
:100C8000F6D50CE0FFF75EFD824605E0FFF75AFD62
:100C9000A0EB0A0159454CD8286A8007F6D41FB149
:100CA000E86920F08050E861E06988B36968C1F3C1
:100CB0008101022944D00228C6F8608004D0FFF7E1
:100CC00041FD044638E034E0FFF73CFD074604E010
:100CD000FFF738FDC01B02282BD828688001F7D405
:100CE000206AB0F5803F05D16868A16820F4003023
:100CF00008436860D4E908010843696821F4741165
:100D000008436860C6F86090FFF71CFD044606E0E3
:100D100025E000BFFFF716FD001B022809D8286850
:100D20008001F7D51BE000BFFFF70CFD001B022878
:100D300002D90320BDE8F88F28688001F4D40EE0C2
:100D40000128F7D06868226A00F48031914204D10A
:100D5000616A00F47010884201D00120EAE70020A7
:100D6000E8E70000001002400000424280044242D6
:100D7000D40200200070004070B5040005D00025AA
:100D8000A56294F8510010B106E0012070BD84F80E
:100D90005050204600F02EF8022084F851002068C0
:100DA000016821F040010160D4E901010843D4E960
:100DB00003121143084361690843218B01F4007158
:100DC0000843E1690843216A0843A16A084321688E
:100DD0000860A069042101EA104021684860206889
:100DE000C16921F40061C1616565012084F8510089
:100DF000002070BD70B586B0002500950195029564
:100E000003950646284C0368284902200322A34282
:100E10002DD18B6943F480538B618B6903F480532C
:100E200004938B6943F004038B618969039201F099
:100E300004010491A021CDE9001069461C48FFF788
:100E40008BFB1D4C1B4820601020C4E9010580204D
:100E5000C4E903056561A5612046E561FFF740FB34
:100E600008B1FFF745FAB464666206B070BD134C72
:100E7000A342FAD1CB6943F48043CB61CB6903F43D
:100E8000804304938B6943F008038B618969039263
:100E900001F0080104914FF42041CDE900106946AA
:100EA0000748FFF759FBE0E700300140001002401F
:100EB0000008014030000240E408002000380040F3
:100EC000000C014010B5401EB0F1807F01D301201D
:100ED00010BD4FF0E02460610F21601703F00AFDA0
:100EE0000020A06107202061002010BD70477047DE
:100EF00010B590F83C20012A22D0012280F83C2035
:100F0000CA688C6822F4407222434C6822F48062E2
:100F100022430C6822F4006222430C6922F48052BE
:100F200022434C6922F400522243C969002322F46F
:100F300080420A4301684A6480F83C30002010BDBA
:100F4000022010BD70B590F83C20012A19D0012470
:100F500000F83C4F0222427050F83C3C5A689D68B1
:100F600022F070060A684968324325F0800529435B
:100F70005A6050F83C2C9160447000210170084682
:100F800070BD022070BD10B5040003D094F83D0080
:100F900010B107E0012010BD002084F83C0020467D
:100FA00000F00CF8022084F83D00211D206800F0BC
:100FB00007FF012084F83D00002010BD00B585B07A
:100FC000002100910191029103910068B0F1804FDE
:100FD0001ED11048C16941F00101C161C16901F030
:100FE00001010491816941F00401816180696946D0
:100FF00000F004000490012000900748FFF7ACFACD
:10100000002211461C20FFF709FC1C20FFF7F8FB0B
:1010100005B000BD00100240000801400168CA6828
:1010200042F00102CA600068816801F007010629E8
:1010300003D0016841F0010101600020704770B5E4
:10104000044690F83C00012817D0012584F83C5054
:10105000022084F83D002068826822F0770222F4A2
:101060007F4282600868502830D00DDC20284DD0A7
:1010700005DC98B310283BD148E0022070BD302831
:1010800044D0402834D139E0602828D0702806D0D8
:10109000B0F5805F2CD0B0F5005F29D10AE0CB68B5
:1010A000D1E90121206800F0CEFE2068816841F07E
:1010B000770109E0CB68D1E90121206800F0C3FE87
:1010C0002068816841F48041816011E0CA68496804
:1010D000206800F06DFF5021206807E016E0CA6824
:1010E0004968206800F075FF6021206800F0B5FEB7
:1010F00084F83D50002084F83C0070BDCA684968FF
:10110000206800F055FF40212068EFE72268014683
:101110001046EBE7704770B50446006801694FF070
:101120000005C943890715D4C168C943890711D48B
:10113000E91E016101202077206880698007204630
:1011400002D0FFF7E7FF04E000F0BEF8204600F011
:1011500053F9257720680169C943490717D4C16845
:10116000C943490713D46FF00401016102202077BD
:101170002068806910F4407F204602D0FFF7CAFF44
:1011800004E000F0A1F8204600F036F92577206849
:101190000169C943090716D4C168C943090712D4B4
:1011A0006FF008010161042020772068C069800782
:1011B000204602D0FFF7AEFF04E000F085F820469D
:1011C00000F01AF9257720680169C943C90617D4C8
:1011D000C168C943C90613D46FF01001016108202A
:1011E00020772068C06910F4407F204602D0FFF7C6
:1011F00091FF04E000F068F8204600F0FDF8257744
:1012000020680169C943C90708D1C168C943C90732
:1012100004D1891E0161204600F00CF920680169A3
:10122000C943090609D4C168C943090605D46FF04A
:10123000800101612046FFF759FE20680169C9431A
:10124000490609D4C168C943490605D46FF0400175
:101250000161204600F0EFF820680169C943890662
:101260000BD4C168C943890607D46FF0200101611E
:101270002046BDE87040FFF73ABE70BD00B585B0AE
:101280000021009101910291039100680B4988426D
:1012900012D10B48816941F004018161806969467E
:1012A00000F0040004904FF40060009002200190D0
:1012B00003900448FFF750F905B000BD002C014031
:1012C0000010024000080140704770B5044690F8D5
:1012D0003C000D4601280DD0012684F83C60022018
:1012E00084F83D0042B1042A18D0082A2AD00C2ADA
:1012F0004DD139E0022070BD206800F0B7FD2068B4
:10130000816941F0080181612068816921F004014F
:101310008161206881692A69114311E0206800F029
:10132000CDFD2068816941F4006181612068816997
:1013300021F480618161206881692A6941EA022182
:10134000816124E0206800F0E5FD2068C16941F07A
:101350000801C1612068C16921F00401C1612068F0
:10136000C1692A69114311E0206800F0FFFD20687F
:10137000C16941F40061C1612068C16921F48061E3
:10138000C1612068C1692A6941EA0221C16184F80A
:101390003D60002084F83C0070BD10B5040003D00F
:1013A00094F83D0010B107E0012010BD002084F842
:1013B0003C00204600F00CF8022084F83D00211D7E
:1013C000206800F0FDFC012084F83D00002010BDE5
:1013D00008B500680649884208D10648816941F489
:1013E00000618161806900F40060009008BD000028
:1013F000002C0140001002407047000010B5044668
:101400000068012200F012FD09492068884203D1DA
:10141000416C41F4004141642068816801F007019A
:10142000062903D0016841F001010160002010BDD0
:10143000002C0140704770477047000070B502688B
:1014400004461068D168536910F00F0F50D003F0B4
:10145000010501F4907635435DD0C20705D0CA0579
:1014600003D5E26B42F00102E263420705D5DA07D9
:1014700003D0E26B42F00202E263820705D5DA078D
:1014800003D0E26B42F00402E263020705D5DA07FB
:1014900003D0E26B42F00802E263E26B002A33D031
:1014A000800604D5880602D5204600F0BAFD2068E3
:1014B0004069E16BC0F38010090700D428B32046CF
:1014C00000F0A1FD2068416949061AD5416921F063
:1014D00040014161606BA0B11B494163606BFEF745
:1014E00009FF002810D0606B416BBDE870400847D1
:1014F000830610D58B060ED52046BDE8704000F05F
:1015000090BD2046FFF798FF70BD2046FFF794FF7F
:101510000020E06370BD030606D50B0604D5204607
:10152000BDE8704000F024BE4006F3D54806F1D572
:10153000D168204621F04001D160202184F8391083
:1015400000F077F870BD0000F71F000870B50400C8
:1015500004D094F83900002510B106E0012070BDD8
:1015600084F83850204600F023F8242084F839000D
:101570002068C16821F40051C160204600F09CFD44
:101580002068016921F4904101612068416921F0DE
:101590002A0141612068C16841F40051C160E563DE
:1015A000202084F8390084F83A00002070BD000043
:1015B00030B585B00024009401940294039400682F
:1015C000184988422CD11848C16941F48021C16171
:1015D000C16901F480210491816941F008018161B0
:1015E0008069124D00F0080004904FF48060009074
:1015F000022001900320039069462846FEF7ACFFC5
:10160000E814CDE90004694628460294FEF7A4FFD9
:10161000002211462720FFF701F92720FFF7F0F8F5
:1016200005B030BD0048004000100240000C0140F1
:1016300070477047FEE7000070B50D48016821F45F
:1016400070010160016841F480110160094C0025BE
:10165000C4F89051C4F89451022004F5C87403F002
:101660009AFB01202060022003F095FB256070BDED
:10167000000C01400080214270B50D4C0025C4F8DB
:1016800090510C48016821F470010160016841F437
:10169000801101600126C4F89461022004F5C87429
:1016A00003F079FB2660022003F075FB256070BD16
:1016B00000802142000C01402DE9F0478146174887
:1016C0000024016821F470010160016841F4800187
:1016D0000160134E254627464FF00108C6F8907169
:1016E000022003F058FBC6F890816006040ED6F87D
:1016F000140108B1641CE4B2012003F04CFB6D1C22
:10170000EDB2082DEAD3B9F1000F04D0FFF794FF32
:101710002046BDE8F087FFF7AFFFF9E7000C014076
:10172000008021422DE9F04106461448016821F469
:1017300070010160016841F480110160104C0027C4
:10174000C4F890713D464FF00108F009C4F89401C7
:101750007006060E022003F01EFBC4F890810220E2
:1017600003F019FBC4F89071022003F014FB6D1C08
:10177000EDB2082DE9D3BDE8F0810000000C014076
:101780000080214270B50D48016821F470010160AC
:10179000016841F480110160094C0120C4F89401F2
:1017A000C4F89001042004F5C87403F0F4FA00258D
:1017B0006560042003F0EFFA256070BD000C014065
:1017C000008021420E4810B5016821F470010160CB
:1017D000016841F4801101600A4C0020C4F89001B6
:1017E000C4F89401042004F5C87403F0D4FA01206D
:1017F00020606060BDE81040042003F0CCBA000017
:10180000000C01400080214270B51448002401689A
:1018100021F470010160016841F480010160104D04
:101820000126C5F89461304603F0B5FAC5F8906119
:10183000012003F0B0FA0AE0641CE4B2FA2C06D9E5
:10184000FFF7C0FF07A003F045F8012070BDD5F8F1
:1018500014010028F0D1C5F8900170BD000C0140C2
:101860000080214241434B206D6973736564210DF3
:101870000A00000070B5064600218623EF220846C4
:10188000FEF70AFD00240025304600F0DBF86D1C51
:10189000ADB2F02DF8D3641CA4B2872CF3D370BD85
:1018A00070B5664D0024C5F8A441642005F5D275D5
:1018B00000F0F8F801262E60642000F0F3F8112003
:1018C00000F0CCF8782000F0EDF8362000F0C6F8F3
:1018D000702000F0D1F83A2000F0C0F8052000F0A8
:1018E000CBF8B22000F0BAF80C2000F0C5F80C20BC
:1018F00000F0C2F8204600F0BFF8332000F0BCF83A
:10190000332000F0B9F8B72000F0A8F8352000F037
:10191000B3F8BB2000F0A2F8192000F0ADF8C02009
:1019200000F09CF82C2000F0A7F8C22000F096F8F8
:10193000304600F0A1F8C32000F090F8122000F02B
:101940009BF8C42000F08AF8202000F095F8C6200B
:1019500000F084F80F2000F08FF8D02000F07EF81F
:10196000A42000F089F8A12000F086F8E02000F023
:1019700075F8D02000F080F8042000F07DF80D20EC
:1019800000F07AF8112000F077F8132000F074F8D6
:101990002B2000F071F83F2000F06EF8542000F08A
:1019A0006BF84C2000F068F8182000F065F80D2066
:1019B00000F062F80B2000F05FF81F2000F05CF8E8
:1019C000232000F059F8E12000F048F8D02000F082
:1019D00053F8042000F050F80C2000F04DF81120CE
:1019E00000F04AF8132000F047F82C2000F044F8EB
:1019F0003F2000F041F8442000F03EF8512000F074
:101A00003BF82F2000F038F81F2000F035F81F2099
:101A100000F032F8202000F02FF8232000F02CF8FE
:101A2000212000F01BF8292000F018F84FF47F4423
:101A30002046FFF71FFF0248048070BD00002142CE
:101A40000000002000B50346C0F3072000F014F8A2
:101A5000D8B25DF804EB00F00FB80000054B00B5FC
:101A60000021C3F8A01103F5D07300F005F80120A0
:101A7000186000BD00002142084A0021C2F8B011E0
:101A800007490A689207FCD5054A121D10600868CC
:101A9000C007FCD01068C0B270470000008021422F
:101AA0000838004002E04621491EFDD2401EFAD20D
:101AB000704700002DE9F04385B000242A480094C7
:101AC000019402940394816941F02001816181694C
:101AD00001F020010491816941F004018161816973
:101AE00001F004010491816941F00801816180697C
:101AF000DFF8789000F0080041F2B0350490002241
:101B000029464846FEF718FEDFF864804FF4174771
:101B1000002239464046FEF70FFE009502260125B9
:101B20000396CDE9015469464846FEF715FD009736
:101B30000396CDE9015469464046FEF70DFD40206D
:101B400000900C48CDE9010469464846FEF704FDC3
:101B5000002211461720FEF761FE1720FEF750FE07
:101B600005B0BDE8F083000000100240000C014009
:101B700000080140000011100C480B4902220160CE
:101B80004FF48271416000218160C0E9031201229B
:101B90004261520282610822C0E9072141628162EA
:101BA0000A21C162FFF7E8B8003001407407002045
:101BB0000C480B49022201604FF482714160002100
:101BC0008160C0E90312012242615202C0E906218C
:101BD0000162416281620A21C162FFF7CDB8000053
:101BE00000380040CC07002010B592B000240F94BC
:101BF0001C2108A81094FEF7BEFA20216846FEF7C3
:101C0000BAFA1B48194901604721C0E9011440F2A2
:101C1000E731C0E9031444618461FFF7BEFB0F9410
:101C20000FA913481094FFF78DF9602008904FF426
:101C3000FA70CDE909040C940D940C2208A90C4803
:101C40000E94FFF742FB00944FF40050CDE904409E
:101C5000029401940394694605480794FFF748F9F4
:101C60000348FFF70BFB12B010BD0000002C014031
:101C70002408002010B586B0002413480094019475
:101C80000294039404944FF08041059401604FF452
:101C9000B471C0E9011440F2CF71C0E9031484614A
:101CA000FFF771F94FF40050CDE900040294694642
:101CB00005480394FFF7C3F9049404A90248059466
:101CC000FFF740F906B010BD64080020FEE770473A
:101CD00010B5074900F0D0FD014606A002F0FAFD5C
:101CE00003480189BDE8104006A002F0F3BD0000E2
:101CF000580700205354413A2025303258207C2088
:101D0000000000004441543A202564206D6D0D0A06
:101D10000000000070477047FEF71ABD30B58FB065
:101D200028216846FEF727FA14210AA8FEF723FAAD
:101D300001210804CDE90010002402940225049139
:101D4000CDE907504FF4E01009906846FEF784FE95
:101D50000F20CDE90A056802CDE90C4002210AA84E
:101D60000E94FEF78DFD0FB030BD00000D480168E8
:101D700041F00101016041680B4A11404160016876
:101D80000A4A11400160016821F480210160416824
:101D900021F4FE0141604FF41F0181600449C0033A
:101DA00008607047001002400000FFF8FFFFF6FED9
:101DB00008ED00E00148FFF7AEB90000640800201C
:101DC000F0B50268164B174C174D4FF080479842FC
:101DD00005D0B84203D0A04201D0A84203D122F0DE
:101DE00070064A683243984205D0B84203D0A042F8
:101DF00001D0A84203D122F44074CA6822434C693E
:101E000022F08002224302608A68C2620A6882620B
:101E1000984201D10969016301214161F0BD0000CF
:101E2000002C0140000400400008004010B501F003
:101E30001F030121046A99408C430462016A9A409D
:101E40001143016210BD10B5846842EA032224F4F4
:101E50007F440A432243826010BD826822F07002F0
:101E60000A4342F0070181607047000030B5026A02
:101E700022F001020262026A4368846924F0730559
:101E80000C682C4322F002058A682A430A4DA842B6
:101E90000BD122F00805CA6823F440732A434D6928
:101EA00022F004021D438B692B434360846149681F
:101EB0004163026230BD0000002C014030B5026A6F
:101EC00022F010020262026A436884690D6824F4F9
:101ED000E64444EA05248D6822F0200242EA051215
:101EE0000B4DA8420ED1CD6822F0800242EA0512C5
:101EF0004D6923F4406343EA85038D6922F0400273
:101F000043EA85034360846149688163026230BDAE
:101F1000002C014030B5026A22F480720262036A2A
:101F20004268C46923F4007324F073050C682C43E1
:101F30008D6843EA05230C4DA8420ED1CD6823F4E9
:101F4000006343EA05234D6922F4405242EA051238
:101F50008D6923F4806342EA05124260C4614968D6
:101F6000C163036230BD0000002C014030B5026A3D
:101F700022F480520262046A4268C3690D6823F445
:101F8000E64343EA05238D6824F4005444EA05340B
:101F9000064DA84204D14D6922F4804242EA8512DE
:101FA0004260C36149680164046230BD002C014095
:101FB00010B5036A046A24F001040462846924F001
:101FC000F00444EA021423F00A020A438461026224
:101FD00010BD10B5036A23F0100303628369046A1D
:101FE00023F4704343EA023224F0A00343EA0111D0
:101FF0008261016210BD10B5406A0021C185C184B3
:10200000FFF71AFA10BD0168CA6822F49072CA601C
:1020100001684A6922F001024A61202180F83A10E1
:10202000704710B590F83A10222901D0022010BD57
:102030008168B1F5805F11D00169002901681FD066
:10204000496801F07F03816A4A1C82620B70C18D6E
:10205000491E0904090CC18518D02BE00269816A68
:10206000002A0268526805D0D2B20A80816A491CEF
:102070008162ECE7C2F308020A80816A891CF7E7F3
:102080004A68816A4B1C83620A70E0E70168CA688B
:1020900022F02002CA600168CA6822F48072CA6015
:1020A00001684A6922F001024A61202180F83A1051
:1020B000FFF7BEFA002010BD2DE9F041044600688C
:1020C0000169E26821F44051114301612169A0686E
:1020D0000843616908432168CA6841F20C639A4366
:1020E0000243CA6020684169A26921F4407111432A
:1020F00041611E49206864253226884202D1FEF7DC
:1021000065FC01E0FEF752FC00EBC00101EB0011A1
:1021100060686FF018078000B1FBF0F2B2FBF5F2D7
:10212000B1FBF0F37A4303EB8202B1FBF0F306EB71
:102130000212B2FBF5F2B3FBF5F302F0F00202EB90
:102140000312B1FBF0F3B1FBF0F0B0FBF5F0784314
:1021500003EB800006EB0010B0FBF5F0216800F007
:102160000F0010448860BDE8F08100000038014095
:1021700090F83910212901D0022070478168B1F50B
:10218000805F016A0BD04A1C0262026809785160C4
:10219000C18C491E0904090CC1840ED017E00988BE
:1021A0000268C1F30801516001690029016A02D087
:1021B000491C0162ECE7891CFBE70168CA6822F050
:1021C0008002CA600068C16841F04001C16000201F
:1021D000704700000148FFF731B90000A408002053
:1021E000FEE700007CB50446002094F8DA200D4696
:1021F000012A03D0022A01D0032A14D101AB6A4676
:102200000121204600F099F9009A4FF47F018A429B
:1022100002D8019A8A4206D9002804D125B10F4973
:10222000204601F043FE7CBD0422FF21204600F041
:1022300036FE054600227021204600F030FE0543A0
:102240000022FF21204600F02AFE054300228021C3
:10225000204600F024FE28437CBD0000CB03002074
:10226000F8B50646002401220B21304600F017FE87
:10227000074600220B21304600F011FE40EA070518
:102280006A461321304600F01AFB641C9DF80010CA
:102290002843E4B2490704D0032C04D20028E2D03A
:1022A000F8BD032CFCD36FF00B00F8BDF0B591B076
:1022B00004460123FE22892100F0D0FD20B900222E
:1022C0008821204600F0EBFD002584F8F0504FF403
:1022D0007A70A4F852014FF4C870A4F8540157481A
:1022E000C4F8580156482562C4F8D400694620460F
:1022F00000F0AAF8060009D18DF800508DF80150C1
:102300004022694604F11000FDF71CFF6420A4F888
:1023100034014FF46170A4F836014FF4FA70A4F858
:1023200038014FF42060A4F83C01012784F8507173
:102330003A468021204600F0B2FD06430122FF21EB
:10234000204600F0ACFD064300221146204600F076
:10235000A6FD064310AA9121204600F0B0FA0643DC
:102360009DF8400084F83A0101220021204600F047
:1023700096FD06430022FF21204600F090FD064313
:1023800000228021204600F08AFD304300260028EC
:1023900052D1B1B20122204600F074FB761C062E09
:1023A000F5DB002848D100220221204600F06AFB1C
:1023B000002841D100220321204600F063FB0028C1
:1023C0003AD100220421204600F05CFB002833D1E2
:1023D00000220521204600F055FB00282CD14FF4A7
:1023E00090120021204600F08EFB002824D14FF4EB
:1023F00080420121204600F086FB00281CD14FF4CA
:102400000C120221204600F07EFB002814D100228D
:102410000321204600F077FB00280DD1FF2084F82F
:10242000300102460121204600F039FD84F8327166
:10243000002801D184F8155111B0F0BD856B010061
:10244000A470090000F05CBF70B506460C46007C25
:1024500001F8080B304600F044F8002833D120730F
:1024600004F11001304600F0DBF900282BD104F113
:102470001401304600F0E4F8002824D1002501E0E2
:10248000002820D104EB8502A9B23046243200F0A6
:102490007BF8002817D16219A9B23046183200F033
:1024A00066F86D1C062DEBDB00280CD104F13C0115
:1024B000304600F09AF9002805D1211D3046BDE8CC
:1024C000704000F0BBB870BD10B50C460A4609213B
:1024D00000F0F5F9002803D1217801F00101217005
:1024E00010BD3EB50C46054602AAF82100F0FDF9E4
:1024F00000280ED16A460421284600F0EBF9002896
:1025000007D1BDF8081029B1009AB2FBF1F12160A2
:10251000A9613EBD2168FBE738B50C466A46132128
:1025200000F0CDF99DF8001001F0070211F0180F2E
:10253000226001D06FF0050038BDF8B515461C4685
:1025400006466A460E2100F0D0F9BDF800100905D4
:10255000C9082960002809D16A460C21304600F0DC
:10256000C4F9BDF800100905C9082160F8BD03468B
:102570000020062902D3001F002102E0194491F82F
:102580002810117070470000F8B504460020154669
:1025900006292ED2DFE801F00305191B1D1D646B0F
:1025A00025E06A464421204600F09FF9002803D127
:1025B000BDF800104FEA412606D1EEB12E604FF073
:1025C0000101A66384F82910F8BDE46B0FE0246CC8
:1025D0000DE06A464FF06401204600F086F90028BD
:1025E00004D100BFBDF800104FEA4124ECD12C60AB
:1025F000F8BD6FF00300F8BDA16B29604FF000013A
:10260000E0E77CB50C4690F8DA1000250126042995
:102610000AD06A46142100F052F900280BD19DF827
:102620000010C90706D007E001A9FFF775FF01995F
:10263000042901D025707CBD26707CBD01F04CB909
:1026400001F0ACB901F0C4B9F0B58DB00C46054647
:102650000C2302AA142100F053F906007ED10021B8
:10266000A17521609DF813009DF81220616000EBB8
:1026700002209DF80F209DF80E304FF47A7E02EB79
:1026800003221204D209E2609DF811309DF8106017
:1026900080B203EB06231B04DB0923619DF80B309A
:1026A0009DF80A6003EB06239BB2A382B5F8526142
:1026B0009DF8087095F831C176451FD0464306F560
:1026C000FA7696FBFEF02E8C95F81CE080B2B6B23E
:1026D000BEF1000F12D05E43B2EB262F08D1BCF141
:1026E000000F02D042F2B82008E048F6E0200DE0EA
:1026F0005043A2EB2626B0FBF6F080B2BCF1000FEF
:1027000004D0810821818001E07501E02081E1751C
:102710000CA8CDE900403946284601F081FA0600B0
:1027200025D19DF83000207605F150011C220D4680
:1027300005A8FDF707FD2089ADF81C00E07D8DF8A8
:102740002B006089ADF81E0060680690E068089074
:1027500020690990A08AADF8280000E007E0207EFB
:102760008DF82C001C2205A92846FDF7EBFC0DB0C6
:102770003046F0BD38B5054600200C468DF8000007
:102780006A460121284600F09AF800282AD12346FB
:102790009DF800200021284602F00EFD002821D1DE
:1027A000A31C9DF800200121284602F005FD002809
:1027B00018D1631C9DF800200221284602F0FCFC81
:1027C00000280FD1E31C9DF800200321284602F0C9
:1027D000F3FC002806D1231D9DF800200421284683
:1027E00002F0EAFC38BD01F033BB38B50C460546B3
:1027F0006A46012100F063F800280BD19DF8001013
:1028000085F83011090601D5012100E00021217071
:1028100085F84C1038BD02460020127F0A707047C0
:1028200038B50D4604466A46202100F05EF80028BF
:1028300007D1BDF8001029B1C9002960216201212A
:10284000217738BD216A29600021F9E7012301F0D1
:10285000D4BB01F0F2BB70B5047C054614B900F09E
:10286000D9F910B9284601F073FB50EA040102D1EE
:10287000032185F8321170BD70B50C460546002164
:1028800000F051F8002810D12846FFF7E4FF002897
:102890000BD121462846FFF7D7FE002805D1284650
:1028A000BDE870400021FFF7DBBC70BD08B500201B
:1028B00001460090491C0091FA29FBD308BD10B5D0
:1028C000002490F85C0101F01DFD08B16FF01304C5
:1028D000204610BD10B5002490F85C0101F015FDF4
:1028E00008B16FF01304204610BD10B5002490F815
:1028F0005C0101F02BFD08B16FF01304204610BD00
:1029000010B50024402B00D3241F90F85C019BB22B
:1029100001F011FD08B16FF01304204610BD4A0804
:102920008A2100F0BCBA0246002003290BD003DC48
:1029300049B1012904D106E0142904D0152902D097
:102940006FF0070070471174704770B51C46049E05
:10295000054611B16FF0090070BD142A08D0152A80
:102960000FD0052C6FD2DFE804F066686A6C6F0048
:102970002EB10122BDE87040842100F090BA1022EF
:10298000F8E70122FF2100F08AFA044600221146EE
:10299000284600F084FA04430022FF21284600F074
:1029A0007EFA044301228021284600F078FA04438D
:1029B00002228521284600F072FA04430422FF21F6
:1029C000284600F06CFA04430022CD21284600F08E
:1029D00066FA04431122CC21284600F060FA044331
:1029E0000722FF21284600F05AFA04430022BE21A4
:1029F000284600F054FA04430622FF21284600F03E
:102A00004EFA04430922CC21284600F048FA044338
:102A10000022FF21284600F042FA04430122FF2150
:102A2000284600F03CFA044300221146284600F0F4
:102A300036FA204370BD002207E0012205E00222A1
:102A400003E0032201E017E004220A21284600F0F7
:102A500026FA0028EED196B11023EF2284212846D1
:102A600000F0FCF90028E5D185F8DA402846BDE8F9
:102A700070400021FFF7F4BB6FF00A0070BD002327
:102A8000EBE700002DE9F041044600200D46164614
:102A9000071F034601460246062D02D33846BDE80D
:102AA000F08156B104EB85014B6B0121062DF5D267
:102AB000DFE805F005080F1215180122F6E784F883
:102AC000281017E0C3F34F224421204600F0F2F90A
:102AD0000EE084F82A100DE084F82B100AE0530071
:102AE000FE2201E01301EF226021204600F0B6F93A
:102AF0000028D4D1611926B15FF0010281F82820A5
:102B0000CDE70022FAE770B514460022431800EB27
:102B1000810593F82830DBB1C4F34F23062914D282
:102B2000DFE801F00305080A0C0C446310E01A46C4
:102B3000442105E0C4630BE0046409E01A46642103
:102B400000F0B8F9020003D003E06FF0030200E0E8
:102B50006C63104670BD01F060BC01F0BFBC01F0B9
:102B6000CDBC2DE9F8430746002090460E468DF86F
:102B700000006A4601213846FFF7A1FE05009DF8D6
:102B8000000004462ED1291FB8F1010F06D0052EF2
:102B90002CD2DFE806F0191C1F222500052E25D2B5
:102BA000DFE806F00306090C0F0044F0100419E0FA
:102BB00044F0280416E044F0040413E044F0400418
:102BC00010E044F080040DE004F0EF040AE004F0AB
:102BD000D70407E004F0FB0404E004F0BF0401E0C4
:102BE00004F07F04844210D015B10EE00D460CE0D5
:102BF00022460121384600F052F9050005D187F838
:102C0000304138467969FFF7A6FF2846BDE8F883CA
:102C100001F0C7BCF8B501250646047C2A46802190
:102C200000F03DF90122FF21304600F038F9002282
:102C30001146304600F033F996F83A21912130469A
:102C400000F02DF901220021304600F028F9002281
:102C5000FF21304600F023F900228021304600F0A9
:102C60001EF93CB10425012C26D0032C2FD06FF087
:102C70000700F8BD01220021304600F010F98DF860
:102C800000500028F5D100244FF4FA6705E024B184
:102C90006A4600213046FFF712FE9DF80020641CB2
:102CA00025EA0201014304D0BC42E2D36FF00600E2
:102CB000F8BDBC42EBD3F9E718B901213046FFF764
:102CC00091FA022209E000BF86F83251F8BD18B926
:102CD00001213046FFF786FA04220021304600F039
:102CE000DEF80028F0D0F8BD30B597B0044640219A
:102CF00001A8FDF740FA00258DF84450ADF850507A
:102D00008DF8545001212046169500F051FB94F89F
:102D1000142194F81311012A06D802D1202903D8CE
:102D200008E03AB90C2905D915AA16A9204601F0E0
:102D300084F902E0204601F0E1FB474900287DD1FB
:102D400094F8500108B9D4F84C11204601F0AEF8BF
:102D500000287ED100220423114620460095FFF76B
:102D6000F4FD002875D10122FF21204600F097F8DC
:102D7000054614AA84212046FFF7B7FD054300222B
:102D8000FF21204600F08BF8284362D1BDF85000A7
:102D900001A90001C4F8D4002046FFF755FB002824
:102DA00057D111A92046FFF78FFB002851D19DF87C
:102DB000440084F83101402201A904F11000FDF71C
:102DC000C1F911AA01212046FFF779FD002840D161
:102DD0009DF8440084F83001002211462046FFF798
:102DE000C0FE002835D1002202212046FFF7B9FE9F
:102DF00000282ED1032084F8320112AA0021204697
:102E0000FFF7F1FC002824D19DF8480084F8E80081
:102E100012AA01212046FFF7E6FC002819D19DF8EF
:102E2000480084F8E00013AA0321204602F059F874
:102E300000280ED1139813AA042100E009E0C4F879
:102E4000E400204602F04DF8002802D11399C4F89E
:102E5000DC1017B030BD0000D80200202DE9F84387
:102E600090F85C6190461F46894600246A463046C9
:102E700001F048FA6FF0130508B12C460CE09DF8FC
:102E80000020494602EA08023A438DF80020304605
:102E900001F097FC0028F0D12046BDE8F88310B57A
:102EA000002490F85C0101F08CFC08B16FF0130471
:102EB000204610BD10B5002490F85C0101F092FC92
:102EC00008B16FF01304204610BD10B50024402B4C
:102ED00000D3241F90F85C019BB201F078FC08B18C
:102EE0006FF01304204610BD2DE9F047B0F854C12F
:102EF000D0F85801DDE90A860CFB00F58035DDE9E4
:102F000008972C0A4FF0000A04FB0CF4554652B106
:102F1000880200EB5200B0FBF2F000EB40004043AF
:102F200000F50040050C07F50040000C0622C01C0F
:102F3000B0FBF2F003FB09F303F50043190C49431E
:102F4000C0EBC000B0F5803F01D31C4808E0FF1C77
:102F5000B7FBF2F0C0EBC00000F50040000C4043AE
:102F6000084400EB5800B0FBF8F08003FE227F30ED
:102F7000B0FBF2F068434FF47A7100F5FA70B0FBE1
:102F8000F1F0000100F5FA70B0FBF1F7402004F118
:102F90002001B1FBF0F000F073FF054627B104EB10
:102FA0005700B0FBF7F000E0002000F069FF35604B
:102FB000854200D930605046BDE8F0870000F0FF40
:102FC00001EBC10140F277600902A1FB00017047EB
:102FD0002DE9FF4F87B00446006A069088460869CD
:102FE0004FF47A714843000C0390D8F80C00059018
:102FF000DFF8F8B14FF4481604AA4146204600F025
:1030000002FF06AA4146204600F00BFF81464FF41E
:103010007A710498069D484300F50040070C4D4323
:10302000B54200D93546B9F1000074D1D4F8DC00BE
:10303000019094F8E06001463246204600F0DCF84A
:103040008246D4F8E4000090014694F8E820204637
:1030500000F0D2F801460320082E00D1022051448E
:103060004143C9024FF47A7001F5FA71B1FBF0F1F6
:1030700040F27762514301F5FA71B1FBF0FA04981E
:103080008030010A01FB0AF08030060A0802049031
:103090000FB14EB109E00999C1F800B0C4F840B1D0
:1030A0000A98002101609CE001264FF448700290CC
:1030B00003984F490004B0FBF7F0884200D9084656
:1030C0004FF4167100FB01F906EB4600800000F09A
:1030D000D7FE40000390B8F8081046486A424143C2
:1030E000380400EB42024FF47A7002F5FA72B2FB38
:1030F000F0F2431003EB0743B3FBF0F01202B2FB14
:10310000F0F0002800DA404298F8182000021AB1C6
:103110004FF480350FE065E041F25C22B1FBF2F143
:10312000C0F58030484300F50040000C00F58030C9
:1031300040084043850B4FF4487105FB01F000F552
:103140000040010C09F50040000C4943404308448D
:1031500000F096FE000464213230B0FBF1F10398D8
:10316000B1FBF0F040F6B531484341F288310844F4
:103170004900B0FBF1F74FF47040874200D9074691
:10318000DDE9001008444FF47A7800F5FA70B0FBDE
:10319000F8F04FF4C81101EB5001B1FBF0F000F072
:1031A0006FFE000200F5FA70B0FBF8F07F43404379
:1031B000384400F065FE414648430EB1584500D9F9
:1031C000584609990860C4F840010A98029B039088
:1031D0008DE80806DDE904122B462046FFF784FE41
:1031E000814648460BB0BDE8F08F0000AE878F02E5
:1031F000666666009A99060000B50B461146FFF711
:10320000DFFE4FF47A7100F5FA70B0FBF1F04B433A
:1032100003EB5001B1FBF0F000BD00B50B461146C9
:10322000FFF7CEFE4FF47A7100F5FA70B0FBF1F0C3
:10323000434303F5FA73B3FBF1F000BD2DE9F04110
:103240000F4615460446022100F0B2F806000BD1E5
:1032500094F8F10058B194F8F200387004F1F301D9
:1032600005F14000FCF792FF3046BDE8F0810020F8
:10327000387085F84000F7E70146C0B2090A884077
:10328000401C70474000801CC0B27047F8B506462D
:1032900000228321FFF703FE040011D100254FF423
:1032A000FA676A4683213046FFF709FB04469DF81A
:1032B000000020430BD0BD4202D300BF6FF00604D4
:1032C000012283213046FFF7EAFD2043F8BD6D1C43
:1032D000BD42E6D3F2E70022114648B1401E02E0AB
:1032E0004008491C89B2020AFAD161F31F2082B258
:1032F00010467047FF2101EB5000C0B2704700003C
:103300007CB50C460A46054601A9FFF797FF002841
:103310002BD19DF8040028B1222805D8202805D0FB
:1033200012A106E014A104E0272801D215A100E0B3
:1033300017A12046FCF72AFF1BA104F12000FCF78F
:1033400025FF04F16002C0212846FFF7B8FA0028E3
:103350000BD16A46C2212846FFF7B1FA012104F8D1
:10336000611F9DF80010090961707CBD564C353312
:103370004C30582054533100564C35334C30582083
:1033800054533000564C35334C305820545332008F
:10339000564C35334C305820455331206F72206CD9
:1033A0006174657200000000564C35334C30580093
:1033B0002DE9F04F95B0002504460E954FF4C85006
:1033C0000F95CDE90450129594F8F0600F46AB4686
:1033D000AA46072E7ED0012280212046FFF75FFDFE
:1033E00080460122FF212046FFF759FD40EA0805EB
:1033F000002211462046FFF752FD40EA050806224A
:10340000FF212046FFF74BFD40EA080502AA832171
:103410002046FFF754FA40EA05089DF8080083218A
:1034200040F004022046FFF73AFD40EA0805072273
:10343000FF212046FFF733FD40EA050801228121E4
:103440002046FFF72CFD40EA08052046FFF72EFA3C
:1034500040EA0508012280212046FFF720FD40EACE
:103460000805F80755D0F00753D16B229421204668
:10347000FFF715FD40EA05082046FFF707FF40EA81
:10348000080501AA90212046FFF724FA40EA050822
:1034900001982422C0F30621C0F3C03B129194216D
:1034A0002046FFF7FCFC40EA08052046FFF7EEFE49
:1034B00040EA050801AA90212046FFF70BFA40EAEE
:1034C00008050198010E8DF82C10010C8DF82D10B7
:1034D000010A00E0FCE18DF82E108DF82F00252266
:1034E00094212046FFF7DBFC40EA05082046FFF761
:1034F000CDFE40EA080901AA90212046FFF7EAF92B
:1035000040EA09050198010E8DF83010000C8DF885
:103510003100B8077ED5B0077CD402229421204622
:10352000FFF7BDFC40EA05082046FFF7AFFE40EA82
:10353000080513AA90212046FFF7C1F940EA0508C3
:103540007B2294212046FFF7AAFC40EA080520468A
:10355000FFF79CFE40EA050810AA90212046FFF7DD
:10356000AEF940EA0805772294212046FFF797FC40
:1035700040EA05082046FFF789FE40EA080501AA4F
:1035800090212046FFF7A6F940EA05080198782225
:10359000410E8DF81810C0F386418DF81910C0F354
:1035A000C6218DF81A10C0F306110007400E8DF8E1
:1035B0001B108DF8080094212046FFF770FC40EAAC
:1035C00008052046FFF762FE40EA050801AA90219F
:1035D0002046FFF77FF940EA08059DF8081001989A
:1035E00001EB50718DF81C10C0F386518DF81D1041
:1035F000C0F3C6318DF81E10C0F306218DF81F10E0
:10360000C0F34601C007400E8DF820108DF8080069
:10361000792200E055E094212046FFF740FC40EA83
:1036200005082046FFF732FE40EA080501AA90216E
:103630002046FFF74FF940EA05089DF80810019869
:103640007A2201EB90618DF82110C0F3C6418DF80C
:103650002210C0F306318DF82310C0F34611C006C6
:10366000400E8DF824108DF8080094212046FFF7B5
:1036700016FC40EA08052046FFF708FE40EA050868
:1036800001AA90212046FFF725F940EA08059DF898
:103690000810019801EB90718DF82510C0F3C65108
:1036A0008DF82610C0F306418DF82710C0F346218F
:1036B0008DF82810C0F386008DF8290000208DF8C1
:1036C0002A0078077ED570077CD47B22942120467F
:1036D000FFF7E5FB40EA05082046FFF7D7FD40EA83
:1036E00008050EAA90212046FFF7F4F840EA0508E5
:1036F0007C2294212046FFF7D2FB40EA08092046AD
:10370000FFF7C4FD40EA09050FAA90212046FFF704
:10371000E1F840EA0508732294212046FFF7BFFB39
:1037200040EA08052046FFF7B1FD40EA050801AA76
:1037300090212046FFF7CEF840EA08050198742250
:1037400000064FEA104994212046FFF7A8FB40EA03
:1037500005082046FFF79AFD40EA080501AA9021D6
:103760002046FFF7B7F8019940EA050849EA1160D9
:103770000490752294212046FFF791FB40EA08054A
:103780002046FFF783FD40EA050901AA9021204663
:10379000FFF7A0F840EA09080198762200064FEAF0
:1037A000104994212046FFF77AFB40EA080520469D
:1037B000FFF76CFD40EA050801AA90212046FFF7BB
:1037C00089F800E004E0019940EA080549EA116A35
:1037D000002281212046FFF762FB40EA050806220D
:1037E000FF212046FFF75BFB40EA080502AA832180
:1037F0002046FFF764F840EA05089DF80800832199
:1038000000F0FB022046FFF74AFB40EA08050122D0
:10381000FF212046FFF743FB40EA05080122002173
:103820002046FFF73CFB40EA08050022FF21204626
:10383000FFF735FB40EA0508002280212046FFF70C
:103840002EFB50EA080543D1F8070FD0F0070DD141
:10385000129884F8130184F814B100200BA92318DE
:103860000A5C401C83F82A210628F8DBB8070ED52D
:10387000B0070CD49DF84C0084F8F1009DF840008E
:1038800084F8F20004F1F30006A9FCF77FFC780746
:1038900019D5700717D40E98C4F818010F98C4F8FA
:1038A0001C0104984002C4F820010020BAF1000F66
:1038B00008D00599AAEB01004FF47A11484300148F
:1038C000404200B2E0603E438DF8086084F8F0604A
:1038D00015B02846BDE8F08F30B585B005464FF4E9
:1038E000FA6002900020039040F6363008600C46E3
:1038F00069462846FEF73EFF00284DD19DF800108E
:1039000029B99DF8011011B99DF8021011B302AA4E
:103910000221284601F0E5FA00283DD19DF800106B
:1039200029B10299226801F24E21114421609DF8CB
:10393000021031B10299226801F2B22102EB410179
:1039400007E09DF8011029B10299226801F525715F
:10395000114421609DF8031061B103AA0321284698
:1039600001F0BFFA0399226801F525711144216025
:10397000002811D19DF8041061B104AA0421284641
:1039800001F0AFFA0499226801F226211144216066
:10399000002801D12168696105B030BD38B50C46F9
:1039A00040F2FF756A462821FEF79FFF00280DD1DF
:1039B000BDF80010C1F30B02ADF80020AA424FF091
:1039C000FA0101DDA2F580524A43226038BD0000B1
:1039D00010B500240B4610F1080F3DD01DDC10F18E
:1039E000140F41D00CDC10F1630F45D010F1320FF1
:1039F00040D010F1280F3BD010F11E0F3ED135E022
:103A000010F10C0F22D010F10B0F2BD010F10A0F78
:103A100026D010F1090F31D120E0C01D08282DD289
:103A2000DFE800F0181612100E0C060414A100E0D6
:103A300016A11846FCF7AAFB204610BD1AA1F8E70C
:103A40001EA1F6E721A1F4E727A1F2E72BA1F0E7F9
:103A500030A1EEE732A1ECE735A1EAE73BA1E8E7C8
:103A60003FA1E6E743A1E4E749A1E2E74EA1E0E791
:103A700053A1DEE758A1DCE75EA1DAE763A1D8E74E
:103A80004E6F204572726F720000000043616C69D6
:103A900062726174696F6E205761726E696E672021
:103AA0004572726F720000004D696E20636C697020
:103AB000706564206572726F72000000556E6465F7
:103AC00066696E6564206572726F7200496E766118
:103AD0006C696420706172616D65746572732065D4
:103AE00072726F72000000004E6F742073757070F8
:103AF0006F72746564206572726F7200496E7465CE
:103B00007272757074206E6F7420436C656172659B
:103B10006400000052616E6765206572726F72000A
:103B200054696D65206F7574206572726F72000044
:103B30004D6F6465206E6F7420737570706F727452
:103B40006564206572726F720000000042756666DF
:103B5000657220746F6F20736D616C6C00000000E3
:103B60004750494F206E6F74206578697374696E91
:103B7000670000004750494F2066756E6374206EE1
:103B80006F7420737570706F72746564000000004C
:103B9000436F6E74726F6C20496E746572666163F8
:103BA00065204572726F7200496E76616C6964209F
:103BB000436F6D6D616E64204572726F720000001C
:103BC0004469766973696F6E206279207A65726FD5
:103BD000204572726F7200005265666572656E6391
:103BE00065205370616420496E6974204572726F5C
:103BF000720000004E6F7420696D706C656D656EAB
:103C0000746564206572726F72000000556E6B6E91
:103C10006F776E204572726F7220436F646500008B
:103C20002DE9FF4F8BB04FF00009199D8DF80090E2
:103C30009A460646C8464F468DF804908DF808907F
:103C40008DF80C90ADF81090C1F3C304CDF814902A
:103C5000BCB1052C15D0072C13D00C2C11D00D2C79
:103C60000FD00E2C0DD00F2C0BD0002083466A46AF
:103C700000213046FEF77BFC9DF80010C9B110B161
:103C80001DE00120F2E705AB06AA30461899FFF7C0
:103C90009FF9A0B91899059807AA488100213046D4
:103CA000FEF772FC079921B1069A8A4201D94FF0BA
:103CB000010920B902AA02213046FEF758FC9DF8FE
:103CC000081011B338BB08AA02213046FEF75CFC8D
:103CD00080B90122FF213046FFF7E1F850B904AA6C
:103CE000B6213046FEF701FE20B90022FF21304602
:103CF000FFF7D5F8BDF810104902C6F84811089A28
:103D00001AB1914201D94FF0010820B903AA032149
:103D10003046FEF72CFC9DF80C1091B190B9BAF129
:103D2000000F12D00D980102B1FBFAF0824609AAE9
:103D300003213046FEF728FC099911B18A4500D2CB
:103D4000012720B1287858B32DE00020EEE7BBF121
:103D5000000F01D0FF2013E0012C10D0022C0ED058
:103D6000032C0CD0062C0DD0092C0BD0082C04D021
:103D70000A2C02D0B8F1000F06D0032000E0052085
:103D8000287010E00420FBE7042C00D00FB10220C3
:103D9000F6E7B9F1000F01D00120F1E7002028700B
:103DA00018990020488101AA01213046FEF7DFFB67
:103DB000002825D19DF8001011B15FEA090100D05B
:103DC000012186F82E10042C15D09DF8041091B115
:103DD0005FF0000186F82F109DF8081011B15FEA1E
:103DE000080100D0012186F830109DF80C1001B1B7
:103DF0001FB1012102E00121ECE7002186F831101A
:103E00000FB0BDE8F08F38B51446CA6822606A4624
:103E100000F007F8002803D12168009A11442160BE
:103E200038BDF8B5064600200D46106014466946B8
:103E30003046FEF7F0FC002809D19DF8001000295B
:103E400005D0A98A326A51438031090A2160F8BD40
:103E500038B5144621B1012905D06FF003010DE0FA
:103E60006A46502101E06A467021FEF728FD0100F4
:103E700004D19DF80000FFF705FA2070084638BD10
:103E8000024600204FF0804100E089089142FCD8B2
:103E900008E04318934203D8D21A01EB500000E027
:103EA000400889080029F4D170470000F8B507469A
:103EB00000200D460446061F13E0CBB2641CFF2B06
:103EC00005D0042B0CD8295D00206A4639E0295D15
:103ED000641C61B1012912D0022918D003291ED017
:103EE0003046295D002901D00028E6D0F8BD2A5DC2
:103EF000641C295D01EB0221A7F8341116E0295D4D
:103F0000641C2A5D02EB0121A7F836110EE02A5D40
:103F1000641C295D01EB0221A7F8381106E0295D38
:103F2000641C2A5D02EB0121A7F83C11641C295D89
:103F30000029C2D1F8BD00BF15F804C002F800C0C6
:103F4000401C641C9842F7DB3846FEF7BEFFC8E70A
:103F5000F8B5064600208DF8000004464FF4FA65D7
:103F600069463046FEF74DFB002807D19DF800104A
:103F7000012903D0641CAC4201D3C01FF8BD3046F8
:103F8000FEF794FCECE72DE9F04385B01D00914667
:103F90000E4607464FF0000401D097F83041022248
:103FA0000121FEF77CFF4FF0000838B900213846A8
:103FB00000F052F910B9B9F1010F11D086F8008064
:103FC00000280AD1002D08D0224601213846FEF7EC
:103FD00066FF002801D187F8304105B0BDE8F083C5
:103FE000012004A9CDE90016CDE902804246014630
:103FF0001346384600F0B8F9E2E72DE9F0411E46D5
:104000001746054690F830410023324600F040F94B
:10401000002810D10023324639462846FFF7B3FF67
:10402000002808D1224601212846FEF738FF002843
:1040300001D185F83041BDE8F0812DE9F74F96B008
:1040400006462C200B9000200E9011908DF84C000D
:104050008DF850001290B6F83CA14FF0B4094FF023
:10406000030B01464FF00608074672180020491C52
:1040700082F824014145F8D30122FF213046FEF7A2
:104080000EFF040079D100224F213046FEF707FFD2
:104090000400F7D12C224E213046FEF700FF040029
:1040A000F0D10022FF213046FEF7F9FE0400E9D1ED
:1040B0004A46B6213046FEF7F2FE0400E2D1002265
:1040C00080213046FEF7EBFE0400DBD1002314AA6A
:1040D00013A93046FFF791FF0400D3D106F5927380
:1040E0000EAACDF8008006930E90CDE903B29A1D7A
:1040F0000A92CDE901900146304600F053FE0400DB
:104100003BD109A930460E9D01F00CF8040034D1D2
:10411000BDF82410514531D900213218401C82F8D5
:1041200024114045F9D300E06D1C09EB050000F0B7
:1041300051FF10B90B988542F6D301200EA9CDF896
:1041400000801590CDE903B1CDE9019501463046D7
:10415000069B0A9A00F026FE040079D109A9304690
:104160000E9D00F0DFFF040072D1BDF82410514510
:1041700005D901205F46129001E051E0159089B207
:10418000514555D2159812905F4642460FA80699A0
:10419000FBF7D8FFBDF82410B1EB0A0000D5404270
:1041A000834611AB2A4641460A9800F067FE1198F3
:1041B000411C0FD0484400F00DFF159988422ED1C4
:1041C000119D41462A467F1C069800F035FE0400EA
:1041D00003D03DE06FF031043AE030466D1C0699A3
:1041E00001F006F8040033D109A9304600F09AFF27
:1041F00004002DD1BDF82410B1EB0A0000D54042D7
:1042000051450ED958450AD90FA9304600F0F0FFA4
:10421000044642460FA90698FBF794FF7F1E3CB167
:1042200016E0834642460FA80699FBF78BFFB8E7D6
:1042300017980760189912980870012086F81501E0
:104240001798007886F813011898007886F81401FA
:1042500019B02046BDE8F08F10B541F001020446C8
:104260000021FEF71CFE002811D12046FFF770FE4A
:1042700000280CD100212046FDF7F2FF002806D1CE
:1042800020460022BDE810401146FEF708BE10BDD2
:104290002DE9F04385B04FF000051E0091460F4612
:1042A00080462C468DF8105001D098F830510122EC
:1042B0001146FEF7F4FD38B940214046FFF7CCFF28
:1042C00010B9B9F1010F10D03C7000280AD1002EAE
:1042D00008D02A4601214046FEF7E1FD002801D121
:1042E00088F8305105B0BDE8F083012004A900979B
:1042F0000394CDE90110224601461346404600F0E2
:1043000033F8E2E7012300F016B838B51446042369
:104310006A4600F010F89DF803109DF800209DF803
:10432000023001EB02619DF80120120402EB03222E
:104330001144216038BD70B51D46134600242A463D
:1043400000F069FA00B10124204670BD38B514466A
:1043500002236A46FFF7EFFF9DF801109DF8002049
:1043600001EB0221218038BD2DE9FF4F81B00020F3
:10437000DDE90EA9DDE910650F468DF800009B46CA
:104380000122FF210198FEF78AFD04460022114612
:104390000198FEF784FD40EA04080022FF210198FD
:1043A000FEF77DFD40EA08046FB12EB15246CB21E5
:1043B0000198FEF784FA0443A5B16A46EE210198FC
:1043C000FEF77DFA0DE02EB1CB21039A0198FEF79E
:1043D00066FD044335B15B468022EE210198FEF76D
:1043E0003DFD04430122FF210198FEF758FD0443DF
:1043F000012200210198FEF752FD04430022FF2113
:104400000198FEF74CFD9DF80010204301F0EF02EB
:1044100089F8002005B0BDE8F08F2DE9FF4107467F
:104420004FF4FA6002900020039044F620600E469C
:104430006FF0030581424FD3A6F6363469463846FD
:10444000FEF798F9002844D19DF8001029B99DF88D
:10445000011011B99DF8021001B302AA02213846D9
:1044600000F03FFD002834D19DF8001029B10299D9
:1044700001F24E21A1422FD2641A9DF8021021B1FF
:10448000029901F2B221490005E09DF8011029B11D
:10449000029901F52571A1421ED2641A9DF80310FC
:1044A00061B103AA0321384600F01BFD039901F511
:1044B0002571A14210D2641A00280AD19DF8041077
:1044C000002906D0A4F226220421384600F095FEE9
:1044D0007E6104B0BDE8F0812846FAE730B587B0C8
:1044E00004AD012305AC0095CDE9014303931346C8
:1044F0000A460021FFF738FF07B030BD2DE9F0472D
:104500009046894686B004460025B42606274FF01B
:104510002C0A0122FF21FEF7C2FCB0B900224F2174
:104520002046FEF7BCFC80B92C224E212046FEF727
:10453000B6FC50B90022FF212046FEF7B0FC20B99E
:104540003246B6212046FEF7AAFC0020014622187A
:10455000401C82F82411B842F9D3B8F1000F01D100
:1045600006E06D1C701900F035FD08B95545F8D30B
:1045700005A90097CDE90391CDE9016504F5927392
:104580009A1D4146204600F00DFC002806D101216D
:1045900084F8151184F8139184F8148106B0BDE8ED
:1045A000F0872DE9FF41074600208DF80C001446E6
:1045B0000E46D0076FF0030571D116B1012E0DD054
:1045C000B2E00C2C6BD3122C69D80C2C13D00E2C0F
:1045D00013D0102C13D0122C13D0A5E0082CF1D33B
:1045E0000E2CF1D8082C17D00A2C44D00C2C57D004
:1045F0000E2C69D098E0182204E0302202E040221C
:1046000000E0502257213846FEF749FC0822562187
:104610003846FEF744FC85E0102248213846FEF774
:104620003EFC082247213846FEF739FC804602222C
:1046300032213846FEF733FC40EA08080C223021CC
:104640003846FEF72CFC40EA08080122FF213846D4
:10465000FEF725FC40EA0808302211463846FEF7EE
:104660001EFC40EA08080022FF213846FEF717FC2E
:1046700040EA080056E0282248213846FEF70FFCA1
:10468000082247213846FEF70AFC804603223221E1
:104690003846FEF704FC40EA0808092227E04AE011
:1046A000382248213846FEF7FAFB082247213846CF
:1046B000FEF7F5FB8046032232213846FEF7EFFB7A
:1046C00040EA0808082212E0482211463846FEF760
:1046D000E6FB082247213846FEF7E1FB804603222D
:1046E00032213846FEF7DBFB40EA0808072230217A
:1046F0003846FEF7D4FB40EA08080122FF2138467D
:10470000FEF7CDFB40EA0808202230213846FEF7AC
:10471000C6FB40EA08080022FF213846FEF7BFFB2F
:1047200040EA0800002807D12046FEF7E3FD804656
:104730002EB1012E23D0284604B0BDE8F08101AA95
:104740000321384600F0CDFBB0B902AA0221384659
:1047500000F0C7FB80B9424650213846FEF79FFB68
:1047600050B903213846019A00F047FD20B90221D3
:104770003846029A00F041FD87F8E84012E06A46A8
:104780000421384600F0ADFB50B94246702138464E
:10479000FEF785FB20B904213846009A00F02DFD74
:1047A00087F8E0400028C7D138467969FEF7D3F989
:1047B0000028C1D10123002203A93846FFF7E3FBFB
:1047C000BAE707B5012302AA00F001F80EBD70B5E3
:1047D0001D46134600242A4600F050F800B101247B
:1047E000204670BD38B50546100A8DF800000C460D
:1047F0008DF80120C80708D001236A462846FFF734
:10480000E6FF01236A46214601E002236A46284664
:10481000FFF7DDFF38BD2DE9F0411D4614460F4678
:104820000646FCF7AFFF3046FCF77CFFFCF7ECFFD9
:1048300020B1FCF7C7FF0120BDE8F0813846FCF746
:1048400071FFFCF7E1FFFCF79DFF46F00100FCF76C
:1048500069FFFCF7D9FF08E0012C0CD00120FCF720
:104860002BFF641E05F8010BA4B2002CF4D1FCF759
:10487000A9FF0020E0E70020F1E700002DE9F0416A
:104880001C4615460F460646FCF77CFF3046FCF7F3
:1048900049FFFCF7B9FF20B1FCF794FF0120BDE808
:1048A000F081384602E000BF14F8010BFCF73AFF34
:1048B000FCF7AAFF6D1EADB2F6D2FCF783FF002015
:1048C000EDE741F61E4302E01946491EFDD2401EA7
:1048D000FAD270470FB4054B10B503A9044A0298E9
:1048E00000F028F810BC5DF814FB0000654E0008CD
:1048F000840200200907090E002804DB00F1E020F3
:1049000080F80014704700F00F0000F1E02080F8FC
:10491000141D704702E008C8121F08C1002AFAD10E
:1049200070477047002001E001C1121F002AFBD12F
:10493000704700002DE9FF4F8DB00F460546002659
:1049400006E025280BD0DDE90F1290476D1C761C80
:1049500028780028F5D111B03046BDE8F08F00244A
:10496000A246A1460122EC4900E0044315F8013FAC
:10497000203B02FA03F00842F7D128782A2810D009
:104980006FF02F022878A0F13001092914D80AEB22
:104990008A0102EB410144F0020400EB010A6D1CA4
:1049A000F0E701CF5FEA000A03D544F40054CAF1EE
:1049B000000A44F002046D1C28782E2817D115F83F
:1049C000010F44F004042A280ED06FF02F0228783B
:1049D000A0F1300109290AD809EB890102EB410154
:1049E00000EB01096D1CF2E757F8049B6D1C287859
:1049F0006C280FD006DC4C2817D068280DD06A2808
:104A000014D104E0742810D07A280FD10DE044F4BA
:104A100000140AE044F4801401E044F4401469787E
:104A2000814202D104F580146D1C6D1C2A786E2A17
:104A30001FD00CDC632A31D004DC002A8BD0582A2A
:104A400011D1A3E0642A68D0692A0CD165E0732AE9
:104A50002ED004DC6F2A73D0702A04D19BE0752A13
:104A60006FD0782A6ED01046DDE90F129047761C81
:104A700050E1C4F30250022806D0032809D00428CC
:104A800001CF09D0066045E101CFF117C0E900610F
:104A900040E101CF06803DE106703BE117F8040BD1
:104AA0008DF8000000208DF80100EB46012003E0A6
:104AB00057F804BB4FF0FF3061074FF0000102D4FC
:104AC0000DE008F10101884649450FDA8045F8DB21
:104AD0001BF808100029F4D108E008F1010188460C
:104AE0008142FADB1BF808100029F6D1DDE90F231B
:104AF000AAEB08008146214600F036F9304400EB6D
:104B0000080604E0DDE90F121BF8010B9047B8F12D
:104B10000108F7D221464846F7E00A21C4F30253C0
:104B20004FF0000B0891022B04D001CFC117032BCB
:104B300009D00AE0FF1D27F00707F7E8020108E0A7
:104B400032E01FE020E000B2C117042B01D140B2D7
:104B5000C117031E71F1000307DA4FF0000CD0EB10
:104B60000C006CEB01012D2302E0230504D52B235F
:104B70008DF82430012303E0E30701D02023F7E779
:104B8000984658E00A2110E010210EE010204FF066
:104B9000000B08900CE010214FF0000B44F00404CF
:104BA0004FF00809089103E008214FF0000B08912D
:104BB000C4F30253022B04D001CF0021032B06D0F3
:104BC00006E0FF1D27F00707F7E8020103E080B2C7
:104BD000042B00D1C0B24FF0000823072BD5702A58
:104BE00007D0DDF820C08CF0100C5CEA0B0C05D06F
:104BF0000EE040238DF82430012308E050EA010341
:104C000006D030238DF824308DF8252002239846D5
:104C1000DDF820C08CF0080C5CEA0B0C0BD150EADC
:104C2000010301D1630706D530238DF824304FF0FE
:104C30000108A9F10109582A04D038A20B9208AA48
:104C40000A920BE03AA2F9E75B46089AFBF7A7FA4B
:104C50000B9B9B5C0A9A521E0A92137050EA010247
:104C6000F2D10A98ADEB000000F1200B600702D5ED
:104C700024F4803401E04FF00109D94502DDA9EBAD
:104C80000B0000E0002000EB0B0141440890AAEB70
:104C9000010AE00306D4DDE90F232146504600F067
:104CA00063F806444FF0000908E009A911F809006B
:104CB000DDE90F12904709F10109761CC145F4DBCB
:104CC000E0030CD5DDE90F232146504600F04CF8F7
:104CD000064404E0DDE90F1230209047761C089965
:104CE000481E08900029F5DC08E00A980A99007827
:104CF000491C0A91DDE90F129047761CBBF10001B7
:104D0000ABF1010BF1DC21465046DDE90F2300F049
:104D100019F806446D1C1BE60928010030313233B6
:104D200034353637383961626364656600000000E7
:104D300030313233343536373839414243444546D1
:104D4000000000002DE9F041044600251E461746EC
:104D5000880404D405E039462020B0476D1C641E49
:104D6000F9D52846BDE8F0812DE9F041044600253B
:104D70001E469046C80301D5302700E0202788044E
:104D800004D505E041463846B0476D1C641EF9D590
:104D90002846BDE8F08102E04621491EFDD2401EB2
:104DA000FAD270472DE9FF4F83B00024DDE9125A93
:104DB000149F9B46DDF8409026466FF03108009521
:104DC0001AE06B462A464946059800F057F80098C5
:104DD000411C06D01199084400F0FCF8049988425F
:104DE00002D044463D6023E0009D49462A4658468D
:104DF00000F022F86D1C761C5645E2D33D60BCB92C
:104E00005946039800F0F4F9040011D101A9039860
:104E100000F062F80446002001A907E01BF800201A
:104E20000B5C9A4201D0444602E0401C4845F5D351
:104E300007B02046BDE8F08F70B50825B2FBF5F34A
:104E4000B2FBF5F60446002005FB16228B4202D386
:104E50006FF0310070BDE15C012595402943E154BC
:104E600070BD000004490A685206FCD5024AC1B26E
:104E7000121D116070470000004800402DE9F0430A
:104E8000082581464FF0FF301860B2FBF5F0B2FB09
:104E9000F5F605FB10274FF0000C304615E0002218
:104EA00019F80040B04202D1FC403A460AE05FEAFD
:104EB000C47805D000FB05224FF0010C1A6003E016
:104EC0006408521CAA42F2D3401C884202D2BCF1B0
:104ED000000FE4D0BDE8F08306230A46B021FDF7B9
:104EE0000FBD2DE9F04100248AB0174680468DF8A9
:104EF0001C402546ADF81840264641B1012906D090
:104F0000022904D0032912D0042929D05DE06A4681
:104F100000214046FDF767FC040005D107AA4621A1
:104F20004046FDF7CCFC04469DF81C0015E06A469F
:104F300000214046FDF757FC040046D16A46002197
:104F40004046FDF750FC040005D106AA5121404619
:104F5000FDF7CBFC0446BDF81800FEF78DF92DE0F7
:104F600004A94046FDF706FC9DF81300002590B10A
:104F70006A4600214046FDF736FC04001DD106AA12
:104F800051214046FDF7B1FC0446BDF81800FEF77C
:104F900073F985B28CB96A4601214046FDF723FCBE
:104FA00004000AD108AA71214046FDF79EFC044680
:104FB000BDF82000FEF760F986B2701B81B29DF843
:104FC00000204046FEF729F905463D600AB020461C
:104FD000BDE8F0810146044A8909012052F82110F8
:104FE000002900D10020704784050020DAB0FBF7CB
:104FF000B7FBFCF793FEFCF75DFD3248416941F0D9
:10500000010141614069002200F001005890114601
:105010000D20FBF703FC0D20FBF7F2FBFCF7ACFDCA
:10502000FCF7C6FD294828490C2201604FF4E13104
:10503000416000218160C160C0E904128161C161E9
:10504000FCF784FAFCF716FEFCF7CEFD1F48D838B3
:105050000068016841F0400101601D48016821F0CD
:1050600038010160FCF71CFC18484038FBF7D6FFFC
:1050700016480C218038FCF7C1F916490120C1F807
:10508000BC01154AC2F88C01C1F8B001C1F8A801F1
:10509000C2F8A401C2F89C0110A0FFF71BFC6846EF
:1050A00000F070F910B111A0FFF714FC0021684660
:1050B00000F0BCF910B113A0FFF70CFC6846FCF738
:1050C00007FEFBE70010024000480040A408002053
:1050D000003800400000214200802142544F462009
:1050E0006F6E6C696E652E0D0A000000766C3533AC
:1050F0006C30785F696E6974206661696C656421E3
:1051000000000000766C35336C30785F7365745F37
:105110006D6F646520737461747573206661696C6A
:105120006564210070B50E4688B0054690F83041A0
:10513000C0220121FDF7B3FE002823D1694628468D
:10514000FDF79AFB00281DD10122FF212846FDF71B
:10515000A6FE002816D13246B6212846FDF7C5FB2B
:1051600000280FD10022FF212846FDF798FE0028D5
:1051700008D1224601212846FDF791FE002801D1E1
:1051800085F8304108B070BD10B588B00446694656
:10519000FDF758FA6A46214602A0FFF79BFB08B0CC
:1051A00010BD0000415049205374617475733A205A
:1051B0002569203A2025730010B5002018700529B4
:1051C00013D2DFE801F00306090C0F00C2F300114F
:1051D00009E0C2F3C00106E0C2F3800103E0C2F3BC
:1051E000801100E0D109197010BD6FF0030010BDEF
:1051F00006230A46B021FDF768BEF0B587B0164613
:10520000054661B101290AD0022908D0032922D01C
:1052100004293ED06FF0030407B02046F0BD05AA74
:105220000021FDF7E0FA0400F6D19DF81420314684
:105230002846FDF7E1FF80B2B0F5807F01D9FF225B
:1052400001E0401EC2B2A5F8D82046212846FDF74D
:1052500026FE0446E0E705AA0021FDF7C4FA04464D
:105260009DF8142031462846FDF7C6FF80B2FEF7B0
:1052700032F8ADF808000246A5F8D800002CCBD1D2
:1052800051212846FDF716FE0400C5D1C5F8E4609B
:10529000C2E703A9FDF76EFA9DF80F00002798B149
:1052A00005AA00212846FDF79EFA0400B4D102AAFF
:1052B00051212846FDF719FB0446BDF80800FDF70B
:1052C000DBFF87B2002CA7D105AA01212846FDF7F4
:1052D0008AFA0400A0D19DF8142031462846FDF733
:1052E0008BFF3844FDF7F7FF024671212846FDF792
:1052F000E1FD040090D1C5F8DC608DE7F8B5064605
:1053000090F85C010D46A84201D10020F8BD0022B2
:1053100088213046FDF7C3FD040001D0012515E0CA
:105320006A46C0213046FDF7E0FA040001D00225AC
:105330000CE0BDF80000A0F56E41AA390DD1294658
:105340003046FDF7ECFA040009D00325FFF71CFFF7
:105350001DB1294608A0FFF7BDFA2046F8BD86F822
:105360005C516A46C0213046FDF7BFFA0400F4D014
:105370000425FFF709FFECE77374613A307825786C
:105380000D0A000070B50446522084F85C01012526
:1053900084F85D514FF4C870124EA4F85E010020ED
:1053A000C6F89C011E2006F5CE76FFF78AFA356016
:1053B0001E20FFF786FA54212046FFF79FFF204664
:1053C000FCF774FF050008D10220FFF77AFA0649BE
:1053D0002046FDF737F8050002D0FFF7D5FE284636
:1053E00070BD000000802142F406002070B50E4E12
:1053F000044690F85C510020C6F89C011E2006F57A
:10540000CE76FFF75EFA012030601E20FFF759FAD2
:10541000522084F85C0129462046FFF76FFF2046A2
:10542000BDE87040FCF742BF008021422DE9F04109
:105430000F460646FFF7DAFF3046FDF755FC434DB1
:105440002878A0B1AA7869783046FDF788FB040077
:1054500076D10220FFF735FA2979EA783046FDF750
:105460007CFB04006CD10220FFF72BFA17E0374ACF
:105470003046921C511EFDF7E9F9040060D102206C
:10548000FFF71FFA314A3046D21C511CFDF7E1F9F3
:10549000040055D10220FFF714FA012028700021E2
:1054A0003046FDF740FA04004AD10220FFF709FA1E
:1054B000012200213046FDF7E5FA040040D1022028
:1054C000FFF7FFF9012211463046FDF7DBFA040031
:1054D00036D10220FFF7F5F91C48C7EBC7010830A9
:1054E00000EB410500216A683046FDF70CFB040023
:1054F00026D10220FFF7E5F92A6801213046FDF7A1
:1055000002FB04001CD10220FFF7DBF9A96830463A
:10551000FDF721FB040013D10220FFF7D2F92A7B0B
:1055200000213046FDF774FB040009D10220FFF78B
:10553000C8F96A7B01213046FDF76AFB040002D0FE
:10554000FFF722FE2046BDE8F0810000880200201F
:105550000000000000000000010203040607080923
:10556000000000000102030488550008000000202C
:1055700094050000420200085459000894050020D8
:105580009407000024490008D12A8004FA01040885
:105590000D1A1080010CF0FFFF0F30800104041978
:1055A000246A070C09124809100401131A0119147E
:1055B000FFFF011A03082904E90C3381812A03043F
:1055C000261CFCFFFF3F1A400B5AC0282AC00C497A
:1055D000041BFFFF4C22411A0468230E711B078134
:1055E0005A14010760100B010E1898011C04E00109
:1055F000181927F11A08C4231F304A0C046809102F
:105600000C30FE3F0C30041069041BC00C281E0D2A
:105610003030060E049C0C3010044B188604101217
:1056200008060D300C860D3006EE0F3002FC0D30F2
:10563000015B0CF040193C2A0F081A109ED12990EA
:1056400019CB4908890417E0FFFF0360C009130460
:1056500009161C59181A010429441A08045A10047E
:1056600019F8130138041780FF1F2603C0FFFF0736
:105670001A8004293D326032181A0C135A03041997
:10568000A41C800108045E1CFCFFFF3F10092804D5
:105690001AFC0432E0A2401912613914121223E8F4
:1056A000806B0E0A0E1C400D030E4399193A3C1CE8
:1056B0004B120E1C12202B204E2A2940821013243C
:1056C000F41C01FF01131301FF130109130110134F
:1056D000011138090124010125FF01751B154E2C0C
:1056E00001482C013020211530090154100F0131DF
:1056F000040132030140830146250160130127168E
:105700000150060151100C01529601560801573004
:1057100001611301621301641301652C0166A04548
:10572000380B22320147140149FF014A69157A0AF0
:10573000017B2C0178211B152334014228160144DA
:10574000FF014526014605014040010E0601201AD1
:105750000143402A2E340301354427197528094B8B
:1057600009014C05014D04181244100C014520019B
:1057700047080148280167100C01700401710101FC
:1057800072FE01763B0177B72B0D01272E800101B8
:1057900001F80F1A8EE4491241591B59F9100901F9
:1057A000014F0201FF0E0110250301018401020ACD
:1057B0000103030104080105C801060301078D0167
:1057C00008080109C6010A01010B02010C101201AF
:1057D0000DD5010E18010F120110010111820112E5
:1057E00018270113D5011418011513011603011709
:1057F0008601180A011909011A08011BC2011C03BC
:10580000011D8F011E0A011FD5170101210201226E
:1058100010120123D5012418012522012601012798
:1058200082012810180129D5012A18012B0B012CFF
:1058300028012D78012E28012F9101301601310BFE
:1058400001321601330B0134160135A10136160160
:1058500037A001381024013904013A28013B3001F6
:105860003C0C013D04013E0F013F790140280141FC
:105870001E01422F01438701441601450B014616C4
:1058800001470B0148160149A7014A16014BA60121
:105890004C1E014D04014EF311130150100F015124
:1058A000800152090153080154010155100F01569E
:1058B0000F015779015809015905015A1012015B6E
:1058C00060015C05015DD1015E0C015F3C0160106F
:1058D0002D0161D001620B01630301642801651091
:1058E00001662A01673901680B016902016A280112
:1058F0006B10016C2A016D61016E0C016F100901C2
:10590000700F01717901721601730B017416017524
:105910000B0176160177A10178160179A0017A10A2
:1059200029017B0401FF0401791D017B2701960EEB
:105930000197FE0198030199EF019A02019B44012E
:10594000730701700101FF0101190671320A720526
:045950002908000022
:04000005080000ED02
:00000001FF
