:020000040800F2
:10000000201F00200101000845230008051C0008EE
:1000100041230008D7020008212A00080000000040
:10002000000000000000000000000000B1230008F4
:10003000ED0200080000000085230008B32300083B
:100040001B0100081B0100081B0100081B01000820
:100050001B0100081B0100081B0100081B01000810
:100060001B0100081B0100081B0100081B01000800
:100070001B010008DD0200081B0100081B0100082D
:100080001B0100081B0100081B0100081B010008E0
:100090001B0100081B0100081B010008EF020008FB
:1000A0001B0100081B0100081B0100081B010008C0
:1000B000792400081B0100081B0100081B0100082F
:1000C0001B0100081B0100081B0100081B010008A0
:1000D0001B0100081B0100081B010008112A000871
:1000E0001B0100081B0100081B010008DFF80CD0F1
:1000F00000F086F80048004799650008201F00209E
:100100000648804706480047FEE7FEE7FEE7FEE7B1
:10011000FEE7FEE7FEE7FEE7FEE7FEE72124000834
:10012000ED000008202A04DB203A21FA02F0002129
:10013000704721FA02F3D040C2F1200291400843F7
:100140001946704740EA01039B0703D009E008C93C
:10015000121F08C0042AFAD203E011F8013B00F88C
:10016000013B521EF9D27047D2B201E000F8012BD8
:10017000491EFBD270470022F6E710B513460A4627
:1001800004461946FFF7F0FF204610BD034611F85C
:10019000012B00F8012B002AF9D1184670472DE9F0
:1001A000F05F0546002092469B46884606468146FB
:1001B00040241BE02846414647462246FFF7B2FF4F
:1001C00053465A46C01A914110D31146184622464A
:1001D00000F028F82D1A67EB01084F46224601204F
:1001E000002100F01FF817EB00094E41201EA4F17A
:1001F0000104DFDC484631462A464346BDE8F09F0D
:10020000064C074D06E0E06840F0010394E8070063
:1002100098471034AC42F6D3FFF76CFFD871000852
:10022000F8710008202A04DB203A00FA02F10020CD
:1002300070479140C2F1200320FA03F31943904024
:10024000704770B58C1810F8015B15F0070301D1E9
:1002500010F8013B2A1106D110F8012B03E010F829
:10026000016B01F8016B5B1EF9D12B0705D400234C
:10027000521E0DD401F8013BFAE710F8013BCB1AEE
:10028000921C03E013F8015B01F8015B521EF9D5E3
:10029000A142D8D3002070BDF0B504460D461646E5
:1002A0001F462A2001F090FE04F1280001F07CFE98
:1002B00006F1280001F078FE2B2001F085FE05F103
:1002C000350001F071FE07F1350001F06DFE2C20C4
:1002D00001F07AFEF0BD00BFFEE7000010B5024855
:1002E00000F064F810BD0000DC170020704710B566
:1002F000402000F05FF910BD7047000070B5044663
:10030000002594F82100022803D00420A0630125D1
:1003100048E02068006820F00E002168086020682E
:10032000006820F00100216808601F4920688842A9
:1003300001D1012026E01C4914312068884201D1F6
:1003400010201FE0184928312068884201D180150B
:1003500018E015493C312068884201D1801411E031
:10036000114950312068884202D14FF4803009E0B1
:100370000D4964312068884202D14FF4801001E0B9
:100380004FF08070084908394860012084F8210046
:1003900000BF002084F8200000BF606B10B1204631
:1003A000616B8847284670BD0800024070B504465E
:1003B000E06B05682068066894F8401004208840C7
:1003C0002840002846D006F00400002842D02068CB
:1003D000006800F0200028B92068006820F00400C0
:1003E0002168086057492068884201D1042027E02D
:1003F000544914312068884201D1402020E05149FD
:1004000028312068884201D1001519E04D493C315E
:100410002068884202D14FF4804011E049495031B0
:100420002068884202D14FF4802009E045496431B8
:100430002068884202D14FF4800001E04FF08060D4
:10044000404908394860E06A00287AD02046E16ACD
:10045000884776E094F84010022088402840A0B3F6
:1004600006F0020088B32068006800F0200040B960
:100470002068006820F00A0021680860012084F8E4
:10048000210030492068884201D1022028E02D490E
:1004900014312068884201D1202021E029492831E7
:1004A0002068884201D140151AE026493C31206875
:1004B000884202D14FF4005012E0224950312068A6
:1004C000884203D14FF400300AE017E01D4964313F
:1004D0002068884202D14FF4001001E04FF0007014
:1004E00018490839486000BF002084F8200000BF88
:1004F000A06A30B32046A16A884722E094F84010F1
:10050000082088402840E0B106F00800C8B1206803
:10051000006820F00E002168086094F84010012067
:100520008840E16B48600120A06384F8210000BF8F
:10053000002084F8200000BF206B10B12046216B02
:10054000884770BD080002400146002209B9012019
:100550007047164B0868C01A1423B0FBF3F08000F4
:10056000086412480838C863022081F8210008682E
:10057000026843F6F0708243D1E901031843CB6867
:1005800018430B6918434B6918438B691843CB69AF
:10059000184302430868026000208863012081F844
:1005A0002100002081F8200000BFD1E708000240B0
:1005B0007047000010B5044604480068204020B190
:1005C000024804602046FFF7F3FF10BD1404014009
:1005D0002DE9F8470346002294466EE14FF00108EA
:1005E00008FA02F4D1F8008008EA0400A0427DD1A4
:1005F000DFF8DCA2D1F80480A8EB0A09D0453AD094
:1006000014DCB8F1030F50D009DCB8F1000F31D081
:10061000B8F1010F1CD0B8F1020F49D120E0B8F1B8
:10062000110F18D0B8F1120F42D11EE0B9F5881F92
:1006300025D006DCB9F5803F20D0B9F5801F37D131
:100640001AE0B9F5001F18D0B9F5041F30D117E032
:10065000D1F80CC02DE0D1F80C8008F1040C28E092
:10066000D1F80C8008F1080C23E0D1F80C8008F1D7
:100670000C0C1EE000BF00BF00BF00BF00BF00BFEA
:10068000D1F80880B8F1000F02D14FF0040C0BE054
:10069000D1F80880B8F1010F03D14FF0080C1C61AC
:1006A00002E04FF0080C5C6103E04FF0000C00E04A
:1006B00000BF00BFFF2801D8984601E003F10408FD
:1006C0004646FF2802D84FEA820803E0A2F1080854
:1006D0004FEA88084746D6F800804FF00F0909FA1C
:1006E00007F928EA09080CFA07F900E088E048EA67
:1006F0000908C6F80080D1F8048008F08058B8F1E5
:10070000805F7DD100BFDFF8CC81D8F8188048F039
:100710000108DFF8C091C9F81880C846D8F81880D9
:1007200008F00108CDF8008000BF00BF4FEAB938DB
:100730004FEA920958F829504FEA82784FEA18791F
:100740004FF00F0808FA09F825EA0805DFF8888154
:10075000434502D14FF0000816E0DFF880814345A1
:1007600002D14FF001080FE0DFF87481434502D158
:100770004FF0020808E0DFF86C81434502D14FF0EA
:10078000030801E04FF004084FEA82794FEA197933
:1007900008FA09F848EA0505DFF84C814FEA9209A2
:1007A00048F82950D1F8048008F48038B8F5803F23
:1007B0000AD1DFF83881D8F8008048EA0008DFF86D
:1007C0002C91C9F8008009E0DFF82081D8F800807A
:1007D00028EA0008DFF81491C9F80080D1F80480F5
:1007E00008F40038B8F5003F10D1DFF8008108F1B7
:1007F0000408D8F8008048EA0008DFF8F09000E02C
:100800005AE009F10409C9F800800DE0DFF8DC8046
:1008100008F10408D8F8008028EA0008DFF8CC9036
:1008200009F10409C9F80080D1F8048008F480189F
:10083000B8F5801F0ED1DFF8B48008F10808D8F8A9
:10084000008048EA0008DFF8A49009F10809C9F817
:1008500000800DE0DFF8948008F10808D8F80080E7
:1008600028EA0008DFF8849009F10809C9F8008037
:10087000D1F8048008F40018B8F5001F0ED1DFF895
:100880006C8008F10C08D8F8008048EA0008DFF80E
:100890005C9009F10C09C9F800800DE0DFF84C808C
:1008A00008F10C08D8F8008028EA0008DFF83C902E
:1008B00009F10C09C9F80080521CD1F8008028FA0F
:1008C00002F8B8F1000F7FF489AEBDE8F8870000A8
:1008D000000011100010024000080140000C01400F
:1008E00000100140001401400800014000040140D4
:1008F0000AB1016101E00B0403617047014800681F
:100900007047000024140020034800680349097858
:100910000844014908607047241400202C1400206A
:1009200010B50848006840F0100006490860032030
:1009300000F0A8F8002000F007F800F02BF80020E5
:1009400010BD00000020024070B504460E4800783B
:100950004FF47A71B1FBF0F00C490968B1FBF0F586
:10096000284600F0D3FC08B1012070BD102C07D23E
:1009700000222146501E00F047F80548046001E0BF
:100980000120F2E70020F0E72C14002030140020B2
:100990002814002008B500BF1148806940F001000C
:1009A0000F4988610846806900F00100009000BF8F
:1009B00000BF00BF0846C06940F08050C8610846CB
:1009C000C06900F08050009000BF00BF00BF054923
:1009D000486820F0E06040F00070486000BF08BD4B
:1009E000001002400000014001460846002809DBD3
:1009F00000F01F0301229A4043099B0003F1E0230A
:100A0000C3F8002100BF70472DE9F05F80460D4616
:100A10001646002705F0E8F9074639462A463346C8
:100A200001F00700C0F1070ABAF1040F02D94FF034
:100A3000040A01E0C0F1070AD14600F1040ABAF144
:100A4000070F02D24FF0000A01E0A0F1030AD446DA
:100A50004FF0010A0AFA09FAAAF1010A0AEA020A9F
:100A60000AFA0CFA4FF0010B0BFA0CFBABF1010B7D
:100A70000BEA030B4AEA0B042146404605F0BCF999
:100A8000BDE8F09F00BF00F00702064B19684FF663
:100A9000FF031940044B0B4343EA0221014B196049
:100AA00000BF70470CED00E00000FA0570B5044689
:100AB0000D460CB9012070BD5A48006800F00700CF
:100AC000A8420ED25748006820F007002843554935
:100AD00008600846006800F00700A84201D0012025
:100AE000E9E7207800F0020002281DD1207800F00C
:100AF0000400042805D14C48406840F4E0604A49AD
:100B00004860207800F00800082805D14648406871
:100B100040F46050444948604348406820F0F00089
:100B2000A168084340494860207800F0010078B38C
:100B30006068012806D13C48006800F4003090B994
:100B40000120B8E76068022806D13748006800F045
:100B5000007040B90120AEE73348006800F00200A1
:100B600008B90120A7E73048406820F00300616819
:100B700008432D494860FFF7C1FE064609E0FFF72C
:100B8000BDFE801B41F28831884202D9032092E7E2
:100B900007E02548406800F00C006168B0EB810F69
:100BA000EDD12048006800F00700A8420ED91D488A
:100BB000006820F0070028431A49086008460068CA
:100BC00000F00700A84201D0012074E7207800F06F
:100BD0000400042807D11448406820F4E060E1686C
:100BE000084311494860207800F00800082808D11F
:100BF0000D48406820F46050216940EAC1000A496C
:100C0000486000F03FF808494968C1F30311074AFA
:100C1000515CC8400649086006480068FFF794FE2A
:100C2000002048E70020024000100240C071000888
:100C3000301400202814002001480068704700008C
:100C40003014002000B5FFF7F7FF04494968C1F3ED
:100C50000221034A515CC84000BD00000010024060
:100C6000D071000800B5FFF7E7FF04494968C1F3F8
:100C7000C221034A515CC84000BD00000010024080
:100C8000D0710008F0B585B00FF26C0C9CE8E01054
:100C900001A8A0E8E0101CA52D6800950021002205
:100CA000002300240020194D696801F00C05F5B1FE
:100CB000042D02D0082D19D101E0154819E001AD2D
:100CC000C1F38346AC5D01F4803555B10F4D6D68BD
:100CD000C5F340451DF805200D4D6543B5FBF2F306
:100CE00002E00C4D04FB05F3184602E000BF084883
:100CF00000BF00BF05B0F0BD0203040506070809E8
:100D00000A0B0C0D0E0F1010010200000010024023
:100D100000127A0000093D00F8B504460CB9012024
:100D2000F8BD207800F00100002878D0F84840682D
:100D300000F00C0004280CD0F548406800F00C00CE
:100D4000082811D1F248406800F48030B0F5803FA7
:100D50000AD1EF48006800F4003000285FD06068D6
:100D600000285CD10120DBE700BF6068B0F5803F60
:100D700006D1E748006840F48030E549086028E083
:100D8000606858B9E248006820F48030E0490860A3
:100D90000846006820F4802008601AE06068B0F51A
:100DA000A02F0BD1DA48006840F48020D8490860B1
:100DB0000846006840F4803008600AE0D4480068C3
:100DC00020F48030D24908600846006820F4802072
:100DD000086000BF606888B1FFF790FD054606E037
:100DE000FFF78CFD401B642801D9032098E7C84811
:100DF000006800F400300028F2D010E0FFF77EFD1C
:100E0000054606E0FFF77AFD401B642801D9032060
:100E100086E7BF48006800F400300028F2D120784F
:100E200000F00200022857D1B948406800F00C00D9
:100E300050B1B748406800F00C00082818D1B448F9
:100E4000406800F4803098B9B148006800F00200B2
:100E500020B12069012801D0012061E7AC48006879
:100E600020F0F800616940EAC100A949086033E058
:100E70002069E8B10120A7490860FFF73FFD05465A
:100E800006E0FFF73BFD401B022801D9032047E79E
:100E90009F48006800F002000028F2D09C480068DB
:100EA00020F0F800616940EAC1009949086013E048
:100EB000002098490860FFF721FD054606E0FFF78E
:100EC0001DFD401B022801D9032029E79048006836
:100ED00000F002000028F2D1207800F00800082875
:100EE0002DD1A069B8B101208B490860FFF706FD3C
:100EF000054606E0FFF702FD401B022801D903204A
:100F00000EE78348406A00F002000028F2D001207A
:100F100001F03AFA13E000207F490860FFF7EEFC89
:100F2000054606E0FFF7EAFC401B022801D9032032
:100F3000F6E67748406A00F002000028F2D12078F7
:100F400000F00400042873D100277148C06900F044
:100F5000805070B900BF6E48C06940F080506C4945
:100F6000C8610846C06900F08050009000BF00BF13
:100F700001276A48006800F48070B0B967480068CB
:100F800040F4807065490860FFF7B8FC054606E04C
:100F9000FFF7B4FC401B642801D90320C0E65F487A
:100FA000006800F480700028F2D000BFE0680128DB
:100FB00006D15748006A40F001005549086227E011
:100FC000E06858B95248006A20F0010050490862B0
:100FD0000846006A20F00400086219E0E06805286D
:100FE0000BD14B48006A40F00400494908620846AA
:100FF000006A40F0010008620AE04548006A20F0FB
:101000000100434908620846006A20F004000862B3
:1010100000BFE068A0B1FFF771FC054609E0FFF7EB
:101020006DFC401B41F28831884202D9032077E6EB
:1010300022E03748006A00F002000028EFD012E0FA
:10104000FFF75CFC054608E0FFF758FC401B41F247
:101050008831884201D9032062E62D48006A00F0F9
:1010600002000028F0D1012F05D12948C06920F0E5
:1010700080502749C86100BFE069C8B32448406870
:1010800000F00C00082860D0E069022848D1002058
:1010900020490866FFF732FC054606E0FFF72EFC04
:1010A000401B022801D903203AE61948006800F0E5
:1010B00000700028F2D1206AB0F5803F07D11448B3
:1010C000406820F40030A168084311494860D4E921
:1010D000080108430E49496821F4741108430C497A
:1010E000486001200B490866FFF708FC054607E049
:1010F0003DE0FFF703FC401B022801D903200FE667
:101100000348006800F000700028F2D02FE00000D3
:101110000010024000004242800442420070004041
:10112000002014490866FFF7E9FB054606E0FFF7D3
:10113000E5FB401B022801D90320F1E50E480068B9
:1011400000F000700028F2D111E0E069012800D120
:10115000E6E50948466806F48031206A814204D1F8
:1011600006F47011606A814201D00120D8E50020A8
:10117000D6E50000000042420010024010B50446CF
:101180000CB9012010BD606A00B900BF0021A16246
:1011900094F8510028B9002084F85000204600F04F
:1011A00031F8022084F851002068006820F04000E7
:1011B00021680860D4E901010843E1680843216916
:1011C000084361690843218B01F400710843E16918
:1011D0000843216A0843A16A084321680860042182
:1011E000A06901EA1040216848602068C06920F4C5
:1011F00000602168C86100206065012084F851000A
:101200000020BFE710B586B004460020029003908E
:10121000049005903649206888423DD100BF35488A
:10122000806940F48050334988610846806900F441
:101230008050019000BF00BF00BF0846806940F0A9
:10124000040088610846806900F00400019000BF36
:1012500000BFA0200290022003900320059002A965
:101260002548FFF7B5F92548254908601020486052
:101270000021234881608021C1600021016141611A
:101280008161C161FFF760F908B1FFF735F800BF70
:101290001B48A064446229E01A492068884225D18D
:1012A00000BF1448C06940F480401249C861084634
:1012B000C06900F48040019000BF00BF00BF084635
:1012C000806940F0080088610846806900F00800E5
:1012D000019000BF00BF4FF4204002900220039015
:1012E0000320059002A90848FFF772F906B010BD67
:1012F0000030014000100240000801403000024070
:10130000DC17002000380040000C014070B5044696
:101310002546681EB0F1807F01D301200FE0681ED2
:101320004FF0E02148610F214FF0FF3004F064FDE1
:1013300000204FF0E021886107200861002070BD87
:101340007047704710B50346002200BF93F83C0079
:10135000012801D1022010BD012083F83C0000BF0C
:1013600022F0FF00CC6840EA040222F440708C684E
:1013700040EA040222F480604C6840EA040222F44D
:1013800000600C6840EA040222F480500C6940EAD4
:10139000040222F400504C6940EA040222F4804026
:1013A000CC6940EA04021868426400BF002083F858
:1013B0003C0000BF00BFCEE710B5024600BF92F868
:1013C0003C00012801D1022010BD012082F83C0020
:1013D00000BF022082F83D001068436810688468EE
:1013E00023F070030868034324F080044868044332
:1013F0001068436010688460012082F83D0000BFDF
:10140000002082F83C0000BF00BFDDE710B50446B5
:101410000CB9012010BD94F83D0028B9002084F8D3
:101420003C00204600F00CF8022084F83D00211D0D
:10143000206801F029F8012084F83D000020E9E748
:1014400010B586B0044600200290039004900590E9
:101450002068B0F1804F2BD100BF1648C06940F022
:1014600001001449C8610846C06900F001000190FC
:1014700000BF00BF00BF0846806940F004008861DB
:101480000846806900F00400019000BF00BF012001
:10149000029000200390049002A90748FFF798F8F3
:1014A000002211461C20FFF7AFFA1C20FFF79CFA20
:1014B00006B010BD00100240000801400146086857
:1014C000C06840F001000B68D8600868806800F0D0
:1014D0000702062A05D00868006840F001000B6882
:1014E0001860002070472DE9F04104460D4600BF0A
:1014F00094F83C00012802D10220BDE8F0810120CF
:1015000084F83C0000BF022084F83D002068866813
:1015100026F0770626F47F462068866028685028E3
:1015200033D00CDC202850D004DC00284BD010280D
:1015300051D149E0302849D040284CD139E06028C9
:101540002DD0702807D0B0F5805F03D0B0F5005FD4
:1015500041D10DE040E0D5E902136A68206800F04F
:10156000DEFF2068866846F077062068866033E0F4
:10157000D5E902136A68206800F0D1FF206880680E
:1015800040F480402168886026E0EA686968206845
:1015900001F096F85021206800F0CCFF1CE0EA68CA
:1015A0006968206801F09FF86021206800F0C2FFA0
:1015B00012E0EA686968206801F082F8402120683A
:1015C00000F0B8FF08E000BF00BF00BF2968206836
:1015D00000F0B0FF00E000BF00BF012084F83D0034
:1015E00000BF002084F83C0000BF00BF85E77047C3
:1015F00010B5044620680069C0F34000D8B12068E7
:10160000C068C0F34000B0B16FF00200216808610B
:10161000012020772068806900F0030018B120467F
:10162000FFF7E5FF05E0204600F0DAF8204600F07D
:101630008FF90020207720680069C0F38000D8B1BE
:101640002068C068C0F38000B0B16FF0040021686A
:101650000861022020772068806900F4407018B18A
:101660002046FFF7C4FF05E0204600F0B9F8204609
:1016700000F06EF90020207720680069C0F3C000F8
:10168000D8B12068C068C0F3C000B0B16FF00800E6
:1016900021680861042020772068C06900F00300F9
:1016A00018B12046FFF7A3FF05E0204600F098F8A8
:1016B000204600F04DF90020207720680069C0F333
:1016C0000010D8B12068C068C0F30010B0B16FF04E
:1016D000100021680861082020772068C06900F4A4
:1016E000407018B12046FFF782FF05E0204600F069
:1016F00077F8204600F02CF9002020772068006958
:1017000000F0010058B12068C06800F0010030B15D
:101710006FF0010021680861204600F041F920685F
:101720000069C0F3C01058B12068C068C0F3C01091
:1017300030B16FF08000216808612046FFF700FE9D
:1017400020680069C0F3801058B12068C068C0F3F9
:10175000801030B16FF0400021680861204600F031
:1017600020F920680069C0F3401058B12068C068B3
:10177000C0F3401030B16FF02000216808612046AE
:10178000FFF7DFFD10BD000010B586B00446002055
:1017900002900390049005900E492068884216D16B
:1017A00000BF0D48806940F004000B49886108467D
:1017B000806900F00400019000BF00BFC8140290CF
:1017C00002200390059002A90448FEF701FF06B02D
:1017D00010BD0000002C0140001002400008014034
:1017E000704770B504460D46164600BF94F83C009D
:1017F000012801D1022070BD012084F83C0000BF07
:10180000022084F83D0036B1042E1BD0082E31D0C2
:101810000C2E5ED145E02946206800F095FE206838
:10182000806940F00800216888612068806920F0A4
:10183000040021688861206880692969084321685B
:10184000886147E02946206800F0AEFE2068806984
:1018500040F40060216888612068806920F480601D
:101860002168886120688069296940EA012021682F
:1018700088612FE02946206800F0CAFE2068C06910
:1018800040F008002168C8612068C06920F00400A9
:101890002168C8612068C069296908432168C86156
:1018A00018E02946206800F0E7FE2068C06940F48F
:1018B00000602168C8612068C06920F480602168E8
:1018C000C8612068C069296940EA01202168C861AF
:1018D00000E000BF00BF012084F83D0000BF0020F1
:1018E00084F83C0000BF00BF85E710B504460CB982
:1018F000012010BD94F83D0028B9002084F83C0078
:10190000204600F00DF8022084F83D00211D2068DB
:1019100000F0BAFD012084F83D000020E9E7000056
:1019200008B5094A016891420DD100BF074989698C
:1019300041F40061054A91611146896901F4006131
:10194000009100BF00BF08BD002C01400010024004
:101950007047000070B504460E46012231462068EB
:1019600000F0CCFD0D492068884201D1012000E043
:10197000002028B12068406C40F400402168486491
:101980002068806800F00705062D05D020680068F3
:1019900040F0010021680860002070BD002C01406B
:1019A00070477047704700002DE9F04704462068F3
:1019B00005682068C668206847694FF00008C1467E
:1019C00005F00F08B8F1000F0AD105F0200038B17A
:1019D00006F0200020B1204600F0C3FEBDE8F087ED
:1019E000B8F1000F6DD007F0010018B906F490703F
:1019F000002866D005F0010030B106F4807018B1FF
:101A0000E06B40F00100E06305F0040030B107F046
:101A1000010018B1E06B40F00200E06305F0020045
:101A200030B107F0010018B1E06B40F00400E06352
:101A300005F0080030B107F0010018B1E06B40F08C
:101A40000800E063E06B68B305F0200028B106F001
:101A5000200010B1204600F084FE20684069C0F3E9
:101A60008019E06B00F0080010B9B9F1000F22D026
:101A7000204600F056FE2068406900F04000B0B1FA
:101A80002068406920F0400021684861606B50B1D7
:101A90001748616B4863606BFEF730FC10B1606BF8
:101AA000416B88470CE02046FFF77CFF08E02046AA
:101AB000FFF778FF04E02046FFF774FF0020E063A3
:101AC0008CE705F0800030B106F0800018B12046A8
:101AD00000F06AFF82E705F0400030B106F04000F8
:101AE00018B1204600F02DFE78E700BF76E7000031
:101AF0000F27000810B504460CB9012010BDA069DD
:101B000000B100E000BF94F8390028B9002084F843
:101B10003800204600F028F8242084F83900206896
:101B2000C06820F400502168C860204600F06CFEB8
:101B30002068006920F490402168086120684069AD
:101B400020F02A00216848612068C06840F40050F5
:101B50002168C8600020E063202084F8390084F800
:101B60003A000020CAE7000010B586B00446002005
:101B700002900390049005901E492068884236D157
:101B800000BF1D48C06940F480201B49C861084659
:101B9000C06900F48020019000BF00BF00BF08466C
:101BA000806940F0080088610846806900F00800FC
:101BB000019000BF00BF081502900220039003208F
:101BC000059002A90D48FEF703FD4FF40060029056
:101BD00000200390049002A90848FEF7F9FC0022B7
:101BE00011462720FEF710FF2720FEF7FDFE06B066
:101BF00010BD00000048004000100240000C0140F1
:101C00007047704700BFFEE770B506468623EF2297
:101C100000210846FEF740FB00240AE0002504E00E
:101C2000304600F0C1F9681C85B2F02DF8DB601C6D
:101C300084B2872CF2DB70BDF0B503460C460F4D25
:101C4000C4EB041103EB0110C61700EB5676F61037
:101C5000AE5D0246C71700EB5777FF10A0EBC70732
:101C6000C7F1070C012707FA0CF77E400146C7179A
:101C700000EB5777FF10EE55F0BD00004004002048
:101C800010B5002065490860642000F0CDF90120FE
:101C90006349C1F8A401642000F0C6F9112000F0E6
:101CA00093F9782000F0C0F9362000F08DF970200B
:101CB00000F084F93A2000F087F9052000F07EF961
:101CC000B22000F081F90C2000F078F90C2000F02F
:101CD00075F9002000F072F9332000F06FF933201D
:101CE00000F06CF9B72000F06FF9352000F066F9CC
:101CF000BB2000F069F9192000F060F9C02000F065
:101D000063F92C2000F05AF9C22000F05DF901209F
:101D100000F054F9C32000F057F9122000F04EF9FA
:101D2000C42000F051F9202000F048F9C62000F04E
:101D30004BF90F2000F042F9D02000F045F9A42023
:101D400000F03CF9A12000F039F9E02000F03CF966
:101D5000D02000F033F9042000F030F90D2000F01D
:101D60002DF9112000F02AF9132000F027F92B207B
:101D700000F024F93F2000F021F9542000F01EF972
:101D80004C2000F01BF9182000F018F90D2000F08D
:101D900015F90B2000F012F91F2000F00FF9232095
:101DA00000F00CF9E12000F00FF9D02000F006F966
:101DB000042000F003F90C2000F000F9112000F0DD
:101DC000FDF8132000F0FAF82C2000F0F7F83F207F
:101DD00000F0F4F8442000F0F1F8512000F0EEF8A3
:101DE0002F2000F0EBF81F2000F0E8F81F2000F093
:101DF000E5F8202000F0E2F8232000F0DFF82120B1
:101E000000F0E2F8292000F0DFF84FF47F40FFF700
:101E1000FBFE4FF47F400349088010BDA40121421E
:101E200000002142121400202DE9FF4F05460F4605
:101E30001646AA463348B0F800B0772D01DCE02FF3
:101E400001DDBDE8FF8FA6F12000C6B207F10F0348
:101E5000EA1D39462846FEF71FFA039858BB0024AE
:101E600026E004EB0610284911F800904FF0000816
:101E700016E009F0010018B12248A0F800B003E014
:101E8000224800881F4908801E48008800F08CF80E
:101E90004FEA6909681C85B208F1010000F0FF08EB
:101EA000B8F1080FE5DB5546781C87B2601CC4B258
:101EB000102CD6DB20E000241CE004EB06101249B5
:101EC00011F800904FF000080FE009F0010030B168
:101ED0003A1991B205EB080290B2FFF7ADFE4FEA56
:101EE000690908F1010000F0FF08B8F1080FECDB08
:101EF000601CC4B2102CE0DB0248A0F800B000BFA8
:101F00009FE7000014140020D06B0008121400207A
:101F100070B505460E46144618E0772D03DD002502
:101F200006F1100086B2E02E06DD002005460646CA
:101F30004FF47840FFF768FE2278002331462846A8
:101F4000FFF772FF05F1080085B2641C20780028B5
:101F5000E3D170BD70B5114E8623EF2200210846F3
:101F6000FEF79AF9002514E000240EE030780121F4
:101F7000A140084020B90A48008800F015F803E0A5
:101F80000848008800F010F8641C082CEEDB761C72
:101F90006D1CB5F5616FE7DB70BD000040040020EB
:101FA000121400201414002000B50346C3F30720C8
:101FB00000F01CF8D8B200F019F800BD00B50346D7
:101FC000184600F013F800BD00B50346002005498F
:101FD0000860184600F00AF801200349C1F8A00182
:101FE00000BD0000A0012142000021420146002066
:101FF0000B4A106000BF0B48006800F00200002888
:10200000F9D00848001D016000BF0648006800F0D4
:1020100001000028F9D00348001D0068C0B27047D5
:10202000B08121420838004006E0482100BF0A1E66
:10203000A1F10101FBD100BF011EA0F10100F4D10B
:102040007047000008B500BF0A48406940F0010031
:10205000084948610846406900F00100009000BF4F
:1020600000BF002211460D20FEF7CEFC0D20FEF72A
:10207000BBFC08BD0010024000B585B000200190F7
:1020800002900390049000BF3048806940F0200027
:102090002E4988610846806900F02000009000BF4A
:1020A00000BF00BF0846806940F004008861084610
:1020B000806900F00400009000BF00BF00BF084628
:1020C000806940F0080088610846806900F00800D7
:1020D000009000BF00BF002241F2B0311C48FEF763
:1020E00007FC00224FF417411A48FEF701FC41F2A9
:1020F000B030019001200290002003900220049053
:1021000001A91348FEF764FA4FF41740019001202B
:102110000290002003900220049001A90D48FEF7D0
:1021200057FA402001900C4802900020039001A92A
:102130000748FEF74DFA002211461720FEF764FC0F
:102140001720FEF751FC05B000BD00000010024052
:10215000000C0140000801400000111010B50F48AC
:102160000F4908604FF48270486000210C4881607C
:10217000C16002210161012141614902816108219F
:10218000C16100210162416281620A21C162FEF7E0
:10219000F5FF08B1FEF7B0F810BD000000300140B7
:1021A0002C17002010B50E480E4908604FF48270BD
:1021B000486000210B488160C1600221016101215A
:1021C0004161490281610021C16101624162816214
:1021D0000A21C162FEF7D2FF08B1FEF78DF810BDEB
:1021E000003800408417002000B591B000200F9007
:1021F00010901C2108A8FDF7BEFF20216846FDF7BE
:10220000BAFF224822490860472048600021204840
:10221000816040F2F311C16000210161416181617F
:10222000FFF763FB08B1FEF767F800200F901090EE
:102230000FA91748FFF7C0F808B1FEF75DF8602056
:102240000890002009900A900C900D900E900C229E
:1022500008A90F48FFF7C5FA08B1FEF74DF80020AE
:10226000009001900290039004904FF4005005906C
:102270000020079069460648FFF764F808B1FEF7AA
:102280003BF80348FFF780FA11B000BD002C014075
:102290002018002000B587B000200390049005901E
:1022A0000690019002904FF08040164908604FF46C
:1022B000B470486000211348816040F2CF71C16062
:1022C000002101618161FFF7A1F808B1FEF714F860
:1022D0004FF400500390002004900590069003A94D
:1022E0000848FFF700F908B1FEF706F80020019052
:1022F000029001A90348FFF75FF808B1FDF7FCFF62
:1023000007B000BD6018002010B50B480B490860ED
:102310004FF4E1304860002108488160C1600161EC
:102320000C21416100218161C161FFF7E3FB08B12C
:10233000FDF7E2FF10BD000000480040A01800209B
:1023400000BFFEE77047000010B50446214607486D
:1023500004F070FB0649054800F098FF0448018925
:1023600004A003F01DFD0248008910BD5C19002087
:10237000201900200D0A20643A20253464206D6D58
:102380002E0000007047000008B508490968C90818
:102390004FF47A72B1FBF2F14143009100BF00BFEC
:1023A00000994A1E00920029F9D108BD301400207E
:1023B000704710B5FEF7A8FA10BD00B58FB0282100
:1023C00005A8FDF7D8FE14216846FDF7D4FE0120CC
:1023D000059000040690002007900120099002203B
:1023E0000C90C1030D914FF4E0110E9105A8FEF77A
:1023F00093FC08B1FDF780FF0F20009002200190B0
:10240000002002904FF4806003900020049002218D
:102410006846FEF74BFB08B1FDF76EFF0FB000BD3D
:102420001148006840F001000F4908600846406804
:102430000E4908400C494860084600680C490840AD
:10244000094908600846006820F4802008600846B2
:10245000406820F4FE0048604FF41F008860C80305
:102460000449086070470000001002400000FFF8B7
:10247000FFFFF6FE08ED00E010B50248FFF7B8F8E0
:1024800010BD00006018002010B50268184B98427B
:1024900008D0B0F1804F05D0164B984202D0164BB1
:1024A000984203D122F070024B681A43104B9842B5
:1024B00008D0B0F1804F05D00E4B984202D00E4BA1
:1024C000984203D122F44072CB681A4322F0800371
:1024D0004C6943EA040202608B68C3620B68836242
:1024E000034B984201D10B6903630123436110BD83
:1024F000002C0140000400400008004030B501F00D
:102500001F05012404FA05F3046A9C430462046A6B
:1025100001F01F0502FA05F52C43046230BD30B509
:102520000C46816821F47F4142EA03252543294373
:10253000816030BD0A46816821F0700142F00703D6
:10254000194381607047000030B5056A25F0010528
:102550000562026A4368846924F0700424F003046D
:102560000D682C4322F002028D682A430D4DA842CB
:1025700006D100BF22F00802CD682A4322F00402EF
:10258000084DA84207D123F4807323F400734D69EA
:102590002B438D692B43436084614D684563026220
:1025A00030BD0000002C014030B5056A25F0100553
:1025B0000562026A4368846924F4E04424F44074A8
:1025C0000D6844EA052422F020028D6842EA0512D3
:1025D0000E4DA84207D100BF22F08002CD6842EA2A
:1025E000051222F04002094DA84209D123F480636C
:1025F00023F400634D6943EA85038D6943EA85034B
:10260000436084614D688563026230BD002C0140E7
:1026100030B5056A25F480750562026A4368C469AD
:1026200024F0700424F003040D682C4322F400729B
:102630008D6842EA05220F4DA84207D100BF22F45F
:102640000062CD6842EA052222F48062094DA84268
:1026500009D123F4805323F400534D6943EA051351
:102660008D6943EA05134360C4614D68C563026226
:1026700030BD0000002C014030B5056A25F48055BE
:102680000562036A4468C26922F4E04222F440729F
:102690000D6842EA052223F400538D6843EA0533AE
:1026A000064DA84204D124F480444D6944EA8514BF
:1026B0004460C2614D680564036230BD002C014076
:1026C00030B50B461446026A056A25F0010505621D
:1026D000816921F0F00141EA041122F00A021A4353
:1026E0008161026230BD30B50B461446056A25F0A3
:1026F000100505628169026A21F4704141EA0431E2
:1027000022F0A00242EA03128161026230BD70B57C
:1027100005466C6A0020E085E0842046FFF742F918
:1027200070BD0168C96821F490710268D1600168C8
:10273000496921F0010102685161202180F83A10B5
:10274000704710B504462068C06820F0400021683A
:10275000C860202084F839002046FFF752FA002094
:1027600010BD70B5044694F83A0022284AD1A068FA
:10277000B0F5805F13D1A56A206940B92068406830
:10278000C0F308002880A06A801CA06219E02068BD
:102790004068C0B22880A06A401CA06211E0206995
:1027A00038B920684068C1B2A26A501CA06211709A
:1027B00007E02068406800F07F01A26A501CA06218
:1027C0001170E08D401E80B2E085C8B92068C068F5
:1027D00020F020002168C8602068C06820F4807064
:1027E0002168C8602068406920F0010021684861C4
:1027F000202084F83A002046FFF702FA002070BD3E
:102800000020FCE70220FAE770B504462168096958
:1028100021F44051E2681143226811612269A168E4
:102820001143626941EA02052168C96841F20C62FC
:10283000914329432268D1602168496921F440719C
:10284000A269114322685161564A2168914254D1CC
:10285000FEF708FA00EBC00101EB0011626892007C
:10286000B1FBF2F100EBC00202EB001263689B00C7
:10287000B2FBF3F26423B2FBF3F202EBC20303EB0D
:102880000212A1EB8201322202EB01116422B1FBA0
:10289000F2F101F0F00100EBC00202EB00126368FC
:1028A0009B00B2FBF3F26423B2FBF3F201EB0212E2
:1028B00000EBC00101EB001163689B00B1FBF3F179
:1028C00000EBC00303EB00136668B600B3FBF6F33E
:1028D0006426B3FBF6F303EBC30606EB0313A1EB8D
:1028E0008301322303EB01116423B1FBF3F101F007
:1028F0000F0111442268916053E0FEF7A3F900EB49
:10290000C00101EB001162689200B1FBF2F100EB33
:10291000C00202EB001263689B00B2FBF3F2642377
:10292000B2FBF3F202EBC20303EB0212A1EB820152
:10293000322202EB01116422B1FBF2F101F0F0014D
:1029400000EBC00202EB001263689B00B2FBF3F2E3
:102950006423B2FBF3F201EB021200EBC00101EBC6
:10296000001163689B00B1FBF3F100EBC00303EBC4
:1029700000136668B600B3FBF6F36426B3FBF6F308
:1029800003EBC30606EB0313A1EB8301322303EB36
:1029900001116423B1FBF3F101F00F01114422682E
:1029A000916070BD00380140014691F8390021283E
:1029B0002CD18868B0F5805F0FD10A6A1088C0F307
:1029C00008000B685860086918B9086A801C08621A
:1029D00009E0086A401C086205E00B6A581C08629E
:1029E00018780B685860C88C401E80B2C88458B9EB
:1029F0000868C06820F080000B68D8600868C0686C
:102A000040F040000B68D860002070470220FCE7CF
:102A100010B50248FEF7C8FF10BD0000A018002046
:102A200000BFFEE72DE9FC4106460F460024DA20F0
:102A3000855D012D03D0022D01D0032D2ED16B46D3
:102A400001AA0121304600F0CCF904460198B0F506
:102A50007F0F03D80098B0F57F0F1FD9F4B92FB1BD
:102A60001049304602F0B2F9044617E00422FF2173
:102A7000304601F050F8044300227021304601F046
:102A80004AF804430022FF21304601F044F8044391
:102A900000228021304601F03EF804432046BDE884
:102AA000FC81000027150020F8B506460F460024DB
:102AB000002500BF01220B21304601F02CF804460E
:102AC00000220B21304601F026F804436A46132108
:102AD000304600F004FC0443681CC5B29DF80000B9
:102AE00000F0070018B1032D01DA002CE2D0032D0D
:102AF00001DB6FF00B042046F8BD000070B592B00A
:102B0000054600240123FE228921284600F0DAFF31
:102B100004462CB900228821284600F0FCFF044618
:102B20000021F02041554FF47A70A5F852014FF47E
:102B3000C870A5F854015A48C5F858015948C5F855
:102B4000D400296202A9284600F0B3F8044654B91B
:102B500000208DF808008DF80900402202A905F137
:102B60001000FDF7EFFA642005F59A7528804FF400
:102B7000617068804FF4FA70A8804FF4206028815B
:102B800001202877A5F59A7501228021284600F0BA
:102B9000C2FF04430122FF21284600F0BCFF04438A
:102BA00000221146284600F0B6FF044301AA9121F5
:102BB000284600F094FB04439DF8040085F83A0190
:102BC00001220021284600F0A6FF04430022FF2135
:102BD000284600F0A0FF044300228021284600F090
:102BE0009AFF0443002609E034B9B1B20122284615
:102BF00000F0B0FC044300E002E0761C062EF3DB9C
:102C000000BF2CB900220221284600F0A3FC044694
:102C10002CB900220321284600F09CFC04462CB964
:102C200000220421284600F095FC04462CB900221D
:102C30000521284600F08EFC044634B94FF490126A
:102C40000021284600F0E7FC044634B94FF48042E6
:102C50000121284600F0DFFC044634B94FF40C1281
:102C60000221284600F0D7FC04462CB9002203219B
:102C7000284600F0D0FC04465CB9FF2085F83001FE
:102C8000FF220121284600F046FF0446012085F876
:102C9000320114B9002185F81511204612B070BD1B
:102CA000856B0100A470090002460020137C0B70A4
:102CB00070472DE9F04107460D4600242946384665
:102CC000FFF7F2FF04462CB905F10801384600F081
:102CD00051F804460CB9002028732CB905F11001F5
:102CE000384600F07AFA04462CB905F1140138464A
:102CF00000F037F90446E4B9002617E04CB905F1B5
:102D0000240000EB8602B1B2384600F099F8044383
:102D100000E00DE044B905F118008219B1B238465F
:102D200000F080F8044300E002E0761C062EE5DBAC
:102D300000BF2CB905F13C01384600F029FA0446E1
:102D400024B9291D384600F001F904462046BDE8A3
:102D5000F08170B506460C46002522460921304612
:102D600000F0BDFA05461DB9207800F00100207082
:102D7000284670BD7CB506460C46002501AAF82100
:102D8000304600F0D8FA05462DB96A46042130468F
:102D900000F0BBFA054655B9BDF8040028B1BDF8EE
:102DA00004100098B0FBF1F020602168B161284662
:102DB0007CBDF8B505460C4600266A461321284618
:102DC00000F08DFA06469DF8000000F00700206034
:102DD0009DF8000000F0180008B16FF005063046BD
:102DE000F8BD2DE9F8430746884614461D460026DF
:102DF0006A460E21384600F09EFA0646BDF80000ED
:102E00000005C008206056B96A460C21384600F01B
:102E100092FA0646BDF800000005C008286030465A
:102E2000BDE8F88330B503460020062903DB001F08
:102E30000025157003E003F128056C5C147030BDAB
:102E40002DE9F84305460E4617464FF00008C146E7
:102E5000062E2FD2DFE806F00307161A1E1F6C6B32
:102E60004FF0000929E06A464421284600F063FA41
:102E70008046B8F1000F02D1BDF8000044024FF0C7
:102E800001091AE0EC6B4FF0000916E02C6C4FF0D2
:102E9000000912E000BF6A466421284600F04BFAA0
:102EA0008046B8F1000F02D1BDF8000044024FF097
:102EB000000902E06FF0030800BF00BFB8F1000F87
:102EC00016D1B9F1010F12D144B905F1340050F80F
:102ED00026403C6000210C38815509E03C6005F13A
:102EE000340040F8264001210C38815500E03C6058
:102EF0004046BDE8F8832DE9FC4105460C46002616
:102F0000DA20475D042F0DD169462846FFF751FFAF
:102F100006460098042802D10120207013E000200A
:102F2000207010E001AA1421284600F0D8F90646C6
:102F30004EB99DF8040000F0010010B1012020708E
:102F400001E0002020703046BDE8FC8170B50446E9
:102F50000D4600262946204601F0ACFB06463046C9
:102F600070BD70B504460D4600262946204601F086
:102F700018FC0646304670BD70B504460D46002666
:102F80002946204601F038FC0646304670BD2DE942
:102F9000F04F93B005460C464FF000080C230AAAE8
:102FA0001421284600F0DDF98046B8F1000F7DD1EC
:102FB0000020A07520609DF833009DF8321000EBD2
:102FC000012087B2002060609DF82F009DF82E1030
:102FD00000EB01200004C609E6609DF831009DF871
:102FE000301000EB012080B20F900F98400220615A
:102FF0009DF82B009DF82A1000EB01201FFA80F9A4
:10300000A4F814909DF828001290B5F852010D9084
:1030100095F831B10D98B0F57A7F2AD00D987843A4
:1030200000F5FA704FF47A7190FBF1F087B2288CBA
:1030300080B20E90287F10901098D0B10E9800FBAF
:1030400009F0A6EB202040B9BBF1000F02D042F2FC
:10305000B82A0DE048F6E02A0AE007FB06F10E98D0
:1030600000FB09F0A6EB2020B1FBF0F01FFA80FA7C
:103070005746BBF1000F05D0B8102081B807000EED
:10308000E07502E027810020E07511A84B4632462A
:10309000CDE900402846129901F014FD40EA0808E5
:1030A000B8F1000F02D19DF844002076B8F1000F6E
:1030B00020D11C2205F1500103A8FDF743F8208917
:1030C000ADF81400E07D8DF823006089ADF816009E
:1030D00060680490E068069020690790A08AADF8C7
:1030E0002000207E8DF824001C2203A905F1500049
:1030F000FDF728F8404613B0BDE8F08FF8B5064656
:103100000C460025002000906A460121304600F060
:10311000E6F805463DB923469DF8002000213046DB
:1031200003F04CFB05463DB9A31C9DF8002001218E
:10313000304603F043FB05463DB9631C9DF8002073
:103140000221304603F03AFB05463DB9E31C9DF8E9
:1031500000200321304603F031FB05463DB9231D15
:103160009DF800200421304603F028FB0546284640
:10317000F8BD2DE9F04104460D46164600273246BB
:103180002946204601F0E9FD07463846BDE8F081B2
:10319000F8B506460C4600256A460121304600F087
:1031A0009EF805466DB99DF8000086F830019DF83F
:1031B000000000F0800010B10120207001E000202C
:1031C000207015B9217886F84C102846F8BD10B546
:1031D00002460020137F0B7010BDF8B504460E4662
:1031E00000276A462021204600F0A5F8074677B957
:1031F000BDF8000020B9256A35600021217706E07E
:10320000BDF80000C50035602562012121773846F0
:10321000F8BD2DE9F04104460D461646002701236E
:1032200032462946204601F0A5FE07463846BDE84D
:10323000F0812DE9F04104460D461646002732463E
:103240002946204601F0BCFE07463846BDE8F0811D
:1032500038B50546002469462846FFF725FD044693
:1032600034B99DF8000018B9284600F0D4FA044695
:103270001CB9284601F01FFE04462CB99DF8000039
:1032800010B9032085F83201204638BD70B50546D7
:103290000E4600240021284600F090F804461CB990
:1032A0002846FFF7D5FF044624B931462846FFF7E4
:1032B0006EFE044624B900212846FFF7F5FB0446BC
:1032C000204670BD08B5014600200022009202E0B1
:1032D000009A521C0092009AFA2AF9D308BD2DE9EF
:1032E000F04704460D461646002794F85C91324696
:1032F0002946484602F00CF88046B8F1000F01D08C
:103300006FF013073846BDE8F0872DE9F047044613
:103310000D461646002794F85C91324629464846E9
:1033200002F004F88046B8F1000F01D06FF01307E7
:103330003846BDE8F0872DE9F04704460D461646AD
:10334000002794F85C9132462946484602F01FF85F
:103350008046B8F1000F01D06FF013073846BDE882
:10336000F0872DE9F0470646884691461C464FF007
:10337000000A402C01D36FF0030A96F85C71A3B2E7
:103380004A464146384601F0EEFF05460DB16FF062
:10339000130A5046BDE8F0872DE9F04105460C467A
:1033A0000026274604EBD770C0F347028A2128463F
:1033B00000F0B1FB06463046BDE8F0810246002031
:1033C00003290BD003DC39B101290BD105E0142905
:1033D00005D0152906D103E000BF00BF00BF00BF24
:1033E000117402E06FF0070000BF00BF70472DE9C5
:1033F000F0478046894617461E46DDF820A0002487
:10340000B9F1000F02D06FF00904A0E0142F0CD125
:10341000BAF1000F01D1102500E001252A468421D0
:10342000404600F078FB044691E0152F5AD1012266
:10343000FF21404600F06FFB044300221146404646
:1034400000F069FB04430022FF21404600F063FBCB
:10345000044301228021404600F05DFB0443022228
:103460008521404600F057FB04430422FF214046DB
:1034700000F051FB04430022CD21404600F04BFBFD
:1034800004431122CC21404600F045FB04430722AF
:10349000FF21404600F03FFB04430022BE2140468E
:1034A00000F039FB04430622FF21404600F033FBC5
:1034B00004430922CC21404600F02DFB04430022A6
:1034C000FF21404600F027FB04430122FF21404634
:1034D00000F021FB044300221146404600F01BFB94
:1034E000044334E0A4B9052E0ED2DFE806F003054C
:1034F00007090B0000250AE0012508E0022506E087
:10350000032504E0042502E06FF00A0400BF00BFB9
:103510002CB92A460A21404600F0FDFA044664B957
:10352000BAF1000F01D1002500E010252B46EF2253
:103530008421404600F0C6FA044614B9DA2000F8A7
:10354000086024B900214046FFF7AEFA0446204641
:10355000BDE8F0872DE9F05F04460D4616464FF0B2
:103560000009CB460027BA46062D02DB6FF003099F
:1035700041E02EB94FF0000B00274FF0010A06E0A2
:1035800004F1340050F825B04FF0000A0127062D51
:103590002DD2DFE805F003060E1114202820075570
:1035A00028E0CBF34F224421204600F0CAFA81469E
:1035B00020E084F82A701DE084F82B701AE04FEAAE
:1035C0004A604FEA10684346FE226021204600F020
:1035D00079FA81460EE04FEA0A704FEA10684346D6
:1035E000EF226021204600F06DFA814602E06FF084
:1035F000030900BF00BFB9F1000F09D126B90021AE
:1036000004F12800415503E0012104F1280041554F
:103610004846BDE8F09F2DE9F04105460E461446A8
:10362000002705F1280010F80680B8F1000F03D13B
:103630000C3040F8264026E0062E1BD2DFE806F0CC
:1036400003050D0F11126C6317E0C4F34F224421E0
:10365000284600F076FA07460FE0EC630DE02C6494
:103660000BE000BFC4F34F226421284600F069FA42
:10367000074602E06FF0030700BF00BF1FB905F166
:10368000340040F826403846BDE8F08170B5044665
:103690000D4600262946204601F0E6FE0646304645
:1036A00070BD70B504460D4600262946204601F03F
:1036B0006FFF0646304670BD2DE9F04104460D46C9
:1036C0001646002732462946204601F08BFF074662
:1036D0003846BDE8F0812DE9F04104460D46164616
:1036E000002732462946204601F093FF0746384618
:1036F000BDE8F0812DE9F84307460D4690460026C7
:103700000020009000246A4601213846FFF7E7FDBB
:1037100006469DF80040002E36D1B8F1010F19D1B0
:10372000052D13D2DFE805F00306090C0F0044F065
:1037300010040EE044F028040BE044F0040408E018
:1037400044F0400405E044F0800402E06FF003061A
:1037500000BF19E0052D13D2DFE805F00306090CC0
:103760000F0004F0EF040EE004F0D7040BE004F0C7
:10377000FB0408E004F0BF0405E004F07F0402E06D
:103780006FF0030600BF00BF9DF80000844210D018
:103790002EB922460121384600F0BDF906460EB981
:1037A00087F830412EB9D7F8149049463846FFF7CC
:1037B0006DFF3046BDE8F8832DE9F04104460D4623
:1037C0001646002732462946204601F083FF074669
:1037D0003846BDE8F0812DE9F04704460D46002744
:1037E00094F81C80B4F85291B8F1000F01D1256211
:1037F0000EE0B9F57A7F02D1C5F3CF0600E00026CE
:1038000032462021204600F09CF9074607B9256280
:103810003846BDE8F0872DE9FC4106460024012723
:1038200001A93046FFF740FA01228021304600F01E
:1038300072F904460122FF21304600F06CF904467B
:1038400000221146304600F066F9044696F83A2107
:103850009121304600F05FF90446012200213046F4
:1038600000F059F904460022FF21304600F053F9D8
:10387000044600228021304600F04DF904469DF8B0
:10388000040020B1012823D0032843D131E00122D4
:103890000021304600F03FF904460097BCB90025EE
:1038A00000BF2DB16A4600213046FFF718FD0446DF
:1038B0006D1C9DF800003840B84203D114B9B5F52D
:1038C000FA6FEED3B5F5FA6F01D36FF0060424E07A
:1038D00024B901213046FFF7A5F804460222002151
:1038E000304600F018F9044614B9042086F8320175
:1038F00013E024B901213046FFF794F8044604226E
:103900000021304600F007F9044614B9042086F877
:10391000320102E06FF0070400BF00BF2046BDE89F
:10392000FC8100002DE9F04397B0054600244021BA
:1039300007A8FCF720FC0020069005908146002790
:103940000490039000260121284600F00EFC044656
:1039500095F8137195F81461012E05DC01D1202F23
:1039600002D846B90C2F06D904AA03A9284601F0AB
:1039700027FB044605E032463946284601F049FE59
:103980000446DFF83C814CB995F85091B9F1000F2D
:1039900002D1D5F84C8101E0DFF8248124B94146F9
:1039A000284601F013FA044644B9002004230246D5
:1039B000014600902846FFF71AFD04468CB9012203
:1039C000FF21284600F0A7F8044606AA84212846CD
:1039D000FFF7B1FC04430022FF21284600F09BF8CA
:1039E000044324B9BDF818000001C5F8D40024B977
:1039F00007A92846FFF75DF904464CB905A92846F2
:103A0000FFF7A7F904461CB99DF8140085F83101A9
:103A10002CB9402207A905F11000FCF793FB54B91B
:103A200005AA01212846FFF75AFC04461CB99DF857
:103A3000140085F830012CB9002211462846FFF702
:103A400059FE04462CB9002202212846FFF752FEF7
:103A5000044614B9032085F832012CB902AA0021CA
:103A60002846FFF786FB04461CB99DF80810E8209D
:103A700041552CB902AA01212846FFF77AFB0446DA
:103A80001CB99DF80810E02041552CB901AA03216A
:103A9000284602F0E3FC044614B9E42001994151A0
:103AA0002CB901AA0421284602F0D8FC044614B916
:103AB000DC2001994151204617B0BDE8F083000099
:103AC000341400202DE9F84F0446894615461E4659
:103AD000002794F85CA16A464946504601F018FC5C
:103AE0008046B8F1000F01D06FF0130787B99DF839
:103AF00000002840304300909DF800204946504681
:103B000001F067FF8046B8F1000F01D06FF0130796
:103B10003846BDE8F88F2DE9F04704460D461646B5
:103B2000002794F85C9132462946484601F051FF3F
:103B30008046B8F1000F01D06FF013073846BDE89A
:103B4000F0872DE9F04704460D461646002794F805
:103B50005C9132462946484601F05CFF8046B8F148
:103B6000000F01D06FF013073846BDE8F0872DE94C
:103B7000F04705460F4690461C464FF00009CA46DE
:103B8000402C01D36FF0030995F85C61A3B2424663
:103B90003946304601F02AFF8246BAF1000F01D0C3
:103BA0006FF013094846BDE8F08700002DE9FF4F8C
:103BB00090B01746DDF8788012200F904FF48040C7
:103BC0000E9042200D9006200C9007200B900020B4
:103BD00000901098B0F854010A901098D0F858014D
:103BE0000990DDE9091000FB01FA0AF180004FEAB3
:103BF000102A0A980AFB00FA00256FB1119880027A
:103C00000190019800EB5705B5FBF7F505EB45056D
:103C10006D4305F50040050C1D9913984843089025
:103C2000089800F50040000C089008984043089060
:103C300008F50040000C02900298C01C0621B0FB61
:103C4000F1F002900298C0EBC00002900298B0F52B
:103C5000803F02D3374807900DE008F103000621AA
:103C6000B0FBF1F8C8EBC80808F50040000C07905D
:103C700007984043079040F227100590059840436D
:103C8000059041F204100490049808300009049053
:103C9000DDE90410401A0590059800EB4000000192
:103CA0000690069800F50050800B0690DDE907109D
:103CB00044181F9804EB50041F98B4FBF0F4A403BD
:103CC000069804EB50040698B4FBF0F46C4304F53A
:103CD000FA704FF47A71B0FBF1F4240104F5FA7034
:103CE000B0FBF1F44FF04009B9F1000F05D00AEB39
:103CF0005900B0FBF9F0039001E000200390039815
:103D000001F04EF8834624B10AEB5400B0FBF4F600
:103D100000E00026304601F043F806462098C0F83F
:103D200000B0B34501D920980660009814B0BDE8F2
:103D3000F08F00000000F0FFE0B5064640F2776328
:103D40004FF4106202FB01F5A5FB0307E0BD000084
:103D50002DE9FF4FABB0054688464FF448702A90D6
:103D60004FF4167029904FF4C810289041F25C204F
:103D70002790B84826904FF470402590B64824907C
:103D8000B64823904FF4004022904FF44810219001
:103D900040F27760209000BF286A15904FF47A7146
:103DA000D8F810004843000C1690D8F80C000C907E
:103DB0000DAA4146284600F09FFF15AA4146284615
:103DC00000F0AEFF13904FF47A710D9800FB01F7ED
:103DD00007F50040070C1598484314901498B0F567
:103DE000481F02D94FF4481014901398002849D165
:103DF000DC2040591E90E020405D06902846069A3F
:103E00001E9900F02DF90990E42040591D90E820FA
:103E1000405D05902846059A1D9900F021F908900B
:103E200003200A900698082801D102200A900A98D7
:103E3000C002DDE90812114448430790079800F5D5
:103E4000FA704FF47A71B0FBF1F0079040F27761AD
:103E5000079848430790079800F5FA704FF47A7175
:103E6000B0FBF1F007900D988030000A0D90079993
:103E70000D9848431F901F988030000A1F900D989E
:103E800000020D90139818B113982FB0BDE8F08F71
:103E90004FB970492D9801600846C5F840010021CE
:103EA0002E980160D4E01F9808B901201F904FF4AC
:103EB00048701B9016980004B0FBF7F666488642DF
:103EC00000D906464FF4167046431F9901EB410195
:103ED000880000F065FF40001A90B8F808005F49BC
:103EE0004843199014984000C0EB074000F5FA7061
:103EF0004FF47A71B0FBF1F01290481000EB0740DC
:103F0000B0FBF1F11191129800021290DDE911124B
:103F1000B2FBF1F0002801DB014600E041421791BD
:103F200017980002179098F8180010B14FF48034D9
:103F300010E041F25C211998B0FBF1F41798C0F53C
:103F40008030444304F50040040C04F580346408D8
:103F50006443A40B1B9804FB00FA0AF500404FEAE7
:103F6000104A0AFB0AFAB3460BF500404FEA104B21
:103F70000BFB0BFB0AEB0B001090109800F010FFEE
:103F80000F900F9800040F900F9832306421B0FB0F
:103F9000F1F11A98B1FBF0F940F6B53009FB00F9E0
:103FA00041F2883081444000B9FBF0F9B9F5704F17
:103FB00001D94FF47049DDE91D10084400F5FA708D
:103FC0004FF47A71B0FBF1F01C904FF4C8111C98BB
:103FD00001EB5001B1FBF0F0049000F0E1FE0B901A
:103FE0000B9800020B900B9800F5FA704FF47A7161
:103FF000B0FBF1F00B9009FB09FA0B9800FB00FBFA
:104000000AEB0B0000F0CCFE0E904FF47A710E9884
:10401000484318902FB11F9818B10E49189888423C
:1040200001D90C4818902D99189808602D980068AF
:10403000C5F84001079A1B992E982346CDE90162E5
:10404000009103902846DDE90C21FFF7AFFD1390A6
:1040500013981AE7AE878F02666666009A99060083
:104060002DE9F04307460C46154600BF2946384661
:10407000FFF762FE814609F5FA704FF47A71B0FBE2
:10408000F1F60846604300EB5600B0FBF6F84046F8
:10409000BDE8F0832DE9F04306460C46154600279F
:1040A00029463046FFF748FE804608F5FA704FF47F
:1040B0007A71B0FBF1F904FB09F000F5FA70B0FB7E
:1040C000F1F73846BDE8F08301460020CAB20B0A7A
:1040D0009A40501C7047014600204A1C5206100EA0
:1040E0007047F8B506460024002283213046FFF7CA
:1040F00012FD0443B4B9002500BF6A46832130464F
:10410000FFF7EDF804469DF8000000B904B103E0A4
:104110006D1CB5F5FA6FF0D300BFB5F5FA6F01D39A
:104120006FF00604012283213046FFF7F4FC0443BC
:104130002046F8BD10B5014600200022002361B1E1
:104140004A1E02E052085C1CA3B222F0FF04002CBD
:10415000F8D1144663F31F24A0B210BD014600201D
:104160000122C2EB6102D0B270472DE9F04F93B04B
:1041700005460F46002400200E900D900C900B90E9
:10418000824683464FF4C8500A904FF00009002041
:1041900009900290F020465D072E7ED001228021FA
:1041A0002846FFF7B8FC04430122FF212846FFF709
:1041B000B2FC0443002211462846FFF7ACFC04433E
:1041C0000622FF212846FFF7A6FC044312AA8321FA
:1041D0002846FFF784F804439DF8480040F00402A5
:1041E00083212846FFF797FC04430722FF21284636
:1041F000FFF791FC0443012281212846FFF78BFC45
:1042000004432846FFF75EF8044301228021284634
:10421000FFF781FC044307F00100002855D006F0A9
:104220000100002851D16B2294212846FFF773FC2E
:1042300004432846FFF755FF044311AA902128465E
:10424000FFF763F804431198C0F306200E9011980D
:10425000C0F3C0300D90242294212846FFF75BFC68
:1042600004432846FFF73DFF044311AA9021284646
:10427000FFF74BF804431198000E8DF800001198D9
:10428000000C8DF801001198000A8DF802001198B9
:10429000C0B28DF80300252200E0A4E19421284655
:1042A000FFF739FC04432846FFF71BFF044311AA1C
:1042B00090212846FFF729F804431198000E8DF845
:1042C00004001198000C8DF8050007F00200022888
:1042D0007DD106F002000028FAD10222942128465E
:1042E000FFF719FC04432846FFF7FBFE044310AA1E
:1042F00090212846FEF7F3FF04437B2294212846B1
:10430000FFF709FC04432846FFF7EBFE04430FAA1E
:1043100090212846FEF7E3FF0443772294212846A4
:10432000FFF7F9FB04432846FFF7DBFE044311AA1D
:1043300090212846FEF7E9FF04437F21119801EA06
:1043400050608DF810001198C0F386408DF8110070
:104350001198C0F3C6208DF812001198C0F3061012
:104360008DF8130011980007400E129078229421C6
:104370002846FFF7D0FB04432846FFF7B2FE04436C
:1043800011AA90212846FEF7C0FF04437F2111980F
:1043900001EA50709DF848100844C0B28DF814002E
:1043A0001198C0F386508DF815001198C0F3C630EF
:1043B0008DF816001198C0F306208DF8170011989B
:1043C000C0F346008DF818001198C00700E05FE0C8
:1043D000400E1290792294212846FFF79CFB04435B
:1043E0002846FFF77EFE044311AA90212846FEF7D7
:1043F0008CFF04437F21119801EA90609DF84810DA
:104400000844C0B28DF819001198C0F3C6408DF869
:104410001A001198C0F306308DF81B001198C0F3F4
:1044200046108DF81C001198C006400E12907A229A
:1044300094212846FFF76FFB04432846FFF751FEFF
:10444000044311AA90212846FEF75FFF04437F2111
:10445000119801EA90709DF848100844C0B28DF898
:104460001D001198C0F3C6508DF81E001198C0F3BE
:1044700006408DF81F001198C0F346208DF82000EB
:104480001198C0F386008DF8210000208DF82200DD
:1044900007F00400042873D106F0040000286FD14F
:1044A0007B2294212846FFF736FB04432846FFF77A
:1044B00018FE04430CAA90212846FEF726FF044369
:1044C0007C2294212846FFF726FB04432846FFF769
:1044D00008FE04430BAA90212846FEF716FF04436A
:1044E000732294212846FFF716FB04432846FFF762
:1044F000F8FD044311AA90212846FEF706FF044365
:1045000011980006000C0990742294212846FFF7A8
:1045100002FB04432846FFF7E4FD044311AA90215F
:104520002846FEF7F2FE04431199099840EA11600B
:104530000990752294212846FFF7EDFA0443284696
:10454000FFF7CFFD044311AA90212846FEF7DDFEB8
:104550000443119800064FEA104976229421284618
:10456000FFF7D9FA04432846FFF7BBFD044311AA1D
:1045700090212846FEF7C9FE0443119849EA1069C4
:10458000002281212846FFF7C6FA04430622FF21B4
:104590002846FFF7C0FA044312AA83212846FEF7F3
:1045A0009EFE04439DF8480000F0FB02832128464C
:1045B000FFF7B1FA04430122FF212846FFF7ABFAC7
:1045C0000443012200212846FFF7A5FA04430022F4
:1045D000FF212846FFF79FFA044300228021284646
:1045E000FFF799FA0443002C60D1072E5ED007F044
:1045F0000100A8B106F0010090B90E9885F81301EA
:104600000D9885F81401A04607E01DF8081005F57F
:10461000957000F8081008F10108B8F1060FF4DBF6
:1046200007F00200022811D106F0020070B99DF8CF
:104630004010F12041559DF83C10F220415505F104
:10464000F300039004A90398FBF7A0FD07F0040012
:10465000042824D106F0040008BB4FF48C700C9998
:104660004151001D0B9941510998400202904FF4AD
:104670009071029848514FF0000BB9F1000F0CD027
:104680000A98A9EB000A4FF47A700AFB00F04FEA8F
:10469000101BCBF100000FFA80FBC5F80CB046EA06
:1046A000070012909DF84810F0204155204613B0A5
:1046B000BDE8F08F2DE9F04F87B006460C46002587
:1046C0004FF4FA60039040F276774FF470784FF42D
:1046D000257940F24E2A40F2B22B4846029040F231
:1046E000262001900020009007EB0800206005A91B
:1046F0003046FEF703FD05461DB1284607B0BDE86C
:10470000F08F9DF8140028B99DF8150010B99DF898
:10471000160008B303AA0221304601F09FFE0546A9
:10472000D5B99DF8140020B120680399514408447C
:1047300020609DF8160038B1206803995944022280
:1047400002FB0100206007E09DF8150020B1206801
:10475000039949440844206075B99DF8170058B181
:104760006A460321304601F079FE05462168009A29
:10477000029810440844206075B99DF8180058B19B
:1047800004AA0421304601F069FE05462168049A16
:1047900001981044084420600DB9216871612846D1
:1047A000ACE72DE9F84306460C46002540F2FF77BA
:1047B0004FF480586A4628213046FEF7BCFD054676
:1047C000BDB9BDF80000C0F30B000090BDF80000BB
:1047D000B84208DDBDF80000A0EB080000B2FA21E5
:1047E0004843206005E0BDF8000000B2FA214843CC
:1047F00020602846BDE8F88370B504460D460026C3
:10480000204614F1080F54D01DDC10F1140F64D0B1
:104810000CDC10F1630F77D010F1320F6FD010F174
:10482000280F64D010F11E0F73D15BE010F10C0F54
:1048300030D010F10B0F4BD010F10A0F43D010F114
:10484000090F66D13AE0C01D082862D2DFE800F007
:104850002C271D18130E090432A12846FBF796FCDD
:104860005CE033A12846FBF791FC57E037A12846CE
:10487000FBF78CFC52E03AA12846FBF787FC4DE0A1
:104880003BA12846FBF782FC48E040A12846FBF705
:104890007DFC43E042A12846FBF778FC3EE046A1C0
:1048A0002846FBF773FC39E046A12846FBF76EFC6F
:1048B00034E048A12846FBF769FC2FE04CA12846CC
:1048C000FBF764FC2AE04FA12846FBF75FFC25E0DC
:1048D00051A12846FBF75AFC20E056A12846FBF7D9
:1048E00055FC1BE059A12846FBF750FC16E05DA1E2
:1048F0002846FBF74BFC11E006E000E009E05FA171
:104900002846FBF743FC09E063A12846FBF73EFC81
:1049100004E067A12846FBF739FC00BF00BF304622
:1049200070BD00004E6F204572726F720000000073
:1049300043616C6962726174696F6E205761726E57
:10494000696E67204572726F720000004D696E20BB
:10495000636C6970706564206572726F720000002C
:10496000556E646566696E6564206572726F72006B
:10497000496E76616C696420706172616D65746501
:104980007273206572726F72000000004E6F7420A7
:10499000737570706F72746564206572726F7200E7
:1049A000496E74657272757074206E6F7420436CFA
:1049B000656172656400000052616E676520657212
:1049C000726F720054696D65206F75742065727224
:1049D0006F7200004D6F6465206E6F742073757088
:1049E000706F72746564206572726F7200000000EF
:1049F00042756666657220746F6F20736D616C6CB2
:104A0000000000004750494F206E6F7420657869A0
:104A10007374696E670000004750494F2066756ED9
:104A20006374206E6F7420737570706F7274656438
:104A300000000000436F6E74726F6C20496E7465E5
:104A40007266616365204572726F7200496E7661AD
:104A50006C696420436F6D6D616E64204572726F86
:104A6000720000004469766973696F6E2062792074
:104A70007A65726F204572726F72000052656665CA
:104A800072656E6365205370616420496E6974209D
:104A90004572726F720000004E6F7420696D706C09
:104AA000656D656E746564206572726F72000000DA
:104AB000556E6B6E6F776E204572726F7220436F0A
:104AC000646500002DE9FF4F8FB007469946DDE988
:104AD0001CA6002500200E900D900C900B900A90C3
:104AE000099008900024029001901098C0F3C3042C
:104AF0005CB1052C09D0072C07D00C2C05D00D2C4F
:104B000003D00E2C01D00F2C02D14FF0010B01E08D
:104B10004FF0000B2DB90BAA00213846FEF782F9A1
:104B200005469DF82C00D0B1CDB901AB07AA51467E
:104B30003846FFF70DF9054615B90198AAF80A009D
:104B40006DB906AA00213846FEF77AF9054606989F
:104B500028B1DDE90610884201D901200E902DB957
:104B600009AA02213846FEF75DF905469DF82400A2
:104B700050B34DBB05AA02213846FEF761F9054640
:104B80002DB90122FF213846FEF7C5FF05462DB994
:104B900002AAB6213846FEF7CEFB05462DB9002203
:104BA000FF213846FEF7B7FF0546BDF80800400272
:104BB00000900098C7F84801059828B10599009819
:104BC000884201D901200D902DB908AA0321384649
:104BD000FEF728F905469DF82000C8B1C5B9B9F11E
:104BE000000F02D10020039004E011980002B0FBF6
:104BF000F9F0039004AA03213846FEF721F905468F
:104C0000049828B1DDE90301884201D201200C900B
:104C100035BBBBF1010F02D1FF20307028E0012C21
:104C200003D0022C01D0032C02D1052030701FE0EC
:104C3000062C01D0092C02D10420307018E0082C79
:104C400004D00A2C02D00D98012802D10320307024
:104C50000EE0042C02D00C98012802D10220307002
:104C600006E00E98012801D1307001E0002030707C
:104C7000307810B90020AAF80A000AAA01213846A3
:104C8000FEF7D0F8054675BB9DF82C0010B10E98C4
:104C9000012802D14FF0010801E04FF0000887F829
:104CA0002E80042C02D09DF8280010B94FF0010886
:104CB00001E04FF0000887F82F809DF8240010B124
:104CC0000D98012802D14FF0010801E04FF00008D3
:104CD00087F830809DF8200010B10C98012803D18E
:104CE0004FF0010802E003E04FF0000887F8318040
:104CF000284613B0BDE8F08FF8B507460D461446B8
:104D00000026E86820606A462946384600F008F820
:104D100006461EB920680099084420603046F8BD58
:104D20002DE9F84305460E46144600270020206072
:104D300069462846FEF74BFA07465FB99DF8000022
:104D400040B1D5F82080B08A00FB08F909F1800055
:104D5000000A20603846BDE8F883F8B507460C46DF
:104D60001546002614B1012C0ED106E06A465021EA
:104D70003846FEF7B4FA064609E06A46702138461E
:104D8000FEF7ADFA064602E06FF0030600BF00BF73
:104D900026B99DF80000FFF79EF928703046F8BD4F
:104DA000024600204FF0804100E089089142FCD883
:104DB00009E04318934204D84318D21A01EB50007B
:104DC00000E0400889080029F3D170472DE9FF5F12
:104DD00006460D4600200390002463E02F5D641C0E
:104DE000FF2F44D1285D0290641C029830B1012845
:104DF00011D002281CD0032834D126E015F80480F5
:104E0000641C15F80490641C09EB08201FFA80FA52
:104E1000A6F834A12AE015F80480641C15F8049063
:104E2000641C09EB08201FFA80FAA6F836A11DE0E1
:104E300015F80480641C15F80490641C09EB082024
:104E40001FFA80FAA6F838A110E015F80480641C57
:104E500015F80490641C09EB08201FFA80FAA6F8E4
:104E60003CA103E06FF00300039000BF1AE0042FA1
:104E700015DC285D0190641C4FF0000B05E0285DF7
:104E80000DF80B00641C0BF1010BBB45F7DB3B4637
:104E90006A4630460199FEF76AFE039002E06FF021
:104EA00003000390285D10B10398002896D0039862
:104EB00004B0BDE8F09FF8B506460024002000903D
:104EC000002500BF69463046FEF715F8044604B1D8
:104ED0000FE09DF80000012800D10AE06D1CB5F537
:104EE000FA6F02D36FF0060403E03046FEF7EAF9EA
:104EF000E8E700BF2046F8BD2DE9F04F85B0054634
:104F00000E4690461F460024A146A246A3460FB176
:104F100095F83091022201212846FEF7FCFD044657
:104F200024B90021284600F094F904468CB9B8F160
:104F3000010F0ED10120002104AA5B46CDE9002615
:104F4000CDE9021052460146284600F035FA0446E3
:104F500001E0002030704CB947B14A460121284693
:104F6000FEF7D9FD04460CB985F83091204605B00E
:104F7000BDE8F08F2DE9F0470546894616461F46E5
:104F80000024A04695F8308100233A464946284639
:104F900000F07FF9044634B900233A4631462846EA
:104FA000FFF7AAFF044644B9424601212846FEF70E
:104FB000B2FD04460CB985F830812046BDE8F08783
:104FC0002DE9F74F94B0044600254FF0B40B0320B1
:104FD00011902C201090002600200F900E904FF47E
:104FE0002067804681464FF0060A0C900B900A908D
:104FF0000990089007900690B4F83C7100BF06E055
:10500000002104F5927000F8091009F10109D14559
:10501000F6D30122FF212046FEF77DFD05462DB97E
:1050200000224F212046FEF776FD05462DB92C22A1
:105030004E212046FEF76FFD05462DB90022FF21C7
:105040002046FEF768FD05462DB95A46B621204692
:10505000FEF761FD05462DB9002280212046FEF7AE
:105060005AFD054635B9002308AA09A92046FFF7CD
:1050700081FF05468DB900260F96B0460FA91198FD
:10508000CDE900ABCDE902600491414604F592738D
:105090009A1D204601F024F90546002D44D10F9EAB
:1050A0000DA9204601F038FB0546002D3AD1BDF888
:1050B0003400B84236DDA94606E0002104F59270BE
:1050C00000F8091009F10109D145F6D300E0761C7A
:1050D0000BEB060001F054FA10B910988642F6D393
:1050E0004FF001080FA91198CDE900ABCDE902609E
:1050F0000491414604F592739A1D204601F0F0F8A0
:1051000005468DB90F9E0DA9204601F005FB054609
:1051100055B9BDF83400B84206DD0120069011985B
:10512000079001E04FF00008002D7CD1BDF834005D
:10513000B84278DA08F0FF000690119807905246BE
:1051400004F5927112A8FAF7FDFFBDF83410C81BE0
:10515000002801DB014600E041420B9100200A904B
:105160005DE00EAB3246514604F5957001F036F91C
:105170000E98401C10B96FF0310553E00E990BEBFF
:10518000010001F0FDF9404502D001200A9049E0FC
:105190000798401C07900E9E3246514604F59270C7
:1051A00001F0F4F8054635B9761C04F592712046F5
:1051B00001F028FB054605B134E00DA9204601F0B9
:1051C000ABFA054605B12DE0BDF83410C81B002828
:1051D00001DB014600E041420C91BDF83400B842C9
:1051E00015DDDDE90B1088420DD912A9204601F02A
:1051F00009FB0546524612A904F59270FAF7A2FF80
:105200000798401E079001200A9008E00BE00C98D8
:105210000B90524604F5927112A8FAF793FF0A9880
:1052200000289ED000BF85B9159907980860169987
:1052300006980870012184F815111598017884F8F2
:1052400013111698017884F81411284617B0BDE898
:10525000F08F70B506460D46002434B945F00102C2
:1052600000213046FEF757FC04461CB93046FFF7D4
:1052700022FE044624B900213046FDF715FC044601
:105280002CB9002211463046FEF745FC0446204664
:1052900070BD2DE9F04F85B005460E4690461F467D
:1052A0000024A146A246A346002004900FB195F821
:1052B0003091012211462846FEF72DFC044624B900
:1052C00040212846FFF7C5FF044684B9B8F1010F15
:1052D0000DD10020012104AA5B46CDE90062CDE991
:1052E00002105246284600F067F8044601E000200C
:1052F00030704CB947B14A4601212846FEF70BFCF5
:1053000004460CB985F83091204605B0BDE8F08F11
:10531000F0B504460D4616460027012332462946BD
:10532000204600F020F807463846F0BDF8B505469F
:105330000E461446002704236A463146284600F0EC
:1053400012F807469DF8000000069DF8011000EBDA
:1053500001409DF8021000EB01209DF80310084465
:1053600020603846F8BD2DE9F04106460F46144648
:105370001D464FF0000823462A463946304600F0C5
:10538000FDFB08B14FF001084046BDE8F081F8B5DB
:1053900005460E461446002702236A463146284633
:1053A000FFF7E1FF07469DF801009DF8001000EBB4
:1053B000012020803846F8BD2DE9F84F80460D4683
:1053C00091469A46DDE90BB60D9F0024002000901F
:1053D0000122FF214046FEF79EFB044300221146B6
:1053E0004046FEF798FB04430022FF214046FEF7AB
:1053F00092FB044375B12EB1CB2140460A9AFDF7CA
:105400006EFF0443AFB16A46EE214046FDF767FFE9
:1054100004430EE02EB14A46CB214046FEF77BFB0B
:10542000044337B153468022EE214046FEF74AFB43
:1054300004430122FF214046FEF76DFB0443012295
:1054400000214046FEF767FB04430022FF2140464F
:10545000FEF761FB04439DF8000000F0EF008BF8BD
:1054600000002046BDE8F88F2DE9F04F89B0804656
:105470000F4600264FF4FA60069040F276794FF41A
:10548000707A4FF4257B40F24E20059040F2B22016
:1054900004905846039040F226200290002001908C
:1054A00044F62060009000250098874204D22E1F09
:1054B000304609B0BDE8F08F09EB0A003C1A07A995
:1054C0004046FDF71BFE0646002E3BD19DF81C0012
:1054D00030B99DF81D0018B99DF81E00002831D084
:1054E00006AA0221404600F0B9FF06460EB130463A
:1054F000DFE79DF81C0040B1DDE905010D18A5426C
:1055000001D2641B01E06FF003060EB13046D0E714
:105510009DF81E0050B10699049808444500A54224
:1055200001D2641B0EE06FF003060BE09DF81D0036
:1055300040B1069800EB0B05A54201D2641B01E0C7
:105540006FF003060EB13046B3E79DF81F0070B14F
:1055500001AA0321404600F081FF06460199039805
:105560000D18A54201D2641B01E06FF0030666B975
:105570009DF8200048B10298241A22460421404692
:1055800001F04CF90646C8F81470304691E7000067
:105590002DE9F04780460C464FF000090F4E104FA2
:1055A0004FF4805AB44201DD344602E0BC4200DAD6
:1055B0003C46002C03DBFA2094FBF0F504E0FA20D3
:1055C00094FBF0F000EB0A05AAB228214046FEF752
:1055D000B8FA81464846BDE8F087000018CC0700BD
:1055E0000030F8FFF0B587B006460C461546002798
:1055F000012005AA06ABCDE90120009303902B46BC
:10560000224600213046FFF7D7FE0746384607B04E
:10561000F0BD2DE9F04F87B00446894616460025B7
:1056200000274FF0B40A4FF0060B2C200690012201
:10563000FF212046FEF76FFA05462DB900224F21C3
:105640002046FEF768FA05462DB92C224E21204649
:10565000FEF761FA05462DB90022FF212046FEF72C
:105660005AFA05462DB95246B6212046FEF753FA9E
:1056700005464FF0000806E0002104F5927000F89E
:10568000081008F10108D845F6D34EB100E07F1CA0
:105690000AEB070000F074FF10B906988742F6D3B2
:1056A00005A804F592739A1D3146CDE900BACDE9FB
:1056B00002790490204600F013FE054635B9012119
:1056C00084F8151184F8139184F81461284607B002
:1056D000BDE8F08F2DE9F04F87B007460E4615461E
:1056E00000244FF00C094FF0120A4FF0080B0E2067
:1056F000059000200190284605EBD0714910A5EBDC
:10570000410109B1241F10E036B94D4501DB554573
:1057100002DD6FF0030408E0012E06D15D4502DBD7
:105720000598854201DD6FF003041CB1204607B0E7
:10573000BDE8F08FDEBB0C2D0CD118225721384666
:10574000FEF7E9F90446082256213846FEF7E3F948
:105750000446E2E00E2D0CD1302257213846FEF7E8
:10576000DAF90446082256213846FEF7D4F90446F1
:10577000D3E0102D0CD1402257213846FEF7CBF94B
:105780000446082256213846FEF7C5F90446C4E00F
:10579000122DDED1502257213846FEF7BCF90446BF
:1057A000082256213846FEF7B6F90446B5E0FFE771
:1057B000012ECED1082D2AD1102248213846FEF7DD
:1057C000AAF90446082247213846FEF7A4F9044600
:1057D000022232213846FEF79EF904430C22302182
:1057E0003846FEF798F904430122FF213846FEF7B8
:1057F00092F90443302211463846FEF78CF90443EF
:105800000022FF213846FEF786F9044385E00A2D81
:105810002AD1282248213846FEF77DF9044608227D
:1058200047213846FEF777F90446032232213846ED
:10583000FEF771F90443092230213846FEF76BF96F
:1058400004430122FF213846FEF765F90443202274
:1058500030213846FEF75FF904430022FF21384625
:10586000FEF759F9044358E00C2D2AD1382248217B
:105870003846FEF750F90446082247213846FEF71D
:105880004AF90446032232213846FEF744F904431C
:10589000082230213846FEF73EF904430122FF2159
:1058A0003846FEF738F90443202230213846FEF707
:1058B00032F904430022FF213846FEF72CF9044355
:1058C0002BE00E2D29D1482211463846FEF723F948
:1058D0000446082247213846FEF71DF904460322F4
:1058E00032213846FEF717F90443072230213846A3
:1058F000FEF711F904430122FF213846FEF70BF9A8
:105900000443202230213846FEF705F904430022E3
:10591000FF213846FEF7FFF80443002C47D1284604
:10592000FEF71CFC069016B1012E3CD124E003AA20
:105930000321384600F092FD04462CB902AA022148
:10594000384600F08BFD04462CB950213846069AA3
:10595000FEF7E1F804462CB903213846039A00F01B
:105960005DFF04462CB902213846029A00F056FF2A
:105970000446E820C55519E004AA0421384600F081
:105980006DFD04462CB970213846069AFEF7C3F81F
:1059900004462CB904213846049A00F03FFF04461F
:1059A000E020C55502E06FF0030400BF00BF34B92A
:1059B000D7F8148041463846FDF768FE044634B9EE
:1059C0000123002201A93846FFF796FA0446204633
:1059D000ADE677B504460D460026012302AA294606
:1059E000204600F003F8064630467EBD2DE9F04122
:1059F00006460F4614461D464FF0000823462A4629
:105A00003946304600F0A6F908B14FF0010840468B
:105A1000BDE8F081F8B506460C4615460027281269
:105A20008DF80000E8B28DF80100204604EBD0713B
:105A30004910A4EB410101290ED101236A462146F8
:105A40003046FFF7D3FF074601236A46214630461A
:105A5000FFF7CCFF074606E002236A4621463046A0
:105A6000FFF7C4FF07463846F8BD000000B5002028
:105A70000F4908600F48006820F470000D49086065
:105A80000846006840F48010086000200A49C1F808
:105A90009401022000F01DFC01200549086002204D
:105AA00000F017FC00200449C1F8900100BD00007F
:105AB00090812142000C01400080214200B500206D
:105AC0000F4908600F48006820F470000D49086015
:105AD0000846006840F48010086001200A49C1F8B7
