:020000040800F2
:10000000B82E002001010008691A00081F15000819
:10001000111A0008B9040008054F0008000000008C
:100020000000000000000000000000001D4B000860
:100030005106000800000000F3020008612B0008D0
:100040001B0100081B0100081B0100081B01000820
:100050001B0100081B0100081B01000853060008D3
:100060001B0100081B010008590600081B010008BD
:100070001B0100081B0100081B0100081B010008F0
:100080001B0100081B0100081B0100081B010008E0
:100090001B0100081B0100081B0100081B010008D0
:1000A0001B0100081B0100081B0100081B010008C0
:1000B0001B0100081B0100081B0100081B010008B0
:1000C0001B0100081B0100081B0100081B010008A0
:1000D0001B0100081B0100081B0100081B01000890
:1000E0001B0100081B0100081B010008DFF80CD0F1
:1000F00000F0B0F80048004781820008B82E0020C8
:100100000648804706480047FEE7FEE7FEE7FEE7B1
:10011000FEE7FEE7FEE7FEE7FEE7FEE7854B0008A9
:10012000ED00000872B6704762B67047EFF31080BA
:1001300072B6704780F31088704730BF704720BF99
:100140007047B0FA80F0704790FAA0F0B0FA80F0F3
:10015000704790FAA0F070472DE9F05F0546002047
:1001600092469B4688460646814640241BE0284628
:1001700041464746224600F020F853465A46C01AE8
:10018000914110D311461846224600F053F82D1A1B
:1001900067EB01084F4622460120002100F04AF893
:1001A00017EB00094E41201EA4F10104DFDC484694
:1001B00031462A464346BDE8F09F202A04DB203A18
:1001C00021FA02F00021704721FA02F3D040C2F177
:1001D0002002914008431946704740EA01039B07FB
:1001E00003D009E008C9121F08C0042AFAD203E0AC
:1001F00011F8013B00F8013B521EF9D27047D2B210
:1002000001E000F8012B491EFBD270470022F6E7FF
:1002100010B513460A4604461946FFF7F0FF20467C
:1002200010BD034611F8012B00F8012B002AF9D16B
:1002300018467047202A04DB203A00FA02F1002019
:1002400070479140C2F1200320FA03F31943904014
:1002500070470000064C074D06E0E06840F00103DF
:1002600094E8070098471034AC42F6D3FFF742FFFA
:100270006C8A00088C8A000870B58C1810F8015B35
:1002800015F0070301D110F8013B2A1106D110F82F
:10029000012B03E010F8016B01F8016B5B1EF9D133
:1002A0002B0705D40023521E0DD401F8013BFAE7B9
:1002B00010F8013BCB1A921C03E013F8015B01F824
:1002C000015B521EF9D5A142D8D3002070BD0000B9
:1002D00018484FF0FF010170002080F3098816488C
:1002E000016881F3088815484FF08051016062B6BB
:1002F000FEE772B6EFF3098028B1203880E8F00FEE
:100300000F490968086000B50E4880475DF804EBA6
:100310000D480E490A78027009480D490A680260C2
:10032000106890E8F00F203080F309884EF0040E3A
:1003300062B6704722ED00E01C04002004ED00E0EE
:100340001404002035280008A6030020A70300207D
:100350001804002010B5FF2415E0164800F0EDFA4F
:10036000002826D014A007F0ADF914A007F0AAF9D0
:1003700014A007F0A7F9C4F1FF0113A007F0A2F938
:100380001EA007F09FF9641EE4B2E6D21CA007F09D
:1003900099F90AA007F096F90AA007F093F919A0B5
:1003A00007F090F915A007F08DF9BDE8104000F0B6
:1003B0005DB910BD000900205B572F0069776467A5
:1003C000000000005D2000004170705F4F535F49E6
:1003D000646C655461736B486F6F6B203A204957AA
:1003E00044472072656672657368206661696C6552
:1003F000642074696D652025642021000D0A0000C9
:100400005B452F004170705F4F535F49646C6554CA
:1004100061736B486F6F6B203A20495744472072D5
:10042000656672657368206572726F7221000000E4
:1004300010B5FFF77BFE044600F0AAF80E490D4800
:1004400008600F490D4808600F490E4808601049C0
:100450000E48086010490F48086011490F480860AD
:1004600011491048086000F0A3F82046BDE810408C
:10047000FFF760BEAF04000850030020B10400087D
:1004800054030020B304000858030020550300085B
:100490005C030020AD04000860030020B5040008E0
:1004A00064030020B7040008680300207047704709
:1004B0007047704770477047FEE70000054910B568
:1004C0000020486000F0A6F800F006F8BDE81040F3
:1004D00000F086B8300300202DE9F041104D0024D3
:1004E00027462C806C80AC60EC606C61AC612C6148
:1004F000FFF71CFE804600266C6100F049F800F012
:1005000057F86869761C36040744360CF4D0C5E900
:1005100004744046AC61BDE8F041FFF70BBE00003B
:100520003003002003490969884201D9401A704705
:10053000002070473003002010B5FFF7F7FD044995
:100540004C69FFF7F7FD2046BDE81040FFF7EABF12
:100550003003002010B5FFF7EFFF0446FFF7E6FD7C
:10056000034A00215161FFF7E5FD204610BD000060
:100570003003002010B5FFF7D9FD04498C69FFF75F
:10058000D9FD2046BDE81040FFF7CCBF3003002066
:1005900010B5064C2088401C2080608810B900F0FF
:1005A00051F8A0606088401C608010BD30030020BE
:1005B00010B50A4C6088401E0004000C60800CD10D
:1005C00000F040F8E060A168401A6169814200D201
:1005D0006061A169814200D2A06110BD300300209A
:1005E00010B5FFF7A3FD0446FFF7D2FF1021054821
:1005F00001F00FFAFFF7DCFF2046BDE81040FFF7DF
:1006000099BD0000A4100020014948607047000017
:100610003003002010B500F0FBFA08490A6842F0E8
:1006200080720A60064900224A600A6842F00102AC
:100630000A60BDE81040FFF7E7BF0000FCED00E0F6
:10064000001000E00148406870470000001000E022
:100650007047022000F03CB810B501F0EDFA102010
:1006600000F036F8BDE8104001F0F6BA10B508A069
:1006700007F028F807A007F025F808A007F022F8EF
:1006800007A007F01FF8BDE8104009A007F01AB84E
:100690005B452F006D61696E000000005D20000069
:1006A0004572726F725F48616E646C657221000002
:1006B0000D0A00000121012804D0102801D10248B0
:1006C000017070470148FBE7000000202300002074
:1006D000044910B50A68024202D00860FFF7EAFF39
:1006E00010BD0000140401402DE9F84FDFF8B89167
:1006F000002409F1040A0AF1040B23460F270BF129
:10070000040EC9E00125A5402A40AA427DD1674ECA
:10071000D1F804C0ACEB0608B44532D014DCBCF10F
:10072000030F3AD009DCBCF1000F2AD0BCF1010F55
:100730001CD0BCF1020F31D11DE0BCF1110F17D05C
:10074000BCF1120F2AD119E0B8F5881F19D006DCC8
:10075000B8F5803F15D0B8F5801F1FD111E0B8F56E
:10076000001F0ED0B8F5041F18D10AE0CB6815E0C1
:10077000CB681B1D12E0CB6808330FE0CB680C334D
:100780000CE08B682BB1012B4FF0080303D04561BF
:1007900004E0042302E0056100E00023FF2A01D801
:1007A000064601E000F104064FEA840501D9A5F1EF
:1007B0002005D6F8008007FA05FC28EA0C0803FAA1
:1007C00005F548EA0508C6F800804D68ED0062D5D9
:1007D000374DAE6946F00106AE61AD6924F00306FF
:1007E00005F001050095334D06EB050CDCF80850CB
:1007F000A607360F07FA06F825EA0805DFF8B880DD
:10080000404503D14FF0000817E044E0DFF8AC802A
:10081000404502D14FF001080FE0DFF8A4804045C9
:1008200002D14FF0020808E0DFF89880404502D17D
:100830004FF0030801E04FF0040808FA06F848EA10
:100840000508CCF808804D68D9F80060ED034D46E6
:1008500001D5164300E096432E604D68DAF800603B
:10086000AD03554601D5164300E096432E604D6812
:10087000DBF80060ED025D4601D5164300E09643CB
:100880002E604D68DEF80060AD02754601D5164356
:1008900000E096432E60641C0D682A46E5407FF414
:1008A00031AFBDE8F88F00000004014000001110D6
:1008B000001002400000014000080140000C01400F
:1008C00000100140001401408068084000D0012061
:1008D00070470AB1016170470904FBE7014880686D
:1008E000704700002003002070B5040011D021687B
:1008F0004CF6CC400860216845F255500860D4E9B8
:10090000000141602168A0688860FFF7E7FF0546A5
:1009100009E0012070BD00BFFFF7E0FF401B302859
:1009200001D9032070BD2068C0680028F4D1216877
:100930004AF6AA200860002070BD00684AF6AA2185
:100940000160002070470000074810B5016841F0C1
:1009500010010160032000F079F8002000F006F893
:1009600000F024F8002010BD0020024070B50D4DAD
:1009700004464FF47A712878B1FBF0F00A4909680F
:10098000B1FBF0F000F03CFB48B9102C07D200227C
:100990002146501E00F03AF800206C6070BD012026
:1009A00070BD0000200300202C0300200E4808B575
:1009B000816941F001018161816901F001010091CA
:1009C000C16941F08051C161C06900F08050009060
:1009D000052000F03BF80548416821F0E06141F056
:1009E0000071416008BD000000100240000001409D
:1009F000002809DB00F01F0201219140400980001E
:100A000000F1E020C0F8001170470000F0B40E4B78
:100A10001B680C46C3F30223C3F10705042D00D95C
:100A20000425191D072901D2002300E0DB1E012641
:100A300006FA05F1491E214099409E40761E164057
:100A40003143F0BC06F04EBE0CED00E0064900F06C
:100A5000070208684FF6FF03184040EA0220034AE5
:100A600010430860704700000CED00E00000FA053C
:100A700030B58FB0FFF756FB28216846FFF7C6FB5D
:100A800014210AA8FFF7C2FB00240B20CDE90004C3
:100A9000012002250294CDE9060504904FF4601070
:100AA000CDE90840684600F01BF908B1FFF7DEFD0C
:100AB0000F20CDE90A054FF48060CDE90C400221FA
:100AC0000AA80E9400F008F808B1FFF7CFFDFFF771
:100AD0002BFB0FB030BD00002DE9F0470F4605009D
:100AE00061D0434E306800F00700B84209D2306848
:100AF00020F0070038433060306800F00700B8424B
:100B000051D128683B4C810712D5400703D5606856
:100B100040F4E06060602878000703D5606840F426
:100B2000605060606068A96820F0F0000843606071
:100B30002878C00728D06868012810D021680228CA
:100B400010D0890700292EDA616821F003010143E2
:100B50006160FFF7C3FE804641F288390DE02168ED
:100B60008903EFE78901EDE7FFF7B8FEA0EB080185
:100B7000494502D90320BDE8F0876068696800F044
:100B80000C00B0EB810FEFD1306800F00700B842E5
:100B90000BD9306820F0070038433060306800F02F
:100BA0000700B84201D00120E5E72878400705D5C5
:100BB0006068E96820F4E060084360602878000716
:100BC00006D56068296920F4605040EAC100606081
:100BD00000F044F86168084AC1F30311515CC84051
:100BE0000649086006480068FFF7C0FE0020C2E71B
:100BF0000020024000100240E08900082C03002081
:100C00002403002001490120C864704700004242CB
:100C100001480068704700002C0300200448054983
:100C200000684968044AC1F30221515CC84070471A
:100C30002C03002000100240F089000804480549F8
:100C400000684968044AC1F3C221515CC84070473A
:100C50002C03002000100240F089000812A185B08A
:100C60000FC98DE80F0014A0144A00680490516861
:100C7000134801F00C03042B10D0082B0ED1C1F344
:100C80008343C9031DF803000AD5516804AAC1F3C0
:100C90004041515C0A4A5043B0FBF1F005B0704747
:100CA00008494843FAE7000002030405060708095B
:100CB0000A0B0C0D0E0F1010010200000010024074
:100CC00000127A0000093D0010B5044CA06800062F
:100CD00003D5FFF7CDFE8020A07210BD00100240AA
:100CE0002DE9F84F040070D02078C04DC00749D0DE
:100CF0006868C0F38100012807D06868C0F38100EC
:100D0000022809D16868C00306D52868800339D550
:100D100060680028E7D035E06068B0F5803F0BD010
:100D200010B1B0F5A02F11D0286820F480302860D1
:100D3000286820F4802002E0286840F48030286091
:100D4000606890B1FFF7CAFD06460AE0286840F4E3
:100D500080202860F0E700BFFFF7C0FD801B6428FB
:100D600073D828688003F7D50CE0FFF7B7FD064677
:100D700005E000BFFFF7B2FD801B6428F0D82868AB
:100D80008003F7D420789A4E80074FF001094FF086
:100D9000000839D5686810F00C0F07D06868C0F3F8
:100DA0008100022809D16868C00306D4286880073A
:100DB00014D52069012808D110E02069B0B1C6F827
:100DC0000090FFF78BFD074605E00AE1FFF786FD7F
:100DD000C01B0228C4D828688007F7D52868616935
:100DE00020F0F80040EAC10028600DE0C6F800805D
:100DF000FFF774FD074604E0FFF770FDC01B0228F3
:100E000023D828688007F7D4207800072CD57948A4
:100E1000A169D9B1C0F80090FFF760FD074604E072
:100E2000FFF75CFDC01B02280FD8686A8007F7D562
:100E300071484FF4FA510068B0FBF1F0009000BF28
:100E40000098411E0091FAD20EE080E0C0F80080C8
:100E5000FFF744FD074604E0FFF740FDC01B0228F2
:100E600075D8686A8007F7D42078400760D5E869AC
:100E70000027C00008D4E86940F08050E861E869C4
:100E8000012700F0805000905C480168C90513D428
:100E90000168834641F480710160FFF71FFD8246BF
:100EA00006E000BFFFF71AFDA0EB0A0064284ED849
:100EB000DBF80000C005F5D5E06801280AD008B1CC
:100EC000052813D0286A20F001002862286A20F043
:100ED000040002E0286A40F001002862E06841F264
:100EE000883B98B1FFF7FAFC82460BE0286A40F095
:100EF00004002862EEE700BFFFF7F0FCA0EB0A0158
:100F000059455AD8286A8007F6D50CE0FFF7E6FC69
:100F1000824605E0FFF7E2FCA0EB0A0159454CD8F8
:100F2000286A8007F6D41FB1E86920F08050E86194
:100F3000E06988B36968C1F38101022944D00228BD
:100F4000C6F8608004D0FFF7C9FC044638E034E0FE
:100F5000FFF7C4FC074604E0FFF7C0FCC01B0228F3
:100F60002BD828688001F7D4206AB0F5803F05D1DE
:100F70006868A16820F4003008436860D4E908017B
:100F80000843696821F4741108436860C6F86090EA
:100F9000FFF7A4FC044606E025E000BFFFF79EFC37
:100FA000001B022809D828688001F7D51BE000BF84
:100FB000FFF794FC001B022802D90320BDE8F88F3C
:100FC00028688001F4D40EE00128F7D06868226A0E
:100FD00000F48031914204D1616A00F470108842BB
:100FE00001D00120EAE70020E8E7000000100240FD
:100FF00000004242800442422C0300200070004066
:1010000010B5401EB0F1807F01D3012010BD4FF01C
:10101000E02460610F21601706F064FB0020A061EE
:1010200007202061002010BD10B590F83C20012A57
:1010300022D0012280F83C20CA688C6822F44072D9
:1010400022434C6822F4806222430C6822F400623E
:1010500022430C6922F4805222434C6922F400524C
:101060002243C969002322F480420A4301684A648A
:1010700080F83C30002010BD022010BD70B590F803
:101080003C20012A19D0012400F83C4F0222427072
:1010900050F83C3C5A689D6822F070060A6849681E
:1010A000324325F0800529435A6050F83C2C91606A
:1010B000447000210170084670BD022070BD10B55B
:1010C000040003D094F83D0010B107E0012010BDEA
:1010D000002084F83C00204600F00CF8022084F840
:1010E0003D00211D206803F071FD012084F83D00C2
:1010F000002010BD08B50C4A01680C48914207D188
:10110000816941F400618161806900F4006009E057
:10111000074A914207D1C16941F00401C161C06928
:1011200000F00400009008BD002C014000100240B7
:101130000008004070B5044690F83C00012817D024
:10114000012584F83C50022084F83D002068826824
:1011500022F0770222F47F4282600868502830D063
:101160000DDC20284DD005DC98B310283BD148E099
:10117000022070BD302844D0402834D139E06028A6
:1011800028D0702806D0B0F5805F2CD0B0F5005F75
:1011900029D10AE0CB68D1E90121206803F04CFD98
:1011A0002068816841F0770109E0CB68D1E901212D
:1011B000206803F041FD2068816841F4804181602E
:1011C00011E0CA684968206803F0EAFD50212068F0
:1011D00007E016E0CA684968206803F0F2FD602164
:1011E000206803F033FD84F83D50002084F83C0073
:1011F00070BDCA684968206803F0D2FD40212068AC
:10120000EFE7226801461046EBE7000000B585B025
:1012100000210091019102910391164B026816483A
:1012200002219A420FD1826942F0040282618069F0
:10123000039100F0040004904FF47060CDE90001C8
:1012400069460E4811E00E4B9A4210D1826942F075
:10125000080282618069039100F0080004904FF455
:101260007070CDE9000169460648FFF73DFA05B008
:1012700000BD0000002C01400010024000080140A9
:1012800000080040000C014070B5044690F83C0096
:101290000D4601280DD0012684F83C60022084F818
:1012A0003D0042B1042A18D0082A2AD00C2A4DD178
:1012B00039E0022070BD206803F0D0FC206881690D
:1012C00041F0080181612068816921F00401816198
:1012D000206881692A69114311E0206803F0E6FC67
:1012E0002068816941F4006181612068816921F48D
:1012F00080618161206881692A6941EA02218161F6
:1013000024E0206803F0FEFC2068C16941F0080178
:10131000C1612068C16921F00401C1612068C1690F
:101320002A69114311E0206803F018FD2068C169A3
:1013300041F40061C1612068C16921F48061C1612B
:101340002068C1692A6941EA0221C16184F83D60CF
:10135000002084F83C0070BD10B5040003D094F860
:101360003D0010B107E0012010BD002084F83C00D2
:10137000204600F00CF8022084F83D00211D206872
:1013800003F024FC012084F83D00002010BD7047CC
:1013900070B5040004D094F83900002510B106E0BF
:1013A000012070BD84F83850204600F023F8242036
:1013B00084F839002068C16821F40051C1602046DA
:1013C00003F012FD2068016921F490410161206859
:1013D000416921F02A0141612068C16841F400514E
:1013E000C160E563202084F8390084F83A000020C9
:1013F00070BD000030B585B00024009401940294C3
:10140000039400681449884223D11448C16941F407
:101410000031C161C16901F400310491816941F079
:101420000401816180690E4D00F0040004900420E5
:101430000090022001900320039069462846FFF7A0
:1014400053F90820CDE90004694628460294FFF7C5
:101450004BF905B030BD00000044004000100240D0
:10146000000801402DE9F843044690F839001F4672
:1014700016460D46202850D1A5B19EB194F83800EB
:1014800001284AD0012084F838004FF00008C4F841
:101490003C80212084F83900FFF720FAA684814699
:1014A000E68426E00120BDE8F883E08C401EE0845D
:1014B000A0684B46B0F5805F4FF000024FF080010E
:1014C0002046009703D003F0EBFCE8B90DE003F0F1
:1014D000E7FCC8B928882168C0F308004860206983
:1014E00008B16D1C05E0AD1C03E0216815F8010B87
:1014F0004860E08C0028D8D14B460022402120468D
:10150000009703F0CDFC08B10320CCE7202084F83D
:10151000390084F838800020C5E70220C3E7FEE7E1
:101520002DE9F0410F4604460025C1680120884797
:101530000026216800208847216902208847216809
:10154000012088476806050EA068804708B16D1C19
:10155000EDB2216901208847761CF6B2082EE8D347
:1015600021684FF00000AFB18847E168002088474C
:10157000616800208847216902208847216801208E
:10158000884721690220884721680020884728462B
:10159000BDE8F0818847E168002088470120616844
:1015A000E8E770B50E460446C16800208847216808
:1015B0000020884700256168F00988477006060EFC
:1015C000216902208847216801208847216902207B
:1015D00088472168002088472169022088476D1CC0
:1015E000EDB2082DE7D370BD10B50446C1680020E8
:1015F0008847216800208847616800208847216962
:1016000004208847216801208847616801208847B5
:101610002169BDE8104004200847000070B50E465F
:1016200004460025C1680120884761680120884779
:10163000216901208847216801208847216901200C
:10164000884716E06D1CB54213D92046FFF7CCFF42
:101650000CA006F037F80CA006F034F80BA006F04A
:1016600031F80BA006F02EF80DA006F02BF80120A3
:1016700070BDA06880470028E4D121688847002019
:1016800070BD00005B452F00693263005D200000E3
:10169000493243206D6973732041434B21000000A0
:1016A0000D0A00002DE9F04786B000244948009457
:1016B000019402940394816941F010018161816970
:1016C00001F010010491816941F02001816181697B
:1016D00001F020010491816941F004018161816977
:1016E00001F004010491816941F008018161806980
:1016F000394F00F008004FF4C045049000222946FD
:101700003846FFF7E6F8DFF8D49000220221484679
:10171000FFF7DFF8DFF8C8A04CF621480022414669
:101720005046FFF7D6F81120CDE900500225694652
:101730003846CDE90245FEF7D7FFA8030326CDE9D9
:10174000000669463846FEF7CFFF49F2F100CDE9C1
:10175000000669464846FEF7C7FF0127CDE9005756
:1017600069464846CDE90245FEF7BEFFCDE902468F
:10177000CDE9008769465046FEF7B6FF1948009547
:10178000CDE9010469465046FEF7AEFF43F20C0076
:10179000CDE9000669465046FEF7A6FF10200090EE
:1017A0001148CDE9010769465046FEF79DFF00222A
:1017B00001210720FFF72AF90720FFF719F9002276
:1017C00002210A20FFF722F90A20FFF711F906B0DB
:1017D000BDE8F08700100240001001400008014001
:1017E000000C01400000111000002110094810B544
:1017F000074901600421416040F253718160FFF7A5
:1018000073F8002803D0BDE81040FEF72FBF10BDCD
:10181000003000400009002010B596B000240F945D
:1018200010941194129413941C2168461494FEF79A
:10183000EDFC202107A8FEF7E9FC3448324901609D
:101840003F21C0E901146321C0E903148021C0E9EC
:101850000541FFF734FC08B1FEF708FF4FF4805054
:101860000F900FA92948FFF765FC08B1FEF7FEFEAF
:101870002648FFF771FD08B1FEF7F8FE139413A98F
:1018800022481494FFF7FAFB08B1FEF7EFFE602040
:10189000CDE900040294039404940594002269465F
:1018A0001A480694FFF7F0FC08B1FEF7DFFE0422A9
:1018B00069461648FFF7E8FC08B1FEF7D7FE082294
:1018C00069461248FFF7E0FC08B1FEF7CFFE0C2294
:1018D00069460E48FFF7D8FC08B1FEF7C7FE07942B
:1018E000089409944FF400500A94CDE90B4007A9DD
:1018F00006480E94FFF798FB08B1FEF7B7FE0348C1
:10190000FFF784FC16B010BD002C01400C0900202C
:1019100010B58EB000240794089409940A940B948F
:101920001C2168460C94FEF771FC2A482849016086
:101930003F21C0E901146321C0E9031480218161C2
:10194000FFF7BDFB08B1FEF791FE4FF48050079002
:1019500007A92048FFF7EEFB08B1FEF787FE1D48F8
:10196000FFF7FAFC08B1FEF781FE0B940BA91948AA
:101970000C94FFF783FB08B1FEF778FE6020CDE9F9
:10198000000402940022694612480494FFF77CFC8C
:1019900008B1FEF76BFE042269460E48FFF774FC9F
:1019A00008B1FEF763FE082269460A48FFF76CFC9F
:1019B00008B1FEF75BFE0C2269460648FFF764FC9F
:1019C00008B1FEF753FE0348FFF720FC0EB010BD30
:1019D000000800404C0900200C4810B50A4901607D
:1019E0004FF4E1314160002181600C22C160C0E907
:1019F00004128161C161FFF7CBFC002803D0BDE870
:101A00001040FEF733BE10BD004400408C0900209A
:101A1000FEE70A46002100F001B8000010B5002AD8
:101A200021D000281FD000244FEA04035B1C41EAA8
:101A30000424042BFAD310F0030305D10BE000BFFC
:101A4000521E00F8011B5B1C002A0CD0042BF7D39C
:101A500001E010C0121F042AFBD202E000F8011BB3
:101A6000521E002AFAD110BDFFF72EB970470000B0
:101A700002480068002800D0004770475C0300203F
:101A800010B5044600F0BEF8464800210A22017055
:101A9000454801704548017045480160454801606E
:101AA000454801704548017045480170454801604E
:101AB0004548016045480160454801704548006857
:101AC000B0FBF2F0444A1060444A106830B1444818
:101AD000006818B1126802C0521EFCD14148016072
:101AE000414801604148016041480160414801604E
:101AF00041480160414801604148017001F04CFDDE
:101B000001F0FEFD204601F045F82088002847D16D
:101B1000204601F039FB2088002841D1204601F001
:101B20003FFB208800283BD1204601F0E5FB2088C0
:101B3000002835D1204601F055FD208800282FD1FE
:101B4000204601F005FF2088002829D1204602F018
:101B500071F92088002823D1204601F089FA2088D5
:101B600000281DD1204601F021F92088002817D136
:101B7000204602F0CBFD2088002811D1204602F03B
:101B8000B7F8208800280BD1204602F013FE2088E9
:101B9000002805D100F0FCFFBDE81040FFF766BF4C
:101BA00010BD00007003002078030020C003002057
:101BB0001404002018040020A6030020A70300201E
:101BC000A8030020B4030020B8030020BC030020B9
:101BD000C8030020408A0008C40300201C8A0008B3
:101BE000188A0008500300205403002058030020E6
:101BF0005C030020600300206403002068030020D1
:101C0000F603002030B5094B0020094A0446196844
:101C100001E010C1401C1568A842FAD318680549B4
:101C200000EB8500001F086030BD0000188A000826
:101C30001C8A00081C04002005480078012805D1F2
:101C400004490878FA2801D2401C08707047000047
:101C500078030020700300201A4810B5007801288E
:101C60002FD1FEF763FA184A0446117829B1491EAC
:101C700011F0FF00107022D103E0BDE81040FEF724
:101C800059BA12480078D0B901F074FC10490870B4
:101C9000104900EB400051F820100F4801600F4838
:101CA000006881420BD051F8900F401C08600C482E
:101CB0000168491C01600B494FF0805008602046C4
:101CC000DBE710BD7803002070030020C003002074
:101CD000A7030020E02600201804002014040020A0
:101CE000EC03002004ED00E02DE9F0410446264815
:101CF0000E461746007810B142F6E1600FE064B17D
:101D0000FEF714FA8046FEF743FC204D2878401C6D
:101D1000C0B22870012805D006E045F6C3501080F7
:101D2000BDE8F08101F0B4FDFEF742FC4046FEF74D
:101D300001FA1748C4E900060026266284F82560E7
:101D40002020A66284F8240004F1080001F052FB70
:101D5000204601F0BFFA0F490888401C0880FEF7B2
:101D6000E5F90446FEF714FC2878401E10F0FF0049
:101D7000287001D101F09AFDFEF71AFC2046FEF70B
:101D8000D9F93E80CCE7000070030020C00300209A
:101D90004D555458A4030020164810B5007800286B
:101DA00026D115480078002822D1FEF7BFF9044655
:101DB00001F0E0FB11490870114900EB400051F8B7
:101DC0002000104908601049096888420BD050F87B
:101DD000901F491C01600D480168491C01600C49B5
:101DE0004FF0805008602046BDE81040FEF7A2B9D1
:101DF00010BD000070030020C0030020A7030020D6
:101E0000E02600201804002014040020EC03002029
:101E100004ED00E070B504461248007810B146F6B3
:101E200062501DE010480078012802D045F6896014
:101E300016E00E4D2878FA2802D345F209200FE06B
:101E4000FEF774F90646FEF7A3FB2878401C2870BD
:101E500001F01EFDFEF7ACFB3046FEF76BF90020EB
:101E6000208070BD7003002078030020C003002094
:101E70002DE9F04116460C460546FEF757F9074690
:101E8000FEF786FB29460D480025012901D0057083
:101E900001E0012101700A480CB1046005E0094924
:101EA0000A220968B1FBF2F10160FEF781FB3846B6
:101EB000FEF740F93580BDE8F0810000C80300203E
:101EC000C4030020408A000870B504461848007812
:101ED00010B146F6655029E016480078012802D076
:101EE00045F6896022E0144D287890B1FEF71EF97E
:101EF0000646FEF74DFB2878401E10F0FF002870C4
:101F00000AD0FEF755FB3046FEF714F946F663504B
:101F10000CE046F6645009E001F0C8FCFEF748FB0F
:101F20003046FEF707F9FFF737FF0020208070BD2D
:101F30007003002078030020C003002070B50F4D0F
:101F40000446287818B145F68A60208070BD01F0FB
:101F500011FB0B4908700B4908700B4900EB40005E
:101F600051F82000094908600949086001202870DB
:101F7000FEF7AEF943F69920E7E70000780300206A
:101F8000A7030020A6030020E0260020180400205C
:101F9000140400202DE9F0410646FEF7C7F8054677
:101FA000FEF7F6FA2E48002404602E4804802E48DE
:101FB00004802E4804602E4804602E4804602E4899
:101FC00004602E4804602E480481FEF7F1FA28468A
:101FD000FEF7B0F8FEF7AAF80746FEF7D9FA294847
:101FE000056818E0FEF7A2F80746FEF7D1FAC5F833
:101FF000B440C5F8B84045F8784F2C63AC61AC826A
:10200000EC826C62AC62FEF71DFB45F8200FA5F177
:1020100034008481AD6AFEF7CBFA3846FEF78AF8C1
:10202000002DDFD1FEF782F80746FEF7B1FA164819
:10203000056806E0FEF77AF80746FEF7A9FAAC85D0
:10204000AD69FEF7B5FA3846FEF774F8002DF1D108
:1020500002F076FA02F07CFC3480BDE8F0810000EA
:102060008C03002086030020D6030020E803002014
:10207000FC0300200404002074030020B8030020A7
:10208000D4260020F0030020AC030020F8B504465D
:102090006946244800F0A4FBBDF8000058BB6A461E
:1020A0000021022000F0FAFBBDF8000018BBFEF78B
:1020B0003DF80746FEF76CFA1B4E00253560FEF72B
:1020C00077FA3846FEF736F8184919480A6803685F
:1020D0009A4202D9B2FBF3F010B90A21B2FBF1F037
:1020E0006A46002100F0DAFB69460E4800F0F2F97A
:1020F000BDF8000008B12080F8BDFEF717F80746CC
:10210000FEF746FA0B480C490560306808600B4939
:1021100001200870FEF74CFA3846FEF70BF82580D0
:10212000F8BD0000F0290020D8030020408A0008F4
:102130002C8A0008E8030020DC030020E4030020D0
:1021400002480068002800D0004770476003002064
:102150002DE9FF4F83B004467248DDE91785DDE9BC
:1021600010960078DDF854A0139F10B147F24A1082
:102170002AE04CB1059850B166B16B4800688742BF
:102180000BD246F630601FE047F2AD101CE047F27C
:102190004F1019E046F62F6016E01298B84202D3AD
:1021A00046F6316010E046F27320B9F1200F0BD2F1
:1021B0005FEA090103D0B9F11F0F02D008E05B49C3
:1021C00000E05B498C4203D0288007B0BDE8F08F67
:1021D000204601F03FFE4FF0000BA5F800B05FEA8B
:1021E000C8700AD05FEA887007D5304600215A4689
:1021F00001E004C0491CB942FBD31298CDE9007834
:1022000006EB8005DDE905012B46324600F0B0FA09
:102210000599A1620699E1620499216284F83790D8
:10222000C4F854A0A56020605FEA0A0024D0A0652D
:102230001698A76366626060A4F83C800020594647
:1022400004EB8002401CD16710F0FF00F8D004F1CD
:102250006400149900F0F2FF204600F075F8FDF7D5
:1022600065FF0646FEF794F9324D2878401CC0B24F
:102270002870012803D004E02F480068D7E701F058
:1022800007FBFEF795F93046FDF754FF94F8370049
:1022900001F088F9204601F079FA204601F09CFD12
:1022A00026490888401C088025480078012821D04C
:1022B000FDF73CFF0446FEF76BF92878401E10F04E
:1022C000FF0129700ED101F0F1FA1E48008848B1D3
:1022D000FEF76EF92046FDF72DFF07B0BDE8F04F81
:1022E00001F0B2BAFEF764F907B02046BDE8F04F3E
:1022F000FDF720BFFDF71AFF0446FEF749F92878DD
:10230000401E10F0FF01297001D101F0CFFAFEF755
:102310004FF92046FDF70EFF07B0BDE8F04FFFF77D
:102320003BBD0000700300203C8A00080C26002002
:1023300044250020C0030020C4030020F403002033
:10234000780300208403002002490968002900D096
:1023500008477047500300202DE9F04104465248D9
:102360000E46007810B147F24E100AE04F48844202
:1023700002D147F24C1004E04D48844204D147F2A8
:102380004D100880BDE8F0815CB9FDF7CFFE054631
:10239000FEF7FEF847480468FEF70AF92846FDF7FD
:1023A000C9FEFDF7C3FE0746FEF7F2F8424D287856
:1023B000401CC0B22870012801D101F069FAFEF773
:1023C000F7F83846FDF7B6FE94F8360008283DD2F7
:1023D000DFE800F004080C0C1C080C0C204601F08F
:1023E00009FA13E0204602F08FF80FE0204602F0D1
:1023F0008BF894F83400072808D2DFE800F00704CF
:10240000070404040400204601F026F804F16400E7
:1024100000F0FAFE204600F055F8204601F0EEFCF0
:1024200026490888401E0880204601F013FDFF2041
:1024300084F83600FDF77AFE0446FEF7A9F82878FE
:10244000401E10F0FF00287021D022E0FDF76EFE44
:102450000446FEF79DF82878401E10F0FF00287013
:102460000CD101F023FA1648008838B1FEF7A0F825
:102470002046FDF75FFE01F0E7F904E0FEF798F86B
:102480002046FDF757FE46F62D6030807AE701F0D2
:102490000DFAFEF78DF82046FDF74CFE0020308047
:1024A000BDE8F041FFF778BC700300204425002010
:1024B0000C26002014040020C0030020F403002098
:1024C0008403002002490968002900D008477047AA
:1024D000540300207FB50D460446FDF727FE06464F
:1024E000FEF756F81CB114480068844208D1FEF784
:1024F0005FF83046FDF71EFE47F2571028807FBD7B
:10250000FEF756F83046FDF715FE0C48007858B136
:102510000020CDE9020500900346024601902146C5
:10252000074800F077FC7FBD04B029462046BDE88F
:10253000704001F0A3BD00001404002070030020CF
:102540005452455302490968002900D00847704792
:10255000580300202DE9F0478146574814461E468F
:102560000078884610B146F2AE1006E0080006D0AA
:10257000B1F5004F03D045F6256018803DE00027F7
:1025800004B12760FDF7D2FD8246FEF701F84B4DFE
:102590002968486CD8B1401E804648640CB1086C6C
:1025A0002060FEF74FF829680A6C801AC1F8A40071
:1025B000D1F8A820824201D2C1F8A800FDF7F8FFA7
:1025C0005046FDF7B7FD37804046BDE8F0875FEA2B
:1025D000084007D5FDF7ECFF5046FDF7ABFD46F28E
:1025E000B01009E03648017849B1FDF7E1FF5046E7
:1025F000FDF7A0FD46F6635030800020E5E701219D
:102600008046017001F044F9FDF7D2FF5046FDF716
:1026100091FD00214B460722084600F079FEFDF7A8
:1026200085FD8146FDF7B4FF98F80010491E11F0B2
:10263000FF0188F8001001D101F038F9FDF7B8FF6B
:102640004846FDF777FDFFF7A7FBFDF76FFD8046D6
:10265000FDF79EFF286890F8351031B1012916D09A
:1026600003291AD046F62E601BE074B1006C20607E
:10267000FDF7E8FF29680A6C801AC1F8A400D1F8B8
:10268000A820824201D2C1F8A80037800AE00CB12C
:10269000006C206046F2A91003E004B1276047F205
:1026A000D92030802868446CFDF782FF4046FDF752
:1026B00041FD204689E7000070030020140400203B
:1026C000C00300202DE9F0470546274816460F466F
:1026D00000781C4610B147F259100AE046F2D520A6
:1026E0003FB136B1FDF722FD8146FDF751FF1DB127
:1026F00004E01880BDE8F0871C4805684FF000082A
:10270000286858B195F83C00C00713D0FDF750FF7A
:102710004846FDF70FFD0020696A1AE0FDF748FF03
:102720004846FDF707FDC7F8008047F25210C6F88B
:1027300000800AE0FDF73CFF4846FDF7FBFCC7F8C8
:10274000008047F25410C6F800802080D2E7401C79
:10275000091D0A68002AFAD03860A96B081A30608F
:10276000A4F80080C6E700007003002014040020D5
:1027700010B5029C02EB84024FF0807442E902041F
:10278000164842F80C0C4FF0123042F8100CA2F12F
:1027900014004FF0023240E903134FF0113140F8BA
:1027A000101CD10040F8141C4FF0093140F8181CDF
:1027B000910040F81C1C4FF007314FF0033440F8F3
:1027C000201C610040F8241C4FF0053140F8281D02
:1027D0005100C0E9092440F8041D10BD7D410008E6
:1027E0001FB5104A904202D147F25B1004E00E4A36
:1027F000904203D147F25C1008801FBD0B4A12784B
:1028000052B10022CDE90221014600921346019205
:10281000074800F0FFFA1FBD04B0BDE8104001F00A
:102820007DBD0000442500200C2600207003002000
:102830005453555370B51548006800B18047FDF7F3
:1028400001FF134C134A21681268914207D0D1F856
:102850009830C31A41F8943F8D682B448B60C2F8BE
:102860009800FDF777FE2168D1F8B420824201D2AA
:10287000C1F8B400084AD1F8B8301068834201D2D8
:10288000C1F8B8000020106070BD00006403002093
:102890001404002018040020BC0300202DE9F0419E
:1028A000804636480F461546007810B147F275202D
:1028B00020E0334C207810B146F663501AE047B15F
:1028C000022F06D0042F07D0082F02D045F625602E
:1028D00010E0B8F1000F0BD0FDF728FC0646FDF71D
:1028E00057FE2078401CC0B22070012805D006E0B9
:1028F00047F27E201080BDE8F08100F0C9FFFDF7AF
:1029000057FE3046FDF716FC1E4E01212B4630685F
:102910003A4680F83610414601F08AFD288898B181
:10292000FDF704FC0546FDF733FE2078401E10F04D
:10293000FF01217001D100F0B9FFFDF739FE2846F3
:10294000BDE8F041FDF7F6BB306800F053FFFDF73E
:10295000EDFB0646FDF71CFE2078401E10F0FF0040
:10296000207001D100F0A2FFFDF722FE3046FDF7F6
:10297000E1FBFFF711FA00202880BCE7700300207C
:10298000C0030020140400202DE9F0475C4EDDE96F
:102990000854367816B147F27520ABE0DFF864A131
:1029A0009AF8006016B146F66350A3E015F00E06E3
:1029B00047F27E2945F6256705D0022E03D0042E66
:1029C00006D0082E07D11BB912B909B900287DD04D
:1029D00035F01E0C02D02780BDE8F087C5F3001546
:1029E00047F2792C47F278284FF47A773DB142F2DA
:1029F0000F75A94212D900BFA4F800C0ECE7BB4292
:102A000002D347F27B2075E03B2A02D947F27A20B5
:102A100070E03B29F0D8632802D804E0B84202D322
:102A2000A4F80080D8E7384D4FF4FA7CC1EB0111CF
:102A30002D68BCFBF5FC63446B43B3FBF7F34FF429
:102A40006167784300EB8100104400FB0537EFB36A
:102A5000FDF76CFB8046FDF79BFD9AF8000055469C
:102A6000401CC0B28AF80000012801D100F010FF1C
:102A7000FDF79EFD4046FDF75DFBDFF890800121EC
:102A80002346D8F80000324680F83610394601F067
:102A9000CFFC208898B1FDF749FB0446FDF778FD8F
:102AA0002878401E10F0FF01297001D100F0FEFED1
:102AB000FDF77EFD2046BDE8F047FDF73BBBD8F8AB
:102AC000000000F097FEFDF731FB00E014E0064641
:102AD000FDF75EFD2878401E10F0FF00287001D140
:102AE00000F0E4FEFDF764FD3046FDF723FBFFF741
:102AF00053F9002020806FE7A4F800906CE70000F5
:102B000070030020C0030020408A00081404002045
:102B100000B585B000F01CF8FDF794FD04AA002173
:102B200003920091CDE9011006480749002300787F
:102B30001A4600EB400001EB8001044800F06AF9FE
:102B400005B000BDA6030020E02600205449434BF9
:102B500002480068002800D0004770476803002042
:102B600010B5FDF7E3FA0446FDF712FD07490878B2
:102B7000401C0870FDF71CFD2046FDF7DBFAFFF74F
:102B8000C7FFBDE81040FFF767B8000070030020E2
:102B900070470000034A00211160034A1180018040
:102BA0007047000090030020940300202DE9F05F9F
:102BB0009A4690460D4604460A9FFDF7B7FA8346AB
:102BC000FDF7E6FC5FEA080024D0012807D0B0F545
:102BD000004F1FD06FF4004118EB010F12D1206A93
:102BE00030EA0500C4E9080A208A04F108064FF01B
:102BF000000990B14D4D2878401CC0B228700128C2
:102C000015D016E0FDF7D4FC5846FDF793FA45F6CB
:102C100025606CE0206A2843E4E7FDF7C9FC5846CC
:102C2000FDF788FAA7F80090206ABDE8F09F00F051
:102C30002FFEFDF7BDFC5846FDF77CFA366833E001
:102C400090F88810766801F00F0101291BD0022945
:102C500021D004290DD0082910D0FDF767FA0446C9
:102C6000FDF796FC2878401E10F0FF0028702AD04F
:102C700036E0216AD0F88020114009E0216AD0F8BE
:102C8000802011400BE0D0F88010236A0A46994357
:102C90008A4205D007E0D0F88010226A914311B132
:102CA000524600F047F816B1B0680028C8D1FDF7C9
:102CB0003DFA0646FDF76CFC2878401E10F0FF0038
:102CC000287017D018E000F0F1FD1948008838B1DD
:102CD000FDF76EFC2046FDF72DFA00F0B5FD04E08F
:102CE000FDF766FC2046FDF725FA43F6FF20388005
:102CF00000209AE700F0DAFDFDF75AFC3046FDF7B8
:102D000019FA5FEA084001D4FFF746F8FDF70EFA1A
:102D10000546FDF73DFC246AFDF74AFC2846FDF711
:102D200009FAA7F8009020467FE70000C0030020C2
:102D30008403002070B50025C0F8841080F8355059
:102D400080F834500446026490F8360008280ED209
:102D5000DFE800F00D0D04040D0D0A0A204601F015
:102D60007FF984F8365002E0042084F836002046CB
:102D7000BDE8704000F070BB0A4C0B4DFDF7D6F972
:102D80000646FDF705FC2068401C20602868401CB2
:102D90002860FDF70DFC3046FDF7CCF9FEF768FE24
:102DA000ECE700006C030020D803002000B50E4AB9
:102DB00089B0002111600B2205910691CDE9072011
:102DC0000A480B4A0B4B006812681B680292CDE957
:102DD00003011F20CDE900030023074A07A10C4887
:102DE000FFF7B6F909B000BD6C030020008A0008A7
:102DF000FC890008F8890008792D000875432F4FD9
:102E0000532D4949492049646C65205461736B0016
:102E1000442500202DE9F84F1D46DDE90CB4DDE91D
:102E20000AA916460F468046FDF780F90090FDF787
:102E3000AFFB1D481D4A0188128891422DD2491CC2
:102E400089B201801A4802888A4200D20180194959
:102E50000868C0F80080C0E902760582C0F814A0B6
:102E6000A0F81890C0F81CB0406808601248012112
:102E70000181124901604160002000F093FB10487D
:102E8000007808B10F49087000202080FDF790FB02
:102E90000098BDE8F84FFDF74DB90B490888401C74
:102EA000088044F25360F0E784030020088A000899
:102EB000860300207C030020E02600200C26002052
:102EC000A6030020A8030020880300203EB5374C4D
:102ED000374B02A920680268D51A9A4245D015DC02
:102EE000344BD2182DD0344BD21822D0334BD218B9
:102EF00032D0334BDA4208D1C269CDE90021038BCD
:102F0000028AC168806801F009F83EBD2D4AAA18FE
:102F10001ED02D4BD21824D02C4BDA42F5D1C269E9
:102F2000CDE90021038B028AC168806800F066FB4E
:102F30003EBD0091028BC36941698068FFF736FE90
:102F40003EBD018BC269806802AB00F00DFD3EBD45
:102F5000806801F093F83EBD018BC269806802ABC6
:102F600021E0806801F0DAF93EBD1948194900787E
:102F700000EB400001EB800000F0B6FC206802ABE3
:102F80000021C269144801F005F914480168491E7E
:102F90000160E9D1124909680160FDF753FB02465F
:102FA00002AB00210F4801F0F5F83EBD8003002080
:102FB0005449434BADBAB2BE0DF90BFAF2F8F7FF24
:102FC0000006F6FF00F7FDF700FFEFFF03FE0FFE20
:102FD000A8030020E026002028290020100400205B
:102FE0000C040020F02900201D4D1E4C1E4E00BF79
:102FF000FDF79CF80746FDF7CBFA208808B3FDF7EC
:10300000D7FA3846FDF796F8FDF71CFB0746FFF7A1
:103010005DFFFDF717FB2968C01B814200D22860C5
:10302000FDF784F80746FDF7B3FA30684068306072
:103030002088401E2080FDF7BBFA3846FDF77AF85D
:10304000D6E70A49002008810860486000F0BAFA13
:10305000FDF7AEFA3846FDF76DF8FEF79DFEC5E7C1
:103060008C0300208403002080030020E026002041
:10307000F0B52F492F4D89B000220A80296831B15F
:103080002D4E3188022905D244F2546135E044F2D4
:10309000526132E029490023294F0A60296801F171
:1030A000200410E041F8087B5B1C41F8082B9BB220
:1030B00041F8042C21F8102B41F80C2C21F8082C95
:1030C00041F81C4C2034B6F800C06345EAD32B68A5
:1030D00041F81C3C1B490B601B490B601B490A80D3
:1030E0001B490A801B490B6853B11B4B1B4D1C68C5
:1030F0002D68AC4207D244F25661018009B0F0BDA0
:1031000044F25561F9E7032405920692CDE90740A0
:103110001868134B09681B68CDE903020092CDE9DA
:10312000011300230F4A10A11648FFF711F8E5E735
:1031300088030020048A0008088A00088C03002005
:103140004E4F4E457C030020800300208403002066
:10315000860300200C8A0008148A00083C8A0008B4
:10316000108A0008E92F000875432F4F532D494955
:103170004920495352205175657565205461736B20
:10318000000000000C260020034A00211160034AC1
:103190001180018070470000980300209C030020EC
:1031A000F0B5164C216859B1154E318859B189B224
:1031B000491E22688FB2002502F1100329460EE055
:1031C00045F21E7118E045F21D7115E0E2E802318A
:1031D0006D1C22F8081BADB242F8041C1033BD422E
:1031E000F4D3116051601181D160064A23681360E5
:1031F00033889380D18011810180F0BD248A00083A
:10320000208A0008D426002010B5428992B10A49CC
:1032100003680C681C6043680B60CB8844891B1BE7
:10322000CB808B88448923448B800021418181811C
:1032300001604160104610BDD426002001810021AC
:10324000418181810160416070470000F0B544898F
:10325000DDE905E70589AC4202D346F293501EE052
:103260001B4DAE88CEB12C68761ED4F800C0C5F8D0
:1032700000C0AE80EE88761CB6B2EE80B5F808C00D
:10328000B44500D22E814689002556B1DB060ED406
:1032900003681C60046025600CE045F21D703880F6
:1032A000F0BD0460012344604381256005E043686C
:1032B0002360446043895B1C4381868943899E4225
:1032C00000D2838161602281C4F80CE03D80F0BDB2
:1032D000D42600200022074B05A14261C161196874
:1032E00019B181614861186070478261FBE7000095
:1032F00020000000A0030020034A00211160034ABF
:103300001180018070470000A0030020A40300206A
:103310002DE9F041114D07460C4628680026194654
:1033200080F8342080F8356000F040FD64B1FC6026
:1033300004F1080601223946286800F011F83946E0
:10334000304600F05CF802E02868C6870663204635
:103350002968BDE8F04100F01BB80000140400200B
:1033600010B5C2870024234601630EE04B6041F88C
:10337000103B641C41F8103BA4B241F80C3C21F80E
:10338000083C41F8043C41F8180C9442EED310BDBF
:1033900038B14268C1F8C42081688968096AC1618E
:1033A000704791F83400022803D0072803D004A006
:1033B00002E004A000E005A0C1F8C40070470000CE
:1033C000200000005461736B205100005461736B46
:1033D0002053656D0000000005A2C1F8C42081687B
:1033E00011B18968096A00E001A1C161704700005C
:1033F000200000000021016041600181704730B56C
:103400008A68002392F8374002891AB1521C02815F
:1034100002680BE0012202814B600B60016014E046
:10342000956895F83750A54203D85268002AF7D11D
:1034300007E032B1146854B1C1E900426160116023
:1034400030BD4B6042680A605160416030BD116020
:10345000C1E90032016030BD70B50646C48F056B0E
:1034600007E0E8682946083000F009F8641EA4B2B5
:103470002035002CF5D10020F087306370BD10B5E9
:1034800002890023012A0BD00A6862B14C6874B12A
:10349000546022600289521E02814B600B6010BD95
:1034A00003604360F6E74A6813600260F2E7536026
:1034B0004260EFE7F8B50C46064691F83610002555
:1034C000069808293BD2DFE801F03A3A04043A3A78
:1034D000202094F83410032911D0E265A4F860305C
:1034E000206436B12046FFF7B7FF21463046FFF78C
:1034F00073FF204600F0B4FD84F836501BE00090C6
:103500002146304600F022F8EBE794F83410032906
:1035100016D0E265A4F860302064204600F0F4FF85
:1035200036B12046FFF798FF21463046FFF754FF9B
:10353000042084F8360084F8355084F83450F8BDFF
:1035400000902146304600F001F8E6E770B50C6BBC
:10355000049DC98F0AE0E668864204D1C4E90402EA
:103560002383E56170BD491E89B220340029F2D160
:1035700070BD000010B50024064802E02034E4B21B
:10358000001D01680029F9D00846FCF7DAFD204447
:10359000C0B210BD4C0300200149002008607047F4
:1035A0004C03002000F01F0241090120C2F11F025C
:1035B0009040034A52F82130034342F821307047CB
:1035C0004C03002000F01F0241090120C2F11F023C
:1035D0009040034A52F82130834342F8213070472B
:1035E0004C030020034A00211160034A118001802E
:1035F00070470000AC030020B00300202DE9FF4F0E
:1036000083B01F46DDE9109A93460646FCF78EFD0F
:103610000546FCF7BDFF384C2078401CC0B2207036
:10362000012801D100F034F9FCF7C2FF2846FCF76D
:1036300081FD358A06F108001DB1B90530D5006855
:103640003CE0F80601D4002300E01023CDE9009A05
:103650005A4606F120000499FFF7F8FDFCF766FDD5
:103660000546FCF795FF2078401E10F0FF01217001
:103670000ED100F01BF92148008848B1FCF798FFF3
:103680002846FCF757FD07B0BDE8F04F00F0DCB866
:10369000FCF78EFF07B02846BDE8F04FFCF74ABDA7
:1036A000006801255B46D0E90181CDF800903046E5
:1036B000049AFFF7FFFE6D1E4046ADB2002DF1D11A
:1036C000FCF734FD0546FCF763FF2078401E10F040
:1036D000FF00207001D100F0E9F8FCF769FF2846EF
:1036E000FCF728FD380401D4FEF756FB0021AAF8A8
:1036F000001007B0BDE8F08FC00300208403002055
:103700000020074B014600BF00EB400203EB8202A2
:10371000401C11811160C0B251602028F4D3704761
:10372000E026002010B5044690F83700FFF73AFF76
:10373000074994F8370009788842204603D1BDE84C
:10374000104000F023B8BDE8104000F003B80000BE
:10375000A603002090F837100B4A01EB410102EB61
:10376000810100220B8943B15B1C0B810B68C0E90E
:1037700003320A6810610860704701230B81C26040
:103780000261086048607047E026002090F837101A
:103790000A4A01EB410102EB810100220B893BB196
:1037A0005B1C0B81C2604A680261D0604860704750
:1037B00001230B81C26002610860F7E7E026002068
:1037C00010B50289002A14D0012A12D00021022A41
:1037D00007D0D0E90024D3681961C2E90314E2607C
:1037E00005E0D0E90023C2E90313C3E90321C0E9DE
:1037F000003210BD70B5054690F83700114900EB56
:10380000400001EB8001D5E90302002442B10B899D
:103810005B1E0B81D06090B102612C61EC6070BDC9
:1038200028B10A89521E0A8104610860F5E70C81FB
:103830000C604C6095F83700FFF7C4FEEDE74A6076
:10384000EBE70000E026002010B5FCF76FFC0B4A08
:10385000002111700B4A0A49116051F8902F521C37
:103860000A6009490A68521C0A60084A4FF08051F0
:103870001160BDE81040FCF75DBC0000A70300200C
:103880000C26002018040020EC03002004ED00E0CA
:10389000044810B50078012803D1FCF7D3FE024993
:1038A000086010BDC0030020B40300200A4810B512
:1038B000007800280ED1FCF7C5FE08490968401AB7
:1038C00007490A68824200D2086006490A688242B3
:1038D00000D2086010BD0000C0030020B403002027
:1038E000B8030020BC03002070B5044614480078DB
:1038F000012824D1FCF71AFC0546FCF749FE216893
:10390000B1B11048814213D08A6D12B1521E8A653E
:103910000ED1208902280BD30B48007840B92046ED
:10392000FFF74EFF2068416D09B9084909688165B4
:10393000FCF73EFE2846BDE87040FCF7FBBB70BDBF
:10394000C803002044250020C0030020C403002039
:10395000034A00211160034A118001807047000072
:10396000CC030020D00300202DE9F84F1E469046DE
:1039700089460446FCF7DAFB0090FCF709FE208A32
:1039800004F108074FF0000B50B1DFF8BCA09AF823
:103990000010491CC9B28AF8001001291AD01BE096
:1039A000256A681C0CD06D1CC4E90858FCF700FEA1
:1039B0000098FCF7BFFBA6F800B02846BDE8F88FDA
:1039C000FCF7F6FD0098FCF7B5FB46F6C5503080D5
:1039D0000020F3E7FFF75CFFFCF7EAFD0098FCF737
:1039E000A9FB5FEA895002D53D893F680CE03F683A
:1039F00001250023B9687F681A462046CDF800806B
:103A0000FFF758FD6D1EADB2002DF2D1246AFCF710
:103A10008DFB0546FCF7BCFD9AF80000401E10F037
:103A2000FF008AF8000001D1FFF740FFFCF7C0FD5E
:103A30002846FCF77FFB5FEA094001D4FEF7ACF9AA
:103A4000A6F800B02046B9E7C00300200EB5964C9A
:103A5000964E2068450004E028466A460021FEF79D
:103A60001DFF30780128F7D16846FEF793FA904899
:103A700022680168914206D90A462168B2FBF1F139
:103A80005FEA010803D100680A21B0FBF1F8DFF812
:103A900024B2894F42F2107A5FF00006FCF7D2FDA3
:103AA0000190FCF767FD85490860FCF73FFB054680
:103AB000FCF76EFD8248834C016821600660FCF7CC
:103AC00077FD2846FCF736FB7F48236802689A4258
:103AD0002BD97E48824202D25046012115E07C4813
:103AE000824203D24FF47A700A210EE07948824272
:103AF00002D26420014608E07748824203D20A20BD
:103B00004FF47A7101E001205146B2FBF1F15843C4
:103B1000B0FBF1F0AAEB0000704980B2ABF80000F6
:103B20000A88824203D2088001E0ABF800A0FEF7C9
:103B300007FB0024FCF7FAFA8146FCF729FD3D68F3
:103B400042E000BFFCF7F2FA0290FCF721FDDFF83B
:103B5000909199F80010491CC9B289F80010012908
:103B600001D1FFF795FEFCF723FD0298FCF7E2FA7E
:103B7000D5F89C00C5E92760FCF7D8FA0290FCF75D
:103B800007FD99F80010491E11F0FF0189F8001097
:103B90000CD1FFF78BFE5348008838B1FCF708FDC5
:103BA0000298FCF7C7FAFFF74FFE04E0FCF700FDB0
:103BB0000298FCF7BFFA55F8A00F0444FCF7B6FAD8
:103BC0008146FCF7E5FC2D6AFCF7F2FC4846FCF761
:103BD000B1FA002DB6D12CB33C48844202D25546EE
:103BE000012015E03A48844203D24FF47A750A2046
:103BF0000EE03848844202D26425284608E0364860
:103C0000844203D20A254FF47A7001E00125504620
:103C1000B4FBF0F08146FCF789FA0290FCF7B8FC9F
:103C20003C6822E000250120F4E700BFD4F8A000A2
:103C30006843B0FBF9F080B2504500D95046A4F873
:103C40008C00B4F88E10814201D2A4F88E0004F1E9
:103C5000AC026B46111D2046FEF734FDFCF766FAF8
:103C60000290FCF795FCD4F8C040FCF7A1FC029848
:103C7000FCF760FA002CD9D11B480178012903D147
:103C800006706846FEF786F9FCF7DCFC0199401ADD
:103C900016490A68824200D208606A4600214046FE
:103CA000FEF7FCFDFAE600002C8A0008E403002081
:103CB000408A0008D4030020F00300207403002091
:103CC000D8030020E0030020DC030020801A060057
:103CD00000093D00005A62020084D717D603002075
:103CE000C003002084030020D2030020E80300204A
:103CF00030B51D4A89B0002111601C4A11601C4A70
:103D000011601C4A11701C4A11701C4A136843B19F
:103D10001B4B1C4D1C682D68AC4205D246F62C612D
:103D200008E046F62B6105E0174C25781F2D04D3DB
:103D300046F62A61018009B030BD03250591069140
:103D4000CDE9075011481B6812680068CDE90120D1
:103D5000CDE903312078009000230D4A0DA11248CF
:103D6000FEF7F6F9E7E70000D8030020E0030020A3
:103D7000DC030020E4030020D2030020308A000886
:103D8000388A00083C8A0008288A0008348A00081B
:103D90004D3A000875432F4F532D4949492053741C
:103DA0006174205461736B006028002038B50446AC
:103DB000022531B16B46022200F03AFBBDF800004B
:103DC00028B184F836502046FFF714FD38BD032093
:103DD00084F83600F7E70000074B0022C0F8BC204B
:103DE000196829B1C0F8C010C1F8BC00186070474C
:103DF000C0F8C020FAE70000F0030020D0E92F212E
:103E000000234AB181B1C2F8C010C1F8BC20C0F88B
:103E1000C030C0F8BC307047054A116009B1C1F824
:103E2000BC30C0F8C0307047C2F8C030F1E70000C5
:103E3000F0030020044A00211160044A1180044A62
:103E40001160018070470000F0030020F40300209F
:103E5000EC03002070B50025056085604560C560F5
:103E6000056145610446856129A0C4E90750656282
:103E7000A562E5622563E5872564E565A4F86050E1
:103E8000002104F16400FFF7D9F96567A567C4F85C
:103E90008050A4F888500020C4F8845004EB8001BE
:103EA000401CCD6710F0FF00F8D06564C4F8A45042
:103EB000C4F8A850A56384F88A50C4F8B050C4F878
:103EC000AC50A5874FF00040C4E912052565656533
:103ED000A565A4F88C50A4F88E50C4F89050C4F88E
:103EE00094503434FCF7AEFBC4E91905C4F8805093
:103EF000C4F8845004F8015B202004F8015B04F846
:103F0000015B04F8850B04A020C4C4E9005070BD17
:103F10003F5461736B000000200000002DE9FC5F3E
:103F20009946DDE90C7692468B460546FCF7FEF88D
:103F30008046FCF72DFB474C2078401CC0B2207017
:103F4000012801D1FFF7A4FCFCF732FB4046FCF747
:103F5000F1F80DB9404805680020308095F836002A
:103F6000DFF8F880082852D2DFE800F004042626A3
:103F700004042626CDE900764B465246594605F103
:103F80006400FFF763F9FCF7D1F80546FCF700FB86
:103F90002078401E10F0FF01217031D1FFF786FC20
:103FA000B8F8000060B3FCF703FB2846FCF7C2F842
:103FB000BDE8FC5FFFF748BC95F834000228D9D172
:103FC00053465A46294600200097FFF773FAFCF73C
:103FD000ADF80546FCF7DCFA2078401E10F0FF0132
:103FE000217001D1FFF762FCFCF7E2FA2846FCF7EA
:103FF000A1F85FEA09402AD4BDE8FC5FFDF7CCBE1A
:10400000FCF7D6FA2846BDE8FC5FFCF793B8FCF74E
:104010008DF80546FCF7BCFA2078401E10F0FF0032
:1040200020700CD1FFF742FCB8F8000038B1FCF763
:10403000BFFA2846FCF77EF8FFF706FC04E0FCF721
:10404000B7FA2846FCF776F846F62D603080BDE8D2
:10405000FC9F0000C0030020140400208403002003
:1040600010B5044600F050FA94F83600400704D426
:104070002046BDE81040FFF755BB10BD2DE9F041CB
:104080000D460446FCF752F80746FCF781FA002675
:104090002E8094F83600082864D2DFE800F004048B
:1040A00004040D394955FCF783FA3846FCF742F809
:1040B00047F25310288037E02F4D2878401CC0B2BB
:1040C0002870012801D1FFF7E3FBFCF771FA3846AD
:1040D000FCF730F894F88A00401E10F0FF0084F8D6
:1040E0008A0004D184F836602046FFF7B9FFFCF758
:1040F0001DF80446FCF74CFA2878401E10F0FF012A
:10410000297001D1FFF7D2FBFCF752FA204609E0F3
:1041100094F88A00401E10F0FF0084F88A001BD13A
:1041200001200EE0FCF706F8BDE8F041FDF734BED3
:1041300094F88A00401E10F0FF0084F88A000BD12A
:10414000022084F8360007E094F88A00401E10F040
:10415000FF0084F88A0003D0FCF72AFA3846E1E72A
:104160000320EEE7FCF724FA3846FBF7E3FF46F6B8
:104170002D602880BDE8F081C0030020044808B508
:104180000068FEF7DFF969460020FEF7E5F808BD94
:10419000140400202DE9F84F984691468B460646B8
:1041A000FBF7C4FF0546FCF7F3F9594C2078401C97
:1041B000C0B22070012801D1FFF76AFBFCF7F8F9C3
:1041C0002846FBF7B7FF0EB9524806680020524F49
:1041D000C6F84090A8F8000096F8360046F6C55A92
:1041E000082872D2DFE800F033332F2F33332F2F1C
:1041F000FCF7DEF92846FBF79DFFFFF725FB04E0FF
:10420000FCF7D6F92846FBF795FFA8F800A0002098
:10421000BDE8F88F6D1C7564FBF788FF0646FCF758
:10422000B7F92078401E10F0FF00207047D1FFF74B
:104230003DFB3888F0B3FCF7BBF93046FBF77AFF5B
:10424000FFF702FB62E096F83400072813D0756C84
:10425000681CDFD1FBF76AFF0546FCF799F9207867
:10426000401E10F0FF002070CAD1FFF71FFB3888F6
:104270000028C5D0BCE700231A4631461846CDF8C1
:104280000090FFF717F9756CFBF750FF0646FCF737
:104290007FF92078401E10F0FF00207001D1FFF759
:1042A00005FBFCF785F93046FBF744FF5FEA0B405E
:1042B0002CD401E003E008E0FDF76EFD26E0FCF7FA
:1042C00077F93046FBF736FF20E0FBF72FFF054676
:1042D000FCF75EF92078401E10F0FF0020700BD133
:1042E000FFF7E4FA388838B1FCF762F92846FBF7A3
:1042F00021FFFFF7A9FA04E0FCF75AF92846FBF77B
:1043000019FF46F62D60A8F80000002528467FE733
:10431000C003002014040020840300202DE9F04194
:104320000D460446FBF702FF0746FCF731F9334818
:1043300004B90468016832488C4209D1017839B166
:10434000FCF736F93846FBF7F5FE46F6635052E0C7
:104350000021298094F836100126082944D2DFE88C
:1043600001F0043133393B3B3B3B05460078401CB0
:10437000C0B22870012801D1FFF78AFAFCF718F9BA
:104380003846FBF7D7FE042084F8360084F88A60AC
:104390002046FFF72FFAFBF7C9FE0446FCF7F8F8B2
:1043A0002878401E10F0FF01297001D1FFF77EFA36
:1043B000FCF7FEF84FEA0400FBF7BCFEBDE8F04155
:1043C000FDF7EABC052000E0062084F8360084F8FA
:1043D0008A6005E00720F8E714F88A0F401C207077
:1043E000FCF7E6F83846E7E7FCF7E2F83846FBF773
:1043F000A1FE46F62D602880BDE8F081140400205F
:10440000C003002010B500200146074C074B06E012
:1044100004EBC002401C11609180D18080B21A88E8
:104420009042F5D310BD000034220020548A0008C9
:10443000F0B5324C47F27E2625680024042A08D0C5
:10444000B1B32E4E082A36680E440BD0C0E9136172
:1044500015E04A1B521E12F5803F2AD8521CC0E9B3
:1044600013120CE0826C0A44571B7F1E8F4201D24C
:10447000C26400E0C664C16C4A1B02658164204AC4
:10448000C16C1288B1FBF2F602FB16111D4A89B20B
:1044900002EBC102918889B11168F1B1CE6C761B33
:1044A0000E65076DB74212D94E6966B13146F5E720
:1044B000FFE7C4640465C4611E80F0BD446184618B
:1044C000012110600BE0C0E90541486105E08D69FC
:1044D00075B1C0E90515686188619188491C9180B2
:1044E000D58889B28D4200D2D180C2611C80F0BDD6
:1044F000C0E9051488611060EFE70000F8030020B0
:10450000548A00083422002010B5C269002A15D050
:10451000002101651368834204D14369136033B1FC
:10452000996104E0D0E90534636103B19C614161A4
:104530008161C161C1649088401E908010BD0000FF
:1045400010B500200446064B064A04E003EBC00108
:10455000401CCC8080B211888842F7D310BD000087
:1045600034220020548A00082DE9F05FFBF7DEFDBD
:104570000446FCF70DF8554D2878401CC1B229704F
:10458000012901D1FFF784F9FCF712F82046FBF767
:10459000D1FDFCF757F8DFF8388107464D49D8F8C8
:1045A00000004FF00009401CC8F8000009884FF0D7
:1045B000030AB0FBF1F201FB1200474980B24FF051
:1045C000040B51F8304074B394F83600666908283B
:1045D00051D2DFE800F05004501150295036E06C01
:1045E000D8F80010421A2265884246D184F83690E5
:1045F0002046FFF735FD3EE0E06CD8F80010421A87
:104600002265884239D1C4F85C90A4F86090FCF728
:1046100019F820642046FEF71FFF2046FFF720FD13
:1046200084F8369023E028E0E06CD8F80010421AB5
:104630002265884221D184F836B02046FFF764FF16
:1046400019E0E06CD8F80010421A2265884214D1B3
:10465000C4F85C90A4F86090FBF7F4FF2064204657
:10466000FEF7FAFE2046FFF74FFF84F836B084F8D5
:1046700035A084F834903446A5E7FBF7E3FF1749EB
:10468000C01B0A68824200D20860FBF74FFD044657
:10469000FBF77EFF2878401E10F0FF0129700DD136
:1046A000FFF704F90E48008840B1FBF781FF204670
:1046B000FBF740FDBDE8F05FFFF7C6B8FBF778FFFA
:1046C0002046BDE8F05FFBF735BD0000C0030020C9
:1046D000F8030020548A000834220020FC03002044
:1046E000840300201CB5084C00216B4601AA084633
:1046F000FDF730FFBDF800000028F5D12078012833
:10470000F2D1FFF731FFEFE77803002030B5044620
:104710001A4889B00025056019480560FFF772FE48
:104720001848016841B11849184B0A681B689A4239
:1047300005D247F2132008E047F2122005E0144AA0
:1047400013781F2B04D347F21120208009B030BD0D
:104750000B2305950695CDE907340E4B09680068D3
:104760001B68CDE90103CDE9031510780090002303
:10477000094A0AA10E48FDF7EBFCE7E7F803002021
:10478000FC030020488A0008508A00083C8A000880
:10479000448A00084C8A0008E546000875432F4FFC
:1047A000532D494949205469636B205461736B0050
:1047B0002829002030B52A4A89B00021294B1160F0
:1047C000294C2A4A1D681DB12468B4FBF5F303E0A7
:1047D00023680A24B3FBF4F313601A46244B274DD5
:1047E000274C1A60234A1160234A1160002206E018
:1047F00005EBC203521C9980D98092B219602388BC
:104800009A42F5D31F4B1A6842B11F4A1F4D1468D4
:104810002D68AC4205D247F2483108E047F24731F3
:1048200005E01B4C25781F2D04D347F2463101804B
:1048300009B030BD0B2505910691CDE907501068F0
:10484000144A1B681268CDE90301CDE901322078D2
:1048500000900023104A11A11648FDF779FCE7E704
:1048600000040020588A0008408A00080C04002038
:10487000100400200804002004040020BC240020B0
:10488000688A00085C8A0008648A00083C8A00087C
:10489000568A0008608A00087949000875432F4F3E
:1048A000532D4949492054696D6572205461736BD9
:1048B00000000000F029002070B5022280F82A20B4
:1048C000204A012914681ED0016AE1B11E4A214420
:1048D00081611288B1FBF2F302FB13121B4B92B2FF
:1048E00003EBC202002315687DB1091BC161116889
:1048F000D1B18D692D1BCD61C669AE420ED90D694E
:1049000045B12946F5E7416AE0E70361436110607C
:1049100001200BE0C0E90431086105E04C6964B195
:10492000C0E90414206148619088401C9080D188BF
:1049300080B2814200D2D08070BDC0E904134861CA
:104940001060F1E708040020688A0008BC240020F9
:1049500010B500200446064B064A04E003EBC001F4
:10496000401CCC8080B211888842F7D310BD000073
:10497000BC240020688A00081CB5DFF89090DFF89E
:1049800090A0244DDFF890B000216B4601AA0846A4
:10499000FDF7E0FD6846FDF73DFAFBF753FE0646DE
:1049A00028684FF00308401C2860B9F80010B0FBDD
:1049B000F1F201FB120080B25AF83040C4B1A06994
:1049C00029682769884213D1204600F027F8208DF6
:1049D000022808D084F82A80A26812B12046E16833
:1049E00090473C46EAE701212046FFF765FFF3E7E1
:1049F000FBF728FE841B6846FDF766FADBF800101B
:104A0000A142C1D2CBF80040BEE70000688A00088E
:104A1000BC240020080400200404002010B5104A23
:104A200081691288B1FBF2F302FB13110D4A89B2BE
:104A300002EBC102002314680169844203D11160B2
:104A400029B14B6103E04469216101B14C6101214D
:104A500080F82A10036143619088401E908010BD49
:104A6000688A0008BC24002010B51449A1F5E27042
:104A700000F094FD044612A002F024FE11A002F002
:104A800021FE12A002F01EFE214611A002F01AFE25
:104A90001CA002F017FE0AA002F014FE09A002F00A
:104AA00011FE0AA002F00EFE0448018916A002F0D1
:104AB00009FEBDE8104013A002F004BE88100020DB
:104AC0005B492F00766C35336C3078005D20000038
:104AD000564C35334C30585F506572666F726D536B
:104AE000696E676C6552616E67696E674D6561736B
:104AF0007572656D656E74207374617475733A2593
:104B0000640000000D0A000064697374616E6365DF
:104B1000203A20253464206D6D2E0000704730B59A
:104B20008FB028216846FBF771FB14210AA8FBF718
:104B30006DFB0920012100904FF480300024049186
:104B40000691CDE901040225CDE907504FF4C010CC
:104B500009906846FCF7C4F808B1FBF787FD0F2001
:104B6000CDE90A054FF48060CDE90C4002210AA886
:104B70000E94FBF7B1FF08B1FBF778FDFCF742F8A4
:104B80000FB030BD0D48016841F00101016041687E
:104B90000B4A1140416001680A4A114001600168F6
:104BA00021F480210160416821F4FE0141604FF44D
:104BB0001F0181600449C003086070470010024073
:104BC0000000FFF8FFFFF6FE08ED00E0F0B5026818
:104BD000164B174C174D4FF08047984205D0B842FE
:104BE00003D0A04201D0A84203D122F070064A6847
:104BF0003243984205D0B84203D0A04201D0A84227
:104C000003D122F44074CA6822434C6922F0800226
:104C1000224302608A68C2620A688262984201D1B5
:104C20000969016301214161F0BD0000002C0140D0
:104C3000000400400008004010B5846842EA0322E6
:104C400024F47F440A432243826010BD826822F02C
:104C500070020A4342F007018160704730B5026A72
:104C600022F001020262026A4368846924F073053B
:104C70000C682C4322F002058A682A430A4DA84298
:104C80000BD122F00805CA6823F440732A434D690A
:104C900022F004021D438B692B4343608461496801
:104CA0004163026230BD0000002C014030B5026A51
:104CB00022F010020262026A436884690D6824F4DB
:104CC000E64444EA05248D6822F0200242EA0512F7
:104CD0000B4DA8420ED1CD6822F0800242EA0512A7
:104CE0004D6923F4406343EA85038D6922F0400255
:104CF00043EA85034360846149688163026230BD91
:104D0000002C014030B5026A22F480720262036A0C
:104D10004268C46923F4007324F073050C682C43C3
:104D20008D6843EA05230C4DA8420ED1CD6823F4CB
:104D3000006343EA05234D6922F4405242EA05121A
:104D40008D6923F4806342EA05124260C4614968B8
:104D5000C163036230BD0000002C014030B5026A1F
:104D600022F480520262046A4268C3690D6823F427
:104D7000E64343EA05238D6824F4005444EA0534ED
:104D8000064DA84204D14D6922F4804242EA8512C0
:104D90004260C36149680164046230BD002C014077
:104DA00010B5036A046A24F001040462846924F0E3
:104DB000F00444EA021423F00A020A438461026206
:104DC00010BD10B5036A23F0100303628369046AFF
:104DD00023F4704343EA023224F0A00343EA0111B2
:104DE0008261016210BD00002DE9F04104460068B7
:104DF0000169E26821F44051114301612169A06811
:104E00000843616908432168CA6841F20C639A4308
:104E10000243CA6020684169A26921F440711143CC
:104E200041611E49206864253226884202D1FBF781
:104E300005FF01E0FBF7F2FE00EBC00101EB001102
:104E400060686FF018078000B1FBF0F2B2FBF5F27A
:104E5000B1FBF0F37A4303EB8202B1FBF0F306EB14
:104E60000212B2FBF5F2B3FBF5F302F0F00202EB33
:104E70000312B1FBF0F3B1FBF0F0B0FBF5F07843B7
:104E800003EB800006EB0010B0FBF5F0216800F0AA
:104E90000F0010448860BDE8F08100000038014038
:104EA0002DE9F041984617460E460446069D1DE042
:104EB000681C1BD02DB1FBF711FDA0EB0800A84228
:104EC00014D92068C16821F4D071C160206841699B
:104ED00021F001014161202084F8390084F83A0072
:104EE000002084F838000320BDE8F08120680068C5
:104EF00036EA000004D00020B842D9D00020F3E701
:104F00000120F9E7FEE700007CB50446002094F894
:104F1000DA200D46012A03D0022A01D0032A14D137
:104F200001AB6A460121204600F099F9009A4FF43E
:104F30007F018A4202D8019A8A4206D9002804D108
:104F400025B10F49204601F043FE7CBD0422FF211C
:104F5000204600F036FE054600227021204600F073
:104F600030FE05430022FF21204600F02AFE0543C3
:104F700000228021204600F024FE28437CBD000052
:104F800057010020F8B50646002401220B213046C7
:104F900000F017FE074600220B21304600F011FEFC
:104FA00040EA07056A461321304600F01AFB641CEC
:104FB0009DF800102843E4B2490704D0032C04D222
:104FC0000028E2D0F8BD032CFCD36FF00B00F8BD35
:104FD000F0B591B004460123FE22892100F0D0FDF6
:104FE00020B900228821204600F0EBFD002584F83E
:104FF000F0504FF47A70A4F852014FF4C870A4F83E
:1050000054015748C4F8580156482562C4F8D400E2
:105010006946204600F0AAF8060009D18DF8005034
:105020008DF801504022694604F11000FBF7D5F8D5
:105030006420A4F834014FF46170A4F836014FF4F1
:10504000FA70A4F838014FF42060A4F83C0101275D
:1050500084F850713A468021204600F0B2FD0643A4
:105060000122FF21204600F0ACFD0643002211463C
:10507000204600F0A6FD064310AA9121204600F02C
:10508000B0FA06439DF8400084F83A01012200215D
:10509000204600F096FD06430022FF21204600F046
:1050A00090FD064300228021204600F08AFD304317
:1050B0000026002852D1B1B20122204600F074FB34
:1050C000761C062EF5DB002848D10022022120465E
:1050D00000F06AFB002841D100220321204600F0A5
:1050E00063FB00283AD100220421204600F05CFB3B
:1050F000002833D100220521204600F055FB00286E
:105100002CD14FF490120021204600F08EFB002895
:1051100024D14FF480420121204600F086FB002874
:105120001CD14FF40C120221204600F07EFB002817
:1051300014D100220321204600F077FB00280DD176
:10514000FF2084F8300102460121204600F039FD9D
:1051500084F83271002801D184F8155111B0F0BDE6
:10516000856B0100A470090000F05CBF70B50646B5
:105170000C46007C01F8080B304600F044F800288B
:1051800033D1207304F11001304600F0DBF9002820
:105190002BD104F11401304600F0E4F8002824D1AA
:1051A000002501E0002820D104EB8502A9B2304699
:1051B000243200F07BF8002817D16219A9B23046DA
:1051C000183200F066F86D1C062DEBDB00280CD1C0
:1051D00004F13C01304600F09AF9002805D1211D68
:1051E0003046BDE8704000F0BBB870BD10B50C464D
:1051F0000A46092100F0F5F9002803D1217801F0D1
:105200000101217010BD3EB50C46054602AAF821E9
:1052100000F0FDF900280ED16A460421284600F06E
:10522000EBF9002807D1BDF8081029B1009AB2FBAC
:10523000F1F12160A9613EBD2168FBE738B50C465C
:105240006A46132100F0CDF99DF8001001F0070225
:1052500011F0180F226001D06FF0050038BDF8B5CD
:1052600015461C4606466A460E2100F0D0F9BDF8E8
:1052700000100905C9082960002809D16A460C21D7
:10528000304600F0C4F9BDF800100905C9082160D6
:10529000F8BD03460020062902D3001F002102E0CA
:1052A000194491F82810117070470000F8B50446B1
:1052B0000020154606292ED2DFE801F00305191B50
:1052C0001D1D646B25E06A464421204600F09FF9CD
:1052D000002803D1BDF800104FEA412606D1EEB1F7
:1052E0002E604FF00101A66384F82910F8BDE46B2D
:1052F0000FE0246C0DE06A464FF06401204600F098
:1053000086F9002804D100BFBDF800104FEA4124FF
:10531000ECD12C60F8BD6FF00300F8BDA16B2960E3
:105320004FF00001E0E77CB50C4690F8DA1000255C
:10533000012604290AD06A46142100F052F90028F7
:105340000BD19DF80010C90706D007E001A9FFF7AF
:1053500075FF0199042901D025707CBD26707CBDA4
:1053600001F04CB901F0ACB901F0C4B9F0B58DB0A1
:105370000C4605460C2302AA142100F053F906003E
:105380007ED10021A17521609DF813009DF81220A7
:10539000616000EB02209DF80F209DF80E304FF465
:1053A0007A7E02EB03221204D209E2609DF81130EA
:1053B0009DF8106080B203EB06231B04DB09236118
:1053C0009DF80B309DF80A6003EB06239BB2A38285
:1053D000B5F852619DF8087095F831C176451FD037
:1053E000464306F5FA7696FBFEF02E8C95F81CE007
:1053F00080B2B6B2BEF1000F12D05E43B2EB262FE0
:1054000008D1BCF1000F02D042F2B82008E048F603
:10541000E0200DE05043A2EB2626B0FBF6F080B270
:10542000BCF1000F04D0810821818001E07501E00A
:105430002081E1750CA8CDE900403946284601F0ED
:1054400081FA060025D19DF83000207605F1500143
:105450001C220D4605A8FAF7C0FE2089ADF81C00F5
:10546000E07D8DF82B006089ADF81E006068069025
:10547000E068089020690990A08AADF8280000E053
:1054800007E0207E8DF82C001C2205A92846FAF79B
:10549000A4FE0DB03046F0BD38B5054600200C46E0
:1054A0008DF800006A460121284600F09AF800288D
:1054B0002AD123469DF800200021284602F0B0FFA3
:1054C000002821D1A31C9DF800200121284602F0CC
:1054D000A7FF002818D1631C9DF800200221284650
:1054E00002F09EFF00280FD1E31C9DF8002003214D
:1054F000284602F095FF002806D1231D9DF80020C4
:105500000421284602F08CFF38BD01F033BB38B5CA
:105510000C4605466A46012100F063F800280BD1CD
:105520009DF8001085F83011090601D5012100E031
:105530000021217085F84C1038BD02460020127FF2
:105540000A70704738B50D4604466A46202100F0BF
:105550005EF8002807D1BDF8001029B1C900296004
:1055600021620121217738BD216A29600021F9E7F4
:10557000012301F0D4BB01F0F2BB70B5047C0546F9
:1055800014B900F0D9F910B9284601F073FB50EABC
:10559000040102D1032185F8321170BD70B50C46AB
:1055A0000546002100F051F8002810D12846FFF7E9
:1055B000E4FF00280BD121462846FFF7D7FE00283C
:1055C00005D12846BDE870400021FFF7DBBC70BD67
:1055D00008B5002001460090491C0091FA29FBD330
:1055E00008BD10B5002490F85C0101F01DFD08B164
:1055F0006FF01304204610BD10B5002490F85C0134
:1056000001F015FD08B16FF01304204610BD10B570
:10561000002490F85C0101F02BFD08B16FF0130439
:10562000204610BD10B50024402B00D3241F90F855
:105630005C019BB201F011FD08B16FF0130420462C
:1056400010BD4A088A2100F0BCBA02460020032996
:105650000BD003DC49B1012904D106E0142904D0A0
:10566000152902D06FF0070070471174704770B5AC
:105670001C46049E054611B16FF0090070BD142A46
:1056800008D0152A0FD0052C6FD2DFE804F0666829
:105690006A6C6F002EB10122BDE87040842100F0D9
:1056A00090BA1022F8E70122FF2100F08AFA04469E
:1056B00000221146284600F084FA04430022FF210C
:1056C000284600F07EFA044301228021284600F09B
:1056D00078FA044302228521284600F072FA044336
:1056E0000422FF21284600F06CFA04430022CD2159
:1056F000284600F066FA04431122CC21284600F027
:1057000060FA04430722FF21284600F05AFA0443B6
:105710000022BE21284600F054FA04430622FF214D
:10572000284600F04EFA04430922CC21284600F016
:1057300048FA04430022FF21284600F042FA0443BD
:105740000122FF21284600F03CFA044300221146C2
:10575000284600F036FA204370BD002207E00122FF
:1057600005E0022203E0032201E017E004220A21FF
:10577000284600F026FA0028EED196B11023EF2239
:105780008421284600F0FCF90028E5D185F8DA40AC
:105790002846BDE870400021FFF7F4BB6FF00A0017
:1057A00070BD0023EBE700002DE9F0410446002026
:1057B0000D461646071F034601460246062D02D334
:1057C0003846BDE8F08156B104EB85014B6B0121F1
:1057D000062DF5D2DFE805F005080F121518012295
:1057E000F6E784F8281017E0C3F34F22442120463F
:1057F00000F0F2F90EE084F82A100DE084F82B1086
:105800000AE05300FE2201E01301EF22602120464E
:1058100000F0B6F90028D4D1611926B15FF0010279
:1058200081F82820CDE70022FAE770B5144600225F
:10583000431800EB810593F82830DBB1C4F34F2304
:10584000062914D2DFE801F00305080A0C0C4463B2
:1058500010E01A46442105E0C4630BE0046409E04B
:105860001A46642100F0B8F9020003D003E06FF09B
:10587000030200E06C63104670BD01F060BC01F0F3
:10588000BFBC01F0CDBC2DE9F8430746002090468F
:105890000E468DF800006A4601213846FFF7A1FE4A
:1058A00005009DF8000004462ED1291FB8F1010F14
:1058B00006D0052E2CD2DFE806F0191C1F22250089
:1058C000052E25D2DFE806F00306090C0F0044F090
:1058D000100419E044F0280416E044F0040413E036
:1058E00044F0400410E044F080040DE004F0EF04C4
:1058F0000AE004F0D70407E004F0FB0404E004F03D
:10590000BF0401E004F07F04844210D015B10EE022
:105910000D460CE022460121384600F052F9050000
:1059200005D187F8304138467969FFF7A6FF284648
:10593000BDE8F88301F0C7BCF8B501250646047C34
:105940002A46802100F03DF90122FF21304600F077
:1059500038F900221146304600F033F996F83A2122
:105960009121304600F02DF901220021304600F04F
:1059700028F90022FF21304600F023F9002280217F
:10598000304600F01EF93CB10425012C26D0032C32
:105990002FD06FF00700F8BD01220021304600F043
:1059A00010F98DF800500028F5D100244FF4FA6763
:1059B00005E024B16A4600213046FFF712FE9DF84B
:1059C0000020641C25EA0201014304D0BC42E2D35A
:1059D0006FF00600F8BDBC42EBD3F9E718B901211E
:1059E0003046FFF791FA022209E000BF86F83251F3
:1059F000F8BD18B901213046FFF786FA04220021CC
:105A0000304600F0DEF80028F0D0F8BD30B597B091
:105A10000446402101A8FAF7F9FB00258DF844500F
:105A2000ADF850508DF8545001212046169500F0E5
:105A300051FB94F8142194F81311012A06D802D1CD
:105A4000202903D808E03AB90C2905D915AA16A9C6
:105A5000204601F084F902E0204601F0E1FB4749CD
:105A600000287DD194F8500108B9D4F84C11204693
:105A700001F0AEF800287ED1002204231146204612
:105A80000095FFF7F4FD002875D10122FF21204683
:105A900000F097F8054614AA84212046FFF7B7FDC9
:105AA00005430022FF21204600F08BF8284362D1F5
:105AB000BDF8500001A90001C4F8D4002046FFF74A
:105AC00055FB002857D111A92046FFF78FFB00286E
:105AD00051D19DF8440084F83101402201A904F11C
