:020000040800F2
:10000000D00F0020ED0400080D0400080F040008C4
:100010001104000813040008150400080000000083
:1000200000000000000000000000000017040008AD
:1000300019040008000000001B0400081D0400084B
:100040000705000807050008070500080705000860
:100050000705000807050008070500080705000850
:100060000705000807050008070500080705000840
:100070000705000807050008070500080705000830
:100080000705000807050008070500080705000820
:100090000705000807050008070500080705000810
:1000A0000705000807050008070500080705000800
:1000B00007050008070500084900010807050008B2
:1000C00007050008070500080705000807050008E0
:1000D000070500088F6800080705000807050008E5
:1000E000B1F4000807050008070500080705000827
:1000F00007050008070500080705000807050008B0
:10010000070500080705000807050008070500089F
:10011000070500080705000807050008070500088F
:10012000070500080705000807050008070500087F
:10013000070500080705000807050008070500086F
:10014000070500080705000807050008070500085F
:10015000070500080705000807050008070500084F
:10016000070500080705000807050008070500083F
:100170000705000807050008070500080000000043
:10018000070500080705000807050008070500081F
:10019000070500080705000807050008070500080F
:1001A00007050008070500080705000800F002F829
:1001B00000F070F80AA090E8000C82448344AAF191
:1001C0000107DA4501D100F065F8AFF2090EBAE88F
:1001D0000F0013F0010F18BFFB1A43F0010318477B
:1001E0000C5A01002C5A01000A444FF0000C10F880
:1001F000013B13F0070408BF10F8014B1D1108BFA5
:1002000010F8015B641E05D010F8016B641E01F844
:10021000016BF9D113F0080F1EBF10F8014BAD1C94
:100220000C1B09D16D1E58BF01F801CBFAD505E0B2
:1002300014F8016B01F8016B6D1EF9D59142D6D30C
:10024000704700000023002400250026103A28BF34
:1002500078C1FBD8520728BF30C148BF0B60704738
:10026000692910F01B84642910F01884752910F096
:100270001584782910F04E84632910F0A486732920
:1002800010F0A986002070471FB511F037F81FBD88
:1002900010B510BD10F0BAFE1146FFF7F5FF00F0E3
:1002A00009F810F0D8FE03B4FFF7F2FF03BC06F024
:1002B00095FA00001CB500F04EF90823022219211E
:1002C0004FF4B47006F048FAB42006F015FA4FF473
:1002D000E13006F08BFA06F017FB06F03BFB09F065
:1002E00086FC07F03FF80AF06DF92B4D4FF478408B
:1002F0001024286029A0CDE900402346C8223221DD
:100300001E2009F00EFC2AA0CDE900401023C822CF
:1003100046211E2009F005FC2AA0CDE9004010234B
:10032000C8225A211E2009F0FCFB2AA0CDE900407A
:100330001023C8226E211E2009F0F3FB1F20286025
:10034000274D4FF4FA761DE026A0CDE9004010239A
:10035000C82296211E2009F0E4FB304606F0ECF995
:1003600025A0CDE900401023C82296211E2009F0C7
:10037000D8FB304606F0E0F9D5F8840248B10021F8
:10038000C5F884120AF089F90028DDD10EF009F9C8
:10039000FCE70121F4E700002800002041706F6CA9
:1003A0006C6F2053544D333246342F4637000000D3
:1003B00053656E736F7220564C35334C3058205451
:1003C0004553540041544F4D40414C49454E5445CE
:1003D0004B000000323031372F362F32350000000D
:1003E00000804042323443303220436865636B20E2
:1003F0004661696C65642100506C656173652043DA
:100400006865636B21202020202020007047FEE7D4
:10041000FEE7FEE7FEE770477047704700F0CFB891
:100420002B48016841F4700101602A48016841F0DD
:1004300001010160274A0021083211600268264B41
:100440001A400260031D254A1A60026822F48022C5
:10045000026020480C3001601D4958068039086050
:10046000704770B51B4D083528681D4B1D4910F0AD
:100470000C0004D01C4E042803D0082803D00B60C5
:100480001BE00E6019E0134A121D1068C0F380547F
:10049000106800F03F0014B1B6FBF0F001E0B3FBD0
:1004A000F0F013681268C3F388135843C2F3014293
:1004B000521C5200B0FBF2F008602868094AC0F3F1
:1004C0000310121D105C0A68C2400A6070BD000073
:1004D00088ED00E000380240FFFFF6FE10300024F7
:1004E0000024F4000000002040787D010948804786
:1004F00009480047FEE7FEE7FEE7FEE7FEE7FEE706
:10050000FEE7FEE7FEE7FEE704480549054A064B1D
:100510007047000021040008AD010008D009002048
:10052000D00F0020D00B0020D00B002008B50020F9
:10053000009008BD10B5044600F0FFFF4FF47A713B
:10054000B0FBF1F000F013F900222146501E00F03C
:10055000CCF8002010BD584810B5016841F4007176
:100560000160016841F480610160016841F48071BB
:100570000160052000F0ACF80F20FFF7DBFFFFF76C
:10058000D5FF002010BD08B50020009008BD4B4AE3
:1005900010B54FF0FF30106000211160121D106087
:1005A0001160464A103A10601160121D106011600F
:1005B000121D10601160FFF7E6FF002010BD4048DB
:1005C0000168491C016070473D480068704731B5BB
:1005D000FFF7FAFF0446FFF7F7FF0099001B884278
:1005E000F9D338BD4FF0E020016921F0020101612B
:1005F00070474FF0E020016941F00201016170474E
:100600003048704730480068000C70472E4800683A
:10061000C0F30B0070472C48416841F00101416074
:1006200070472948416821F0010141607047264820
:10063000416841F00201416070472348416821F060
:100640000201416070472048416841F00401416067
:1006500070471D48416821F0040141607047012046
:1006600090FAA0F1194AB1FA81F102EB8101C1F8C7
:10067000000470470020012191FAA1F1134AB1FA58
:1006800081F102EB8101C1F80004704701200102F1
:1006900091FAA1F10D4AB1FA81F142F821007047B7
:1006A0004FF4807191FAA1F1084AB1FA81F100206A
:1006B00042F8210070470000003C02402038024010
:1006C0001400002000020401002004E00000274282
:1006D0008A4A00F0070110684FF6FF03184040EA0D
:1006E00001208749084310607047F0B4834B1B68B2
:1006F000C3F30223C3F10704042C00D904241D1DF5
:10070000072D01D2002300E0DB1E012606FA04F5C6
:100710006D1E0D409D409E40761E164045EA060126
:10072000F0BC00F0DAB800F01F020121914040094E
:10073000800000F1E020C0F80011704700F01F02B7
:10074000012191404009800000F1E020C0F88011B3
:100750007047BFF34F8F69480168694A01F4E0614F
:10076000121D11430160BFF34F8F00BFFDE710B5AD
:10077000401EB0F1807F01D3012010BD4FF0E02476
:1007800060610F21601700F0A8F80020A061072029
:100790002061002010BD594A41788C3211600378E5
:1007A000111D0A1DE3B143680B60017BC37A090781
:1007B00041EA0361837A41EAC341437B41EA8341D1
:1007C000837B41EA4341C37B41EA0341437A41EAE7
:1007D0000321037A007841EA430101431160704725
:1007E000002008601060704744480068C0F3022091
:1007F0007047F0B5002806DA00F00F0000F1E020A5
:1008000090F8140D03E000F1E02090F800040409D2
:1008100001F00700C0F10701042900D90421051DDA
:10082000072D01D2002000E0C01E012724FA00F6A7
:1008300007FA01F56D1E2E4007FA00F56D1E2540E2
:1008400016601D60F0BD00F01F02012191404009BB
:10085000800000F1E020C0F80012704741098900D3
:1008600001F1E021D1F8001200F01F0201209040B8
:10087000014201D0012070470020704700F01F02A4
:10088000012191404009800000F1E020C0F8801271
:1008900070474109890001F1E021D1F8001300F00F
:1008A0001F0201209040014201D00120704700202A
:1008B00070474FF0E0210428086903D020F00400BD
:1008C0000861704740F00400FAE708B50020009086
:1008D00008BD10B5FFF7F9FF10BD0907090E002884
:1008E00006DA00F00F0000F1E02080F8141D7047D8
:1008F00000F1E02080F80014704700000CED00E0EB
:100900000000FA052DE9F84FDFF80893002209F1FD
:10091000040A0AF1040B4FF00F080BF1040E012634
:100920000B6896403340B34271D14C68022C01D021
:10093000122C11D1D40800EB84073D6A5407E40E51
:1009400008FA04FC25EA0C05D1F810C00CFA04FCE6
:100950004CEA050CC7F820C007685400032591F83D
:1009600004C0A5400CF0030CAF430CFA04FC4CEAA5
:10097000070CC0F800C04F68012F05D0022F03D02C
:10098000112F01D0122F11D18768D1F80CC0AF43BD
:100990000CFA04FC4CEA070CC0F808C04768B743DF
:1009A0000E79C6F3001696403E434660C668AE43D5
:1009B0008D68A5403543C5604C68E4006FD5964C02
:1009C000256845F480452560246822F0030504F479
:1009D00080440094914C2E19D6F808789407250F7E
:1009E00008FA05F4A7438E4CA04201D100242EE062
:1009F0008C4CA04201D1012429E08B4CA04201D1B2
:100A0000022424E0894CA04202D103241FE046E0E6
:100A1000874CA04201D1042419E0864CA04201D1A8
:100A2000052414E0844CA04201D106240FE0834C3D
:100A3000A04201D107240AE0814CA04201D1082440
:100A400005E0804CA04201D1092400E00A24AC401A
:100A50003C43C6F80848D9F800404D464E689C43D0
:100A6000F60300D51C432C60DAF8004055464E686A
:100A70009C43B60300D51C432C60DBF800405D4668
:100A80004E689C43F60200D51C432C60DEF8004003
:100A900075464E689C43B60200D51C432C60521C20
:100AA000102AFFF43CAFBDE8F88F2DE9F04FDFF8D6
:100AB0006CB100224FF0010A4FF00F080AFA02F55C
:100AC00001EA0503AB4272D1066857000324BC401B
:100AD000A6430660D60800EB8606D6F820C0570766
:100AE0004FEAD76908FA09F72CEA070CC6F820C0C4
:100AF0008668A64386604668AE434660C568A543DF
:100B0000C56022F003055D44D5F808489607370F05
:100B100008FA07F606EA040C414CA04201D1002471
:100B20002DE0404CA04201D1012428E03E4CA042DF
:100B300001D1022423E03D4CA04201D103241EE058
:100B40003B4CA04201D1042419E03A4CA04201D10F
:100B5000052414E0384CA04201D106240FE0374CA4
:100B6000A04201D107240AE0354CA04201D108245B
:100B700005E0344CA04201D1092400E00A24BC4025
:100B8000644514D1D5F80848B443C5F80848214C49
:100B900025689D432560241D25689D432560241DEF
:100BA00025689D432560251D2C689C432C60521CA4
:100BB000102A83D3BDE8F08F0069084000D00120DF
:100BC00070470AB1816170470904FBE742694A40F6
:100BD0004261704708B541F480320092C261C16140
:100BE0000099C161C1690091C069C00301D50020AD
:100BF00008BD012008BD08B50020009008BD0549CA
:100C000010B514310A68024202D00860FFF7F3FF02
:100C100010BD0000003C014044380240003001405B
:100C2000000002400004024000080240000C0240A4
:100C3000001002400014024000180240001C024054
:100C400000200240002402400120410270B591FAC8
:100C5000A1F1AF4AB1FA81F102EB8101C1F8800044
:100C6000FFF7B2FC04464FF47A76AA4D06E0FFF790
:100C7000ABFC001BB04201D9032070BD6868C043C3
:100C80000007F4D4002070BD4FF4007170B591FAE4
:100C9000A1F19F4AB1FA81F102EB81010020C1F874
:100CA0008000FFF791FC04464FF47A76994D06E0F8
:100CB000FFF78AFC001BB04201D9032070BD6868B1
:100CC000C0430007F4D5002070BD0120410291FA15
:100CD000A1F18F4AB1FA81F142F8210070474FF437
:100CE000007191FAA1F18A4AB1FA81F1002042F82B
:100CF000210070478748006800F440407047F8B50D
:100D0000074685480021026842F080520260006870
:100D100000F080500090804838380068C0F38100AF
:100D200002283AD07D4E3166FFF74EFC7A4D0446DC
:100D3000403D04E0FFF748FC001B642825D82868E4
:100D40008001F7D4734C206820F440403843206081
:100D5000206800F44040009001203066FFF734FC2A
:100D6000064604E0FFF730FC801B64280DD8286895
:100D70008001F7D5FFF728FC05464FF47A7606E0A8
:100D8000FFF722FC401BB04201D90320F8BD606888
:100D9000C0434004F4D40020F8BD0120F8BD2DE983
:100DA000F8435D48016841F0805101600068012707
:100DB00000F080500090380490FAA0F0DFF85081E5
:100DC000B0FA80F048F82070FFF7FEFB04464FF4BD
:100DD0007A75504E04E0FFF7F7FB001BA84213D8CA
:100DE0007068C003F7D54FF4003090FAA0F0B0FA65
:100DF00080F048F82070FFF7E7FB044607E0FFF7B4
:100E0000E3FB001BA84202D90320BDE8F883706809
:100E10008003F4D50020F8E72DE9F8433E484FF071
:100E20000008026842F0805202600068384F00F00B
:100E3000805000904FF4003090FAA0F0B0FA80F0AB
:100E400047F82080FFF7C0FB04464FF47A75314E17
:100E500004E0FFF7B9FB001BA84213D870688003B9
:100E6000F7D44FF4803191FAA1F1B1FA81F147F84A
:100E70002180FFF7A9FB044606E0FFF7A5FB001B56
:100E8000A84201D90320C0E77068C003F5D4002050
:100E9000BBE72DE9F84307461F488846016841F043
:100EA0008051016000681B4D00F080500090686820
:100EB00040F440206860286840F440202860FFF734
:100EC00083FB04464FF47A7606E0FFF77DFB001BB8
:100ED000B04201D9032098E76868C0F38140032835
:100EE000F3D0286840F603418843384328600C4813
:100EF000016841F004010160B8F1010F06D020BF84
:100F0000016821F00401016000207EE730BFF7E7AF
:100F100000000E420070004040380240000047428E
:100F200010ED00E070472DE9F84F04460078DFF837
:100F3000E8A3FA4DC0074FF0000648D0DAF80010D9
:100F40005046C1F38101012908D00068C0F3810037
:100F500002280AD1281D0068400206D528688003AF
:100F600035D56068002873D031E0DFF8B09309F11F
:100F7000020989F80060FFF727FB074641F288382D
:100F800004E0FFF721FBC11B41457AD828688003A4
:100F9000F7D4207989F80000606860B1FFF714FB8E
:100FA000074604E0FFF710FBC11B4145EDD8286858
:100FB0008003F7D50BE0FFF707FB074604E0FFF7D8
:100FC00003FBC11B4145E0D828688003F7D4207893
:100FD000DFF84C93800744D5DAF80010504611F042
:100FE0000C0F4FF0F80809D00068C0F38100022808
:100FF0000BD1C948001F0068400206D4286880074A
:1010000014D5E068012823D110E0E068D0B10120B8
:10101000C9F80000FFF7D8FA074604E0FFF7D4FA52
:10102000C01B6428B1D828688007F7D5286898FACB
:10103000A8F22169B2FA82F220F0F8009140084348
:1010400028600EE0C9F80060FFF7BEFA074605E029
:10105000EAE0FFF7B9FAC01B642812D828688007B5
:10106000F7D42078000725D5DFF8AC82AD48616958
:1010700008F16C0881B101210160FFF7A5FA07466C
:1010800005E07EE0FFF7A0FAC01B642879D8D8F805
:1010900000008007F6D50DE00660FFF795FA0746D9
:1010A00004E0FFF791FAC01B64286AD8D8F8000062
:1010B0008007F6D42078400753D597483830016828
:1010C00041F0805101600068DFF85C8200F08050E0
:1010D0000090D8F8001041F48071C8F80010FFF7B4
:1010E00073FA074604E0FFF76FFAC01B642848D87C
:1010F000D8F80000C005F6D5DFF81CB20BF1680B7C
:101100008BF80060FFF760FA074641F2883804E088
:10111000FFF75AFAC11B41457ED8DBF80000800773
:10112000F6D4207A8BF80000A06868B1FFF74CFA7B
:10113000074604E0FFF748FAC11B41456CD8DBF8CD
:1011400000008007F6D50CE0FFF73EFA074604E002
:10115000FFF73AFAC11B41455ED8DBF80000800773
:10116000F6D4A069F0B3DAF80010C1F381010229C6
:101170005AD0022806D0C9F86060FFF725FA044665
:101180004DE049E04F46C9F86060FFF71DFA06469A
:1011900004E0FFF719FA801B64283DD82868800115
:1011A000F7D4D4E90701084347F6C07191FAA1F1D9
:1011B000626AB1FA81F18A40A16A4FF0FF3303EB12
:1011C00051014FF4403393FAA3F3B3FA83F39940F8
:1011D0000A4310434FF0706292FAA2F2B2FA82F21E
:1011E000E16A00E01EE0914008434B49091F086096
:1011F00001203866FFF7E8F9044604E0FFF7E4F958
:10120000001B642808D828688001F7D50AE0FFF79A
:10121000DBF9001B642802D90320BDE8F88F286899
:101220008001F4D40020F8E70120F6E72DE9F05F13
:10123000DFF8F8A004460F46DAF80000DFF8D8809F
:1012400000F00F02C8B23549814641F28836BA42F1
:101250006ED202468AF80020DAF8000000F00F0093
:10126000B8427DD12078800707D5D8F80020A36840
:1012700022F0F0021A43C8F800202078C0072DD0D1
:10128000606801281AD002281BD0032819D00968E9
:101290008907002964DAD8F80010474621F00301D5
:1012A0000143C8F80010FFF78FF905466068012870
:1012B0000FD0022818D003281CD027E00968890322
:1012C000E7E709688901E4E7FFF77EF9401BB042D0
:1012D00065D83868C0F381000128F5D195E0FFF7A3
:1012E00073F9401BB0425AD83868C0F38100022815
:1012F000F5D18AE03868FFF767F9401BB042F9D9A9
:101300004DE0FFF761F9401BB04248D8386810F053
:101310000C0FF6D179E00BE00838024000380240AB
:1013200000004742800E474200700040003C0240EF
:101330002078800707D5D8F80020A36822F0F002B3
:101340001A43C8F800202078C0074CD060680128F4
:1013500028D0022829D0032827D00968890700E06F
:1013600049E0002947DAD8F8002022F003020243BE
:10137000C8F80020FFF728F90546606801281DD04D
:10138000022829D0032838D0B3464646306810F0EA
:101390000C0F28D0FFF718F9411B5945F6D9032047
:1013A000BDE8F09F09688903D9E709688901D6E794
:1013B000FFF70AF9411B594502D9F0E7B346464603
:1013C0003068C0F381000128F2D10CE0FFF7FCF88F
:1013D000411B594502D9E2E7B34646463068C0F39F
:1013E00081000228F2D18AF80090DAF8000000F0BB
:1013F0000F00B84209D00120D2E744462068FFF729
:10140000E3F8401BB042F9D9C9E72078400707D577
:10141000D8F80010E26821F4E0511143C8F8001038
:101420002078000708D5D8F80010226921F460411F
:1014300041EAC201C8F800100F20FFF77BF8002036
:10144000AEE7F0B5A74E15460C46A64B002102228A
:101450000327283E0028186887B019D040F0040000
:101460001860186800F00400059010020090CDE9A3
:101470000121CDE9037169469B48FFF743FA3068C3
:1014800044EAC50120F078400843306007B0F0BD61
:1014900040F001001860186800F0010005904FF45A
:1014A00080700090CDE90121CDE9037169468F4834
:1014B000FFF728FA30682C4320F0EC602043E4E783
:1014C0008B490120C864704789490020C86470476F
:1014D000844830B52838006810F00C01854812D0D7
:1014E000854C04290ED008290DD17E4A2C3A11686A
:1014F000136801F03F015D0247F6C07304D5B4FBE9
:10150000F1F003E0204630BDB0FBF1F01168194066
:1015100093FAA3F3B3FA83F3D940484311684FF425
:10152000403292FAA2F201F44031B2FA82F2D14092
:10153000491C4900B0FBF1F030BD10B5FFF7C8FF02
:10154000684928390968F02292FAA2F201F0F00104
:10155000B2FA82F2D140694A515CC84068490860D9
:1015600010BD10B5FFF7E9FF5E49283909684FF44F
:10157000E05292FAA2F201F4E051B2FA82F2D140C2
:101580005E4A515CC84010BD10B5FFF7D6FF554903
:10159000283909684FF4604292FAA2F201F46041DE
:1015A000B2FA82F2D140554A515CC84010BD70B5C4
:1015B0004C4B0F21303B016019684FF005054C037F
:1015C0004FF000024FF0010101D5456005E01C68B5
:1015D000E40301D5416000E042601C68E40701D0EB
:1015E000C16000E0C2601C68F82696FAA6F604F016
:1015F000F804B6FA86F6F44004613A4C40342668A2
:10160000760701D5856005E02468E40701D0816094
:1016100000E08260334C44342468E40701D0416127
:1016200000E042611A68D20100D5022181612D4992
:101630002C390A6802F48002C2610A6802F03F0293
:1016400002620A6847F6C0731A4093FAA3F3B3FA2A
:1016500083F3DA4042620A684FF4403302F44032C6
:1016600002F5803293FAA3F35200B3FA83F3DA401F
:10167000826209684FF0706292FAA2F201F0706122
:10168000B2FA82F2D140C16270BD0F220260154AE7
:10169000283A136803F003034360136803F0F00370
:1016A0008360136803F4E053C36012684FF4E0539F
:1016B00003EAD20202611348006800F00F000860DC
:1016C000704708B50020009008BD064810B52438C2
:1016D0000068000605D5FFF7F4FF02498020223993
:1016E000087010BD3038024000080240000002407F
:1016F000000047420024F40040787D0106130108F1
:1017000000000020003C0240E94810B5016841F0AB
:1017100081010160E64A0021083211600268E54B50
:101720001A400260021D11601368E34C23431360EA
:10173000DF4A843211601368E04C2343136002686F
:1017400022F480220260DA480C30016010BD2DE9DD
:10175000F84F04460068DFF86883D54DC10747F6A7
:10176000C07A4FF0E0464FF0010B4FF0000901D175
:1017700080074BD5D349C1F86890FEF725FF07468F
:1017800004E0FEF721FFC01B64287DD82868000113
:10179000F7D42078CC49C0070DD09AFAAAF2606835
:1017A000B2FA82F2904096FAA6F3A268B3FA83F3F3
:1017B0009A40104308602078800718D5086896FA88
:1017C000A6F200F0E040B2FA82F2D0406268237BD9
:1017D000920142EA036242EA00700860D8F8001001
:1017E000E26921F01F01521E1143C8F80010B549EB
:1017F000C1F868B0FEF7E8FE074604E0FEF7E4FE35
:10180000C01B642840D828680001F7D5206841072C
:1018100001D4000776D5AB49C1F87090FEF7D4FE2D
:10182000074604E0FEF7D0FEC01B64282CD82868C9
:10183000C0438000F6D52078A44F40074FF0706C6D
:1018400029D5386896FAA6F100F0E040B1FA81F1A6
:10185000C8409AFAAAF22169B2FA82F291409CFA3F
:10186000ACF36269B3FA83F39A40114396FAA6F295
:10187000B2FA82F2904001433960D8F800106FF05C
:10188000FF0321F4F85100E07AE0226A03EB022220
:101890001143C8F800102078000723D538689CFA57
:1018A000ACF100F07060B1FA81F1C8409AFAAAF286
:1018B0002169B2FA82F291409CFAACF2B2FA82F259
:1018C0009040014396FAA6F2A069B2FA82F29040E3
:1018D00001433960D8F80010626A21F440311143A5
:1018E000C8F800107749C1F870B0FEF76DFE0646E3
:1018F00004E0FEF769FE801B642841D82868C043D5
:101900008000F6D42078800651D569484F46403093
:10191000016841F08051016000686D4E00F0805018
:101920000090306840F480703060FEF74DFE054650
:1019300004E0FEF749FE401B642821D83068C0054A
:10194000F7D5614E143E3068218D00F4407001F4EB
:10195000407188422BD030685E4920F44070C1F855
:1019600000B00F603060800710D5FEF72DFE0546F1
:1019700041F2883707E0FEF727FE401BB84202D944
:101980000320BDE8F88F30688007F4D5A06A484985
:10199000C0F301220831032A13D0086820F4F8109C
:1019A00008603068218DC1F30B0108433060207856
:1019B000C00604D5484994F82C00C1F8E001002085
:1019C000DFE70A68454B22F4F812184002430A6028
:1019D000E7E730B53C4A3F210160136847F6C07124
:1019E00091FAA1F40B40B4FA84F4E3404360136825
:1019F0004FF0E04494FAA4F503F0E043B5FA85F51E
:101A0000EB40836012684FF0706595FAA5F302F021
:101A10007062B3FA83F3DA40C2602C4A13680B4059
:101A200091FAA1F1B1FA81F1CB400361116894FA06
:101A3000A4F301F0E041B3FA83F3D9408161116866
:101A400095FAA5F201F07061B2FA82F2D1404161DB
:101A50001B490A681F2393FAA3F302F01F02B3FA8B
:101A600083F3DA40C2610A684FF4F85393FAA3F3A0
:101A700002F4F852B3FA83F3DA4002620A6802F41D
:101A8000403242620A4A083212680F4B02F4F812DE
:101A9000143B1B6803F44073134383620968C90154
:101AA00001D4002100E0012180F82C1030BD00009D
:101AB00000380240FFFFF6FA10300004003000202A
:101AC0008C38024000004742843802408838024087
:101AD00000700040400E474200104742FFFCFF0FDD
:101AE0002DE9F041044600680169E26821F44051A3
:101AF0000A4302612068C16849F20C62914323697C
:101B0000A268E5691A4363692B431A430A43C2601A
:101B10002068416921F44072A16911434161E06983
:101B200064263225B0F5004FFB4AFC4920681DD0E1
:101B3000884201D0904269D1FFF726FD00EBC00139
:101B400001EB00106168B0468900B0FBF1F1B1FB18
:101B5000F8F6FFF719FD00EBC00101EB001061681A
:101B60008900B0FBF1F7FFF70FFD68E0884201D074
:101B7000904219D1FFF708FD00EBC00101EB001006
:101B80006168B0464900B0FBF1F1B1FBF8F6FFF730
:101B9000FBFC00EBC00101EB001061684900B0FBE9
:101BA000F1F7FFF7F1FC18E0FFF7DBFC00EBC001F9
:101BB00001EB00106168B0464900B0FBF1F1B1FBE8
:101BC000F8F6FFF7CEFC00EBC00101EB00106168F6
:101BD0004900B0FBF1F7FFF7C4FC00EBC00101EBDB
:101BE000001061684900B0FBF1F1B1FBF8F06FF053
:101BF0001801484307EB800005EB0011B1FBF8F03A
:101C0000216866F31F108860BDE8F081FFF7A9FC2A
:101C100000EBC00101EB00106168B0468900B0FB29
:101C2000F1F1B1FBF8F6FFF79CFC00EBC00101EB12
:101C3000001061688900B0FBF1F7FFF792FC00EB40
:101C4000C00101EB001061688900CCE7704770B5F6
:101C5000040004D094F83900002510B106E00120FA
:101C600070BD84F83850204604F0CEFD022084F880
:101C700039002068C16821F40051C1602046FFF797
:101C80002FFF2068016921F49041016120684169BA
:101C900021F02A0141612068C16841F40051C1600E
:101CA000E563012084F83900002070BD70B50400A0
:101CB00004D094F83900002510B106E0012070BD71
:101CC00084F83850204604F09FFD022084F8390043
:101CD0002068C16821F40051C1602046FFF700FF71
:101CE0002068016921F4904101612068416921F077
:101CF000220141612068416941F008014161206889
:101D0000C16841F40051C160E563012084F83900E5
:101D1000002070BD70B50E46040004D094F8390060
:101D2000002510B106E0012070BD84F8385020462F
:101D300004F06AFD022084F839002068C16821F4AB
:101D40000051C1602046FFF7CBFE2068016921F4F5
:101D5000006101612068416921F02A014161206828
:101D6000016941F4804101612068016921F020018D
:101D7000016120680169314301612068C16841F453
:101D80000051C160E563012084F83900002070BD76
:101D90002DE9F04116460F46040004D094F83900AE
:101DA000002510B106E001202EE784F838502046C7
:101DB00004F02AFD022084F839002068C16821F46B
:101DC0000051C1602046FFF78BFE2068016921F4B5
:101DD000904101612068416921F02A014161206838
:101DE000016921F00F010161206801693943016136
:101DF0002068C16821F40061C1602068C168314376
:101E0000C1602068C16841F40051C160E5630120F0
:101E100084F839000020F7E6704710B504000CD0B4
:101E2000022084F839002046FFF7F6FF0020E06327
:101E300084F8390084F8380010BD012010BD2DE968
:101E4000F0471D4690460F460446FEF7BDFB06468A
:101E50005FEA08004FF000094FF0010808D030E0B9
:101E6000681C05D095B1FEF7AFFB801BA8420DD8CA
:101E70002068006837EA0000F2D127E0681C20D013
:101E800025B1FEF7A1FB801BA8421AD92068C168C2
:101E900021F08001C1602068C16821F02001C1608B
:101EA0002068C16821F48071C1602068416921F017
:101EB0000101416184F8398084F838900320BDE83D
:101EC000F0872068006837EA0000D7D00020F6E7E6
:101ED0002DE9F047044690F8390099460D4601284F
:101EE00001D022285AD14DB342B394F838000128CA
:101EF00054D0012684F838600027E76394F839004D
:101F000022281DD0122084F83900A284E2844FF4E4
:101F10008058E08C401E03E0001401400010014096
:101F2000E084A0684B4640454FF000024FF080012E
:101F3000204612D1FFF783FF00BB03E00120BEE77C
:101F40003220E0E728882168C0F308004860206953
:101F500008B16D1C08E0AD1C06E0FFF770FF68B922
:101F6000216815F8010B4860E08C0028D1D14B4660
:101F7000002240212046FFF762FF08B103209EE7C0
:101F800094F83900322805D084F8396084F8387024
:101F9000002094E7222084F83900F7E702208EE73A
:101FA0002DE9F047044690F8390099460D4601287E
:101FB00001D0122856D125B31AB394F8380001285D
:101FC00050D0012684F838600027E76394F8390080
:101FD000122818D0222084F83900A285E2854FF417
:101FE0008058E08D4B46401EE085A0684FF000020F
:101FF00040454FF02001204615D1FFF720FFA8B93A
:1020000003E001205BE73220E5E720690028206833
:10201000406803D0C1B225F8011B12E0C0F30801EB
:1020200025F8021B0DE0FFF70AFF08B1032046E781
:10203000206900282068406801D000F07F0005F882
:10204000010BE08D0028CCD194F83900322805D05E
:1020500084F8396084F83870002030E7122084F862
:102060003900F7E702202AE790F83930012B01D038
:10207000222B21D1E1B1DAB190F83830012B1BD0FD
:10208000012380F8383001628284C2840021C16358
:1020900090F83920222A0DD0122280F8392080F8B9
:1020A00038100068C16841F08001C16000207047AD
:1020B000012070473222F0E70220704790F8393053
:1020C000012B01D0122B2BD131B32AB390F8383029
:1020D000012B25D0012380F8383081628285C285AA
:1020E0000022C26390F83910122917D0222180F8FB
:1020F00039100168CB6843F48073CB6001684B6989
:1021000043F001034B6180F838200068C16841F05A
:102110002001C16000207047012070473221E6E7AE
:1021200002207047704710B5806B0021C185C184C3
:10213000012180F83910C16B41F01001C163FFF734
:10214000F1FF10BD704710B5806BFFF7FBFF10BDAE
:10215000704710B50146806B09680968C9050CD441
:102160000021C18401684A6922F080024A61006846
:10217000C16841F04001C16010BDFFF7E9FF10BD2B
:10218000F7B5044690F83900012801D0222837D14C
:10219000019981B37AB394F83800012830D0012036
:1021A00084F838002162A284E2840025E56394F873
:1021B0003900222822D0122084F83900236BF748F6
:1021C000D863236BF6481864236BF648986420683C
:1021D0001346266B021D304600F00FFB21686FF09E
:1021E000400008602068416941F08001416184F845
:1021F00038500020FEBDFFE70120FBE73220DBE77F
:102200000220F7E7704710B5806BFFF7FBFF10BDAA
:10221000704710B50146806B09680968C9050DD47F
:102220000021C18501684A6922F040024A6190F8A4
:102230003910322905D0012180F83910FFF7E8FF65
:1022400010BD1221F8E737B5044690F8390013465F
:10225000012801D012282FD1019A4AB343B394F830
:102260003800012828D0012084F83800A262A38514
:102270000025E56394F8390012281BD0222084F849
:102280003900616BC848C863616BC8480864616BFA
:10229000C44888642168606B091D00F0AEFA2068AC
:1022A000416941F04001416184F8385000203EBD51
:1022B00001203EBD3220E2E702203EBD90F83810FA
:1022C00001290FD0012180F8381090F83910122917
:1022D0000AD090F8391022290BD090F83910322901
:1022E00011D00BE00220704701684A6922F0800299
:1022F00003E001684A6922F040024A61002180F847
:1023000038100846704701684A6922F080024A6125
:10231000EFE708B590F83810012910D0012180F8B6
:10232000381090F83910002212290AD090F839108C
:1023300022290BD090F8391032290CD018E0022055
:1023400008BD01684B6943F0800310E001680B6829
:102350004B68009308E001680B684B6800934B6979
:1023600043F080034B6101684B6943F040034B61CC
:1023700080F83820002008BD10B504460068416987
:1023800021F0800141612068416921F040014161F3
:10239000206B08B100F058FA606B08B100F054FAF5
:1023A000012084F83900002010BD38B501680446CA
:1023B0000868CA68C0F3000002F4807238B132B114
:1023C000086848680090E06B40F00100E06308682E
:1023D0004A69C0F3400002F0010238B132B1086826
:1023E00048680090E06B40F00400E06308684A69C8
:1023F000C0F3800002F0010238B132B108684868C9
:102400000090E06B40F00200E06308684A69C0F3A6
:10241000C00002F0010238B132B10868486800908B
:10242000E06B40F00800E0630868C968C0F3401042
:1024300001F0200118B111B1204600F0E4F8206845
:102440000168C068C1F3C01100F0800019B110B17B
:10245000204600F09BF821680868CA68C0F3801025
:1024600002F04002012568B162B1CA68204622F03C
:102470004002CA6094F8391032290CD080F83950E3
:10248000FFF766FEE06B002804D084F83950204640
:10249000FFF748FE38BD222180F83910F0E790F8A8
:1024A000381001290FD0012200F8382F0221417085
:1024B00050F8381CCB6843F00103CB604270002118
:1024C0000170084670470220704790F838100129C3
:1024D0000FD0012200F8382F0221417050F8381C2B
:1024E000CB6843F00203CB604270002101700846C4
:1024F00070470220704790F8381001290FD0012250
:1025000000F8382F0221417050F8381CCB6823F0B6
:102510000203CB6042700021017008467047022020
:10252000704790F83810012911D0012300F8383F86
:102530000221417050F8381CCA6822F00C0242F0A7
:102540000802CA60437000210170084670470220EB
:10255000704790F83810012911D0012300F8383F56
:102560000221417050F8381CCA6822F00C0242F077
:102570000402CA60437000210170084670470220BF
:10258000704790F839007047C06B704790F8391069
:1025900012290DD032290BD0022070475321000898
:1025A00047210008272100081322000807220008FD
:1025B0008168B1F5805F016A0BD04A1C0262026833
:1025C00009785160C18C491E0904090CC1840ED0E0
:1025D00017E009880268C1F3080151600169002908
:1025E000016A02D0491C0162ECE7891CFBE7016823
:1025F000CA6822F08002CA600068C16841F04001E8
:10260000C1600020C9E710B590F83910222903D025
:10261000322901D0022010BD8168B1F5805F11D050
:102620000169002901681FD0496801F07F03816AB0
:102630004A1C82620B70C18D491E0904090CC185B8
:1026400018D02FE00269816A002A0268526805D01A
:10265000D2B20A80816A491C8162ECE7C2F30802A7
:102660000A80816A891CF7E74A68816A4B1C836289
:102670000A70E0E70168CA6822F02002CA6090F898
:102680003910322910D00168CA6822F48072CA60F9
:1026900001684A6922F001024A61012180F839107B
:1026A000FFF7B6FD002010BD1221F7E701681823DF
:1026B000CAB2103AB2FBF3F2FE4B6FF30901032AE0
:1026C0009B5C436500D9091D01650846704770B5DC
:1026D00004001AD00220636A84F8350021680A6871
:1026E000F5480240D4E901052843D4E903563543AF
:1026F000284365692843A5692843E5692843256A75
:1027000028431043042B02D005E0012070BDD4E91A
:102710000B231A431043086022685069616A20F055
:1027200007000843042901D1A16A084350612046EB
:10273000FFF7BCFF0020E064012084F83500002092
:1027400070BD70B5040025D094F83500022821D062
:102750002068016821F00101016020680025056002
:1027600020684560206885602068C5602068056134
:102770002168212048612046FFF798FF94F85420F3
:102780003F2191408160E56484F8355084F83450ED
:10279000002070BD012070BD30B50468256825F4A7
:1027A00080252560046863608368402B036803D03C
:1027B00099600068C26030BD9A600068C16030BD39
:1027C00070B5044690F83400012814D0012084F834
:1027D0003400022084F835002068056825F00105E2
:1027E00005602046FFF7D8FF2068016841F001012D
:1027F0000160002070BD022070BD70B5044690F8E5
:10280000340001281ED0012084F83400022084F80E
:1028100035002068056825F0010505602046FFF7B2
:10282000BBFF2068016841F01E010160206841691A
:1028300041F0800141612068016841F001010160BF
:10284000002070BD022070BD2DE9F04104460068F3
:10285000016821F001010160FDF7B6FE0546002682
:102860004FF47A770FE0FDF7AFFE401BB8420AD96C
:1028700054F84C0F40F0200044F81809032026704B
:102880006070BDE8F08120680068C007EBD104F8F3
:10289000346F012060700020F3E72DE9F74F044604
:1028A000056D0199406D164659B110278740FDF717
:1028B0008BFE80464FF0000B4FF00809DFF8FCA1BB
:1028C00052E02027F2E72B6894F8540009FA00F14F
:1028D0000B4029680AFA00F211402A68DFF8DCC1CF
:1028E0000CF1030C0CFA00FC02EA0C0243EA0100B2
:1028F000104326D043B1E06C40F00100E06494F84E
:10290000543009FA03F0A86041B1E06C40F00200D5
:10291000E06494F854100AFA01F0A8604AB1E06C3F
:1029200040F00400E064654894F85410C01C8840EE
:10293000A860042084F8350084F834B00120BDE894
:10294000FE8F701C10D02EB1FDF73EFEA0EB0800EC
:10295000B04209D9E06C40F02000E064032084F824
:10296000350084F834B0EAE728683842ABD094F8F0
:102970005410019890B110208840A8602068016828
:102980004A034FF0310121D5026812031ED50068B9
:1029900000031DD5412084F8350019E0302088401F
:1029A000A860206801684A034FF0110102D502684F
:1029B000120302D484F8351005E00068000302D544
:1029C000212084F8350084F834B001E084F8351013
:1029D0000020B4E72DE9F041056D0446286894F81D
:1029E0005420082101FA02F210424FF004074FF080
:1029F000000617D020680268520713D5026822F03B
:102A00000402026094F854008140A960E06C40F038
:102A10000100E06484F8357084F83460A16C09B179
:102A200020468847286894F85430244A02FA03F173
:102A3000084218D020684169090614D5416921F07F
:102A40008001416194F8540002FA00F1A960E06C41
:102A500040F00200E06484F8357084F83460A16CC2
:102A600009B1204688472868144A94F85430D21C8B
:102A700002FA03F1084218D020680168890714D5CA
:102A8000016821F00201016094F8540002FA00F19B
:102A9000A960E06C40F00400E06484F8357084F8CC
:102AA0003460A16C09B120468847286894F85430F6
:102AB000102205E0161301083F8010F0010080008D
:102AC00002FA03F108421AD0206803681B0716D5E2
:102AD00003685F034FF0310327D5A96020680168C0
:102AE000090302D484F8353005E00068000302D5FC
:102AF000412084F83500216C09B1204688472868B8
:102B000094F85430202202FA03F1084236D02068AB
:102B10000368DB0632D503685B031CD5A960206817
:102B2000016809030DD4616C0FE00168C90503D485
:102B3000016821F00801016094F854008240AA6005
:102B4000D0E70068000319D5E16B002916D02046B4
:102B5000BDE8F04108470168C90503D4016821F0C8
:102B60001001016094F854008240AA60E06CE064B7
:102B7000112084F8350084F83460E5E781E690F8A8
:102B800035007047C06C7047F0B50268FD4DFE4ED1
:102B9000FE4FDFF8FCC3FF4B4FF0804EA84209D038
:102BA000704507D0B04205D0B84203D0604501D08F
:102BB000984203D122F070044A682243A8421BD0F5
:102BC000704519D0B04217D0B84215D0604513D027
:102BD000984211D0F04CA0420ED0F04CA0420BD045
:102BE000EF4CA04208D0EF4CA04205D0EE4CA042E2
:102BF00002D0EE4CA04203D122F44074CA682243B2
:102C000002608A68C2620A688262A84201D0984261
:102C100001D10969016301214161F0BD704710B51F
:102C2000040003D094F8390010B107E0012010BD72
:102C3000002084F838002046FFF7F0FF022084F8D7
:102C40003900211D2068FFF79FFF012084F839001B
:102C5000002010BD704710B50446022084F83900EA
:102C60002068016A41F21112114207D1016A9210E3
:102C7000114203D1016821F0010101602046FFF7F4
:102C8000E9FF002084F8390084F8380010BD0221E3
:102C900080F8391001680A6842F001020A600121D7
:102CA00080F8391000207047022180F8391001683F
:102CB0000A6A41F211131A4207D10A6A9B101A429A
:102CC00003D10A6822F001020A60012180F839105C
:102CD000002070470168CA6842F00102CA600068BB
:102CE000016841F001010160002070470168CA6875
:102CF00022F00102CA600068016A41F21112114219
:102D000007D1016A9210114203D1016821F001013B
:102D1000016000207047704710B5806B012180F87A
:102D20003910FFF7F8FF10BD704710B5806B012117
:102D300080F83910FFF7F8FF10BD70B5044690F821
:102D40003900022805D094F83900012805D109B9C5
:102D500002B170BD022084F83900E3699448D86359
:102D6000AFF24B00E36998642568134605F12C0225
:102D7000E069FFF742FD2068C16841F48071C160DD
:102D80002068016841F001010160002070BD016808
:102D9000CA6822F48072CA6001680A6A41F211139B
:102DA0001A4207D10A6A9B101A4203D10A6822F01C
:102DB00001020A60012180F8391000207047704735
:102DC00010B5040003D094F8390010B107E00120D9
:102DD00010BD002084F838002046FFF7F0FF0220E5
:102DE00084F83900211D2068FFF7CEFE012084F809
:102DF0003900002010BD704710B50446022084F849
:102E000039002068016A41F21112114207D1016AAA
:102E10009210114203D1016821F0010101602046A6
:102E2000FFF7E9FF002084F8390084F8380010BD6E
:102E300010B50123046A8B409C430462036A8A40F4
:102E40001343036210BD10B5044600680122FFF76A
:102E5000EFFF4C482168814202D04E48814203D1A5
:102E6000486C40F4004048642068016841F001016A
:102E70000160002010BD10B5044600680022FFF775
:102E8000D7FF404841F2111221689310814202D0CD
:102E90004048814209D1086A104206D1086A1842A6
:102EA00003D1486C20F4004048642068016A114254
:102EB00006D1016A194203D1016821F001010160C4
:102EC000002010BD10B50268044631B1042908D0B5
:102ED000082920D00C2908D121E0D06840F0020058
:102EE00002E0D06840F00400D06001222068FFF7C3
:102EF0009FFF24492068884202D02649884203D196
:102F0000416C41F4004141642068016841F00101D5
:102F10000160002010BDD06840F00800E4E7D068F0
:102F200040F01000E0E710B50268044631B1042912
:102F300008D0082948D00C2908D149E0D06820F0F1
:102F4000020002E0D06820F00400D0600022206877
:102F5000FFF76EFF0B4841F2111221689310814276
:102F600002D00C48814209D1086A104206D1086A91
:102F7000184203D1486C20F4004048642068016A7C
:102F8000114217E00000014000040040000800402A
:102F9000000C00400004014000400140004401409A
:102FA0000048014000180040001C00400020004084
:102FB0002B2D000806D1016A194203D1016821F0C6
:102FC00001010160002010BDD06820F00800BCE7BE
:102FD000D06820F01000B8E7704710B5846B01216D
:102FE00084F83910226A824201D121760EE0616AAA
:102FF000814201D1022008E0A16A814201D104206E
:1030000003E0E16A814201D1082020762046FFF7E3
:10301000E3FF0020207610BD70B5044690F839001B
:1030200016460D46022805D094F83900012805D12E
:103030000EB903B170BD022084F83900AFF265000B
:10304000AFF22B3135B1042D13D0082D37D00C2D14
:103050001ED143E0226AD063206A8164226831462F
:103060003432206AFFF7C9FB2068C16841F400715F
:103070000DE0626AD063606A81642268314638324A
:10308000606AFFF7BAFB2068C16841F48061C160E3
:10309000012229462068FFF7CBFEFE4920688842BE
:1030A00002D0FD49884203D1416C41F400414164A2
:1030B0002068016841F001010160002070BDA26A32
:1030C000D063A06A8164226831463C32A06AFFF76F
:1030D00094FB2068C16841F40061D8E7E26AD063DC
:1030E000E06A8164226831464032E06AFFF785FB7E
:1030F0002068C16841F48051C9E710B502680446F0
:1031000031B1042908D0082932D00C2908D133E084
:10311000D06820F4007002E0D06820F48060D060B5
:1031200000222068FFF784FEDA4841F2111221687C
:103130009310814202D0D848814209D1086A1042D6
:1031400006D1086A184203D1486C20F40040486454
:103150002068016A114206D1016A194203D101684F
:1031600021F001010160012084F83900002010BD28
:10317000D06820F40060D2E7D06820F48050CEE719
:10318000704710B5040003D094F8390010B107E07F
:10319000012010BD002084F838002046FFF7F0FF22
:1031A000022084F83900211D2068FFF7EDFC012082
:1031B00084F83900002010BD704710B50446022085
:1031C00084F839002068016A41F21112114207D1D6
:1031D000016A9210114203D1016821F001010160DE
:1031E0002046FFF7E9FF002084F8390084F8380012
:1031F00010BD10B5044600680122FFF719FEA5486E
:103200002168814202D0A448814203D1486C40F435
:10321000004048642068016841F00101016000201D
:1032200010BD10B5044600680022FFF701FE994862
:1032300041F2111221689310814202D096488142D6
:1032400009D1086A104206D1086A184203D1486CB5
:1032500020F4004048642068016A114206D1016AE6
:10326000194203D1016821F001010160012084F8B5
:103270003900002010BD10B50268044631B10429A0
:1032800008D0082920D00C2908D121E0D06840F0CE
:10329000020002E0D06840F00400D0600122206803
:1032A000FFF7C6FD7B492068884202D07A498842F0
:1032B00003D1416C41F4004141642068016841F050
:1032C00001010160002010BDD06840F00800E4E773
:1032D000D06840F01000E0E710B50268044631B154
:1032E000042908D008292FD00C2908D130E0D06853
:1032F00020F0020002E0D06820F00400D06000223C
:103300002068FFF795FD634841F211122168931080
:10331000814202D06048814209D1086A104206D138
:10332000086A184203D1486C20F4004048642068C1
:10333000016A114206D1016A194203D1016821F0E4
:1033400001010160002010BDD06820F00800D5E721
:10335000D06820F01000D1E770B5044690F839002D
:1033600016460D46022805D094F83900012805D1EB
:103370000EB903B170BD022084F83900AFF2A53058
:10338000AFF26B6135B1042D13D0082D37D00C2D61
:103390001ED143E0226AD063206A816422683146EC
:1033A0003432206AFFF729FA2068C16841F40071BD
:1033B0000DE0626AD063606A816422683146383207
:1033C000606AFFF71AFA2068C16841F48061C16041
:1033D000012229462068FFF72BFD2E4920688842EC
:1033E00002D02D49884203D1416C41F4004141642F
:1033F0002068016841F001010160002070BDA26AEF
:10340000D063A06A8164226831463C32A06AFFF72B
:10341000F4F92068C16841F40061D8E7E26AD0633A
:10342000E06A8164226831464032E06AFFF7E5F9DC
:103430002068C16841F48051C9E710B502680446AC
:1034400031B1042908D0082937D00C2908D138E037
:10345000D06820F4007002E0D06820F48060D06072
:1034600000222068FFF7E4FC0A4841F211122168AB
:103470009310814202D00848814209D1086A104263
:1034800006D1086A184203D1486C20F40040486411
:10349000206803E00000014000040140016A11427D
:1034A00006D1016A194203D1016821F001010160CE
:1034B000012084F83900002010BDD06820F400609D
:1034C000CDE7D06820F48050C9E7704710B50400FC
:1034D00003D094F8390010B107E0012010BD00209E
:1034E00084F838002046FFF7F0FF022084F8390006
:1034F000211D2068FFF748FB012084F839000020D7
:1035000010BD704710B50446022084F839002068C9
:10351000016A41F21112114207D1016A921011425F
:1035200003D1016821F0010101602046FFF7E9FFA6
:10353000002084F8390084F8380010BD10B5044626
:1035400000680122FFF774FC2068016841F0010166
:103550000160002010BD10B5044600680022FFF78E
:1035600067FC2068016A41F21112114207D1016A19
:103570009210114203D1016821F001010160002085
:1035800010BD10B50268044631B1042908D00829DD
:1035900015D00C2908D116E0D06840F0020002E0F6
:1035A000D06840F00400D06001222068FFF740FCA2
:1035B0002068016841F001010160002010BDD06861
:1035C00040F00800EFE7D06840F01000EBE710B5DE
:1035D0000268044631B1042908D008291ED00C29FC
:1035E00008D11FE0D06820F0020002E0D06820F08F
:1035F0000400D06000222068FFF71AFC2068016AEE
:1036000041F21112114207D1016A9210114203D105
:10361000016821F001010160002010BDD06820F098
:103620000800E6E7D06820F01000E2E7704710B528
:10363000846B012184F83910226A824201D12176FB
:103640000EE0616A814201D1022008E0A16A814254
:1036500001D1042003E0E16A814201D108202076F3
:103660002046FFF7E3FF0020207610BD70B504462A
:1036700090F839000D46022805D094F83900012849
:1036800005D10AB903B170BD022084F83900AFF248
:103690006100AFF67B1135B1042D12D0082D2AD070
:1036A0000C2D1CD135E0266AF063206A8164216804
:1036B000206A3431FFF7A1F82068C16841F4007135
:1036C0000CE0666AF063606A81642168606A383180
:1036D000FFF793F82068C16841F48061C16001225E
:1036E00029462068FFF7A4FB2068016841F001012A
:1036F0000160002070BDA66AF063A06A8164216841
:10370000A06A3C31FFF779F82068C16841F4006194
:10371000E4E7E66AF063E06A81642168E06A4031C8
:10372000FFF76BF82068C16841F48051D6E710B507
:103730000268044631B1042908D0082921D00C2997
:1037400008D122E0D06820F4007002E0D06820F4B4
:103750008060D06000222068FFF76AFB2068016A61
:1037600041F21112114207D1016A9210114203D1A4
:10377000016821F001010160012084F83900002076
:1037800010BDD06820F40060E3E7D06820F48050DA
:10379000DFE7704770B50D46040003D094F8390098
:1037A00010B107E0012070BD002084F838002046E9
:1037B000FFF7EFFF022084F83900211D2068FFF792
:1037C000E3F92068016821F00801016020680168C0
:1037D00029430160012084F83900002070BD704742
:1037E00010B50446022084F839002068016A41F2CD
:1037F0001112114207D1016A9210114203D10168DE
:1038000021F0010101602046FFF7E9FF002084F864
:10381000390084F8380010BD10B504460068012254
:103820000021FFF705FB012204212068FFF700FBC0
:10383000F9492068884202D0F849884203D1416C96
:1038400041F400414164002010BD10B5044600223F
:1038500000681146FFF7ECFA002204212068FFF708
:10386000E7FAED4841F2111221689310814202D02B
:10387000EA48814209D1086A104206D1086A184212
:1038800003D1486C20F4004048642068016A11426A
:1038900006D1016A194203D1016821F001010160DA
:1038A000002010BD10B504460068C16841F0020157
:1038B000C1602068C16841F00401C160012200219B
:1038C0002068FFF7B5FA012204212068FFF7B0FA5B
:1038D000D1492068884202D0D049884203D1416C46
:1038E00041F400414164002010BD10B50446006859
:1038F000C16821F00201C1602068C16821F00401A3
:10390000C160002211462068FFF792FA00220421CC
:103910002068FFF78DFAC04941F211122068931018
:10392000884202D0BD49884209D1016A114206D1BC
:10393000016A194203D1416C21F4004141642068BD
:10394000016A114206D1016A194203D1016821F0CE
:1039500001010160002010BD70472DE9F0410D46C6
:10396000040003D094F8390018B108E00120BDE844
:10397000F081002084F838002046FFF7EDFF022098
:1039800084F839002068816821F007018160211DD9
:103990002068FFF7F9F8206881688269066A2B6859
:1039A000AF690B4340F203318A4342EA0722A96818
:1039B000EF6911434FF6FC429143EA6841EA07215F
:1039C0000A4329692F6A090141EA073769681743E1
:1039D0006D6926F0AA0242EA05121143836020684D
:1039E000876120680162012084F839000020BEE769
:1039F000704710B50446022084F839002068016A37
:103A000041F21112114207D1016A9210114203D101
:103A1000016821F0010101602046FFF7E9FF002065
:103A200084F8390084F8380010BD10B504460068E9
:103A300089B1042904D001220021FFF7F9F9206897
:103A400001220421FFF7F4F92068016841F0010127
:103A50000160002010BD01220021F3E710B50446EB
:103A60000068D1B1042904D000221146FFF7E0F923
:103A7000206800220421FFF7DBF92068016A41F287
:103A80001112114207D1016A9210114203D101684B
:103A900021F001010160002010BD00221146EAE77B
:103AA00010B50446006889B104294FF0010216D010
:103AB0000021FFF7BDF9012204212068FFF7B8F9C2
:103AC0002068C16841F00201C1600BE001220021C1
:103AD000FFF7AEF92068C16841F0020106E0042159
:103AE000FFF7A6F92068C16841F00401C1602068B1
:103AF000016841F001010160002010BD10B50446CD
:103B0000006841B304294FF000022DD00021FFF7D7
:103B10008FF9002204212068FFF78AF92068C16824
:103B200021F00201C1602068C16821F00401C16078
:103B30002068016A41F21112114207D1016A921004
:103B4000114203D1016821F001010160012084F8D4
:103B50003900002010BD00221146FFF769F92068E6
:103B6000C16821F00201E2E70421FFF761F9DAE719
:103B70002DE9F041044690F83900069D9846022848
:103B800009D094F83900012809D112B1B8F1000F19
:103B900002D10DB10120EAE6022084F83900AFF22B
:103BA0007156AFF68B6721B104291AD0182965D157
:103BB00036E0206A2B46C663206A87642168206A43
:103BC0003431FEF71AFE2068C16841F40071C1600B
:103BD0002068016841F00101016001220021206894
:103BE00017E0606A2B464246C663606A87642168B4
:103BF000606A3831FEF701FE2068C16841F48061D7
:103C0000C1602068016841F00101016001220421C6
:103C10002068FFF70DF931E0000001400004014089
:103C2000206A2B46C663206A87642168206A343183
:103C3000FEF7E3FD606A2B464246C663606A87640E
:103C40002168606A3831FEF7D8FD2068016841F0CC
:103C500001010160012200212068FFF7E9F801223B
:103C600004212068FFF7E4F82068C16841F400717E
:103C7000C1602068C16841F48061C160002076E6BF
:103C800010B50446006841B304294FF000022DD05E
:103C90000021FFF7CDF8002204212068FFF7C8F8C3
:103CA0002068C16821F40071C1602068C16821F4F6
:103CB0008061C1602068016A41F21112114207D18E
:103CC000016A9210114203D1016821F001010160E3
:103CD000012084F83900002010BD00221146FFF7B2
:103CE000A7F82068C16821F40071E2E70421FFF71A
:103CF0009FF8DAE77047704770B5044600680169BD
:103D00004FF00005C943890715D4C168C943890725
:103D100011D4E91E016101202076206880698007A6
:103D2000204602D0FFF782FC04E0FFF7E4FF2046C4
:103D3000FFF752F9257620680169C943490717D46E
:103D4000C168C943490713D46FF00401016102201F
:103D500020762068806910F4407F204602D0FFF76B
:103D600065FC04E0FFF7C7FF2046FFF735F925762D
:103D700020680169C943090716D4C168C943090706
:103D800012D46FF008010161042020762068C06918
:103D90008007204602D0FFF749FC04E0FFF7ABFFA5
:103DA0002046FFF719F9257620680169C943C9063D
:103DB00017D4C168C943C90613D46FF0100101615B
:103DC000082020762068C06910F4407F204602D089
:103DD000FFF72CFC04E0FFF78EFF2046FFF7FCF80E
:103DE000257620680169C943C90708D1C168C9435C
:103DF000C90704D1891E01612046FEF795FF20689E
:103E00000169C943090609D4C168C943090605D433
:103E10006FF080010161204601F011FB206801690B
:103E2000C943490609D4C168C943490605D46FF09E
:103E3000400101612046FFF75DFF20680169C94329
:103E400089060BD4C168C943890607D46FF02001E5
:103E500001612046BDE8704001F050BA70BD30B538
:103E6000026A22F480520262036A4268C4690D68E1
:103E700024F4E64444EA05248D6823F4005343EA1D
:103E80000533FE4DA84202D0FD4DA84204D14D6934
:103E900022F4804242EA85124260C46149680164AA
:103EA000036230BD30B5026A22F480720262036A96
:103EB0004268C46923F4007324F073050C682C4332
:103EC0008D6843EA0523ED4DA84202D0EC4DA8428F
:103ED0000ED1CD6823F4006343EA05234D6922F433
:103EE000405242EA05128D6923F4806342EA0512CA
:103EF0004260C4614968C163036230BD30B5026A83
:103F000022F010020262036A426884690D6824F498
:103F1000E64444EA05248D6823F0200343EA0513B0
:103F2000D64DA84202D0D64DA8420ED1CD6823F07E
:103F3000800343EA05134D6922F4406242EA850298
:103F40008D6923F0400342EA85024260846149683A
:103F50008163036230BD30B5026A22F00102026261
:103F6000056A426883690C6823F073031C438B68FD
:103F700025F002052B43C14DA84202D0C04DA842F6
:103F80000BD123F00805CB6822F440722B434D6916
:103F900023F0040315438A692A4342608461496817
:103FA0004163036230BD70B5044690F838000128C3
:103FB0000DD0012584F83850022084F8390042B130
:103FC000042A0AD0082A0CD00C2A11D10DE00220B4
:103FD00070BD2068FFF7BFFF0AE02068FFF78EFF83
:103FE00006E02068FFF75EFF02E02068FFF737FF7A
:103FF00084F83950002084F8380070BD30B5046A68
:1040000024F0100404628569046A25F4407545EAC9
:10401000022222F470454FF6FF7202EA033224F0C6
:10402000A0032A43A02404EA01111943826101621A
:1040300030BD70B5046A24F0010404628469056A25
:104040008E4EB04214D0B0F1804F11D08D4EB042A0
:104050000ED08D4EB0420BD08C4EB04208D0884E60
:10406000B04205D08A4EB04202D08A4EB04203D14F
:1040700024F00304144303E024F0030242F001049B
:104080001A0724F0F00444EA126225F00A0301F052
:104090000A0119438261016270BD2DE9F0410446B5
:1040A00090F838000D4601283BD0012684F838608E
:1040B000022084F839009AB3042A44D02068082AE0
:1040C00053D0D5E90027E968036A23F480530362DB
:1040D000D0F81CC0036A2CF4407C4CEA07274FF64A
:1040E000FF7C27F470470CEA013139434FF4204735
:1040F00023F4204307EA02321A43C16102622068B6
:10410000C16921F44061C1612068C169AA6841EABE
:104110000221C16184F83960002084F8380026E467
:1041200001E0022023E4D5E90012EB682068FFF7E4
:1041300080FF2068816921F00C018161206881691C
:10414000AA6811430FE0D5E90012EB682068FFF779
:1041500055FF2068816921F440618161206881698F
:10416000AA6841EA02218161D4E7D5E9002C2F7BBE
:10417000016A21F480710162C169036A21F00301BF
:1041800041EA0C0121F0F00C39074FF420674CEAAA
:10419000116123F4206307EA02221A43C16102621B
:1041A0002068C16921F00C01C1612068C169AA6859
:1041B0001143AEE770B5044690F838000D4601286B
:1041C0000DD0012684F83860022084F8390042B10D
:1041D000042A18D0082A2AD00C2A4DD139E002200E
:1041E00070BD2068FFF7B7FE2068816941F00801C3
:1041F00081612068816921F0040181612068816901
:104200002A69114311E02068FFF778FE2068816970
:1042100041F4006181612068816921F480618161DC
:10422000206881692A6941EA0221816124E02068CD
:10423000FFF738FE2068C16941F00801C1612068BC
:10424000C16921F00401C1612068C1692A69114373
:1042500011E02068FFF703FE2068C16941F40061A6
:10426000C1612068C16921F48061C1612068C169B0
:104270002A6941EA0221C1610EE00000000001400C
:10428000000401400004004000080040000C004011
:10429000004001400018004084F83960002084F894
:1042A000380070BDF0B51E4687B00D460446B242D8
:1042B00063D094F83800012815D0012784F83870AD
:1042C000022084F839002868009068680190A86886
:1042D0000290E868039028690590686906902AB101
:1042E000042A0CD107E0022007B0F0BD694620681F
:1042F000FFF731FE03E069462068FFF7FFFD16B1C6
:10430000042E34D114E01835206895E80E00FFF72C
:1043100090FE2068816921F00C018161206881682C
:1043200021F0700181602068816841F0500113E044
:104330001835206895E80E00FFF760FE2068816957
:1043400021F4406181612068816821F07001816001
:104350002068816841F0600181602068816821F0F7
:10436000070181602068816841F00601816084F85E
:104370003970002084F83800B6E70120B4E710B5A2
:10438000806B012180F83910FFF7B4FC10BD2DE9D6
:10439000F041044690F83900069D9C461646884632
:1043A000022807D094F83900012807D1BCF1000F8A
:1043B00001D105B163E4022084F839000127F648F1
:1043C000F64907EB1523B6F5006F39D009DCB6F5D1
:1043D000807F10D0B6F5007F15D0B6F5806F1CD168
:1043E00027E0B6F5805F32D0B6F5005F36D0B6F57F
:1043F000804F12D13AE0E269E949D163E16988640A
:104400002268E06905E0226AD163216A8864226833
:10441000206A61464C32FEF7F0F9216848EA05004F
:1044200088642068C1683143C16084F83970002015
:1044300025E4626AD163616A88642268606AE8E799
:10444000A26AD163A16A88642268A06AE1E7E26A8D
:10445000D163E16A88642268E06ADAE7226BD149B5
:10446000D163216B88642268206BD2E7626BCE49EE
:10447000D163616B88642268606BCAE770B50D46D2
:104480000446B1F5006F21D009DCB5F5807F10D06E
:10449000B5F5007F0FD0B5F5806F0FD114E0B5F5FD
:1044A000805F15D0B5F5005F14D0B5F5804F05D10C
:1044B00012E0E06900E0206AFEF7C6F92068C168F2
:1044C000A943C160002070BD606AF5E7A06AF3E708
:1044D000E06AF1E7206BEFE7606BEDE72DE9F04173
:1044E000044690F83900069D9C46164688460228E8
:1044F00007D094F83900012807D1BCF1000F01D191
:1045000005B10CE6022084F83900A348012707EB27
:104510001523AFF6E561B6F5006F39D009DCB6F5C5
:10452000807F10D0B6F5007F15D0B6F5806F1CD116
:1045300027E0B6F5805F32D0B6F5005F36D0B6F52D
:10454000804F12D13AE0E2699549D163E16988640C
:104550002168E06905E0226AD163216A88642168E4
:10456000206A62464C31FEF748F9216848EA0500A6
:1045700088642068C1683143C16084F839700020C4
:10458000CDE5626AD163616A88642168606AE8E7A0
:10459000A26AD163A16A88642168A06AE1E7E26A3D
:1045A000D163E16A88642168E06ADAE7226B7D49B9
:1045B000D163216B88642168206BD2E7626B7A49F2
:1045C000D163616B88642168606BCAE770B50D4682
:1045D0000446B1F5006F21D009DCB5F5807F10D01D
:1045E000B5F5007F0FD0B5F5806F0FD114E0B5F5AC
:1045F000805F15D0B5F5005F14D0B5F5804F05D1BB
:1046000012E0E06900E0206AFEF71EF92068C16848
:10461000A943C160002070BD606AF5E7A06AF3E7B6
:10462000E06AF1E7206BEFE7606BEDE790F8382088
:10463000012A0CD0012200F8382F0223437050F8D1
:10464000383C5961427000210170084670470220D1
:1046500070472DE9F041044690F8380016460D46A3
:10466000012809D0012784F83870022084F8390025
:104670006868012802D007E0022050E5D5E9022150
:104680002B69206800F079F936B1042E0FD0082E7E
:1046900019D00C2E2DD121E02868002820688169CE
:1046A00002D041F080010CE021F0800109E028688F
:1046B00000282068816902D041F4004101E021F422
:1046C0000041816115E0286800282068C16902D096
:1046D00041F080010CE021F0800109E02868002809
:1046E0002068C16902D041F4004101E021F4004199
:1046F000C16184F83970002084F838000FE570B586
:10470000044690F83800012817D0012584F8385065
:10471000022084F839002068826822F0770222F4AF
:104720007F4282600868502840D00DDC202862D08B
:1047300005DC80B310284AD15AE0022070BD302831
:104740005CD0402843D148E0602837D070280BD097
:10475000B0F5805F03D0B0F5005F38D110E020687D
:10476000816821F0070109E0CB68D1E901212068C7
:1047700000F003F92068816841F07701816026E04C
:10478000CB68D1E90121206800F0F7F82068816842
:1047900041F48041F2E728E0192D0008DB2F0008E2
:1047A0002B2D0008FF5200087F430008CA684968A3
:1047B000206800F0F4F85021206806E0CA684968D3
:1047C000206800F0FDF86021206800F0E0F884F82F
:1047D0003950002084F8380070BDCA6849682068E4
:1047E00000F0DDF840212068EFE700212068ECE7C9
:1047F00010212068E9E720212068E6E730212068C1
:10480000E3E70068426822F080020A434260002029
:10481000704730B40268936823F070044B682343F8
:1048200023F007040B68234393604A6812F00F0FCC
:104830001FD11211082A1CD2DFE802F01B1B1B1B20
:104840000B1D23040B69D1E90221006830BC00F084
:1048500094B80268146A136A23F0010313620268B1
:104860009369096923F0F00343EA0111916100683B
:10487000046230BC70470A698968006830BC00F087
:104880008EB80A698968006830BC00F099B870B5C4
:10489000044690F83800012818D0012584F83850D3
:1048A000022084F839002046FFF7B3FF2068C16872
:1048B00021F04001C1602068C16821F48041C160DD
:1048C00084F83950002084F8380070BD022070BD93
:1048D00070B5044690F83800012818D0012584F8F6
:1048E0003850022084F839002046FFF792FF2068F4
:1048F000C16841F04001C1602068C16821F4804175
:10490000C16084F83950002084F8380070BD02205E
:1049100070BD90F838300022012B0AD0012380F8B6
:10492000383041B1042909D008290AD00C290DD109
:104930000AE00220704701684A6B07E001688A6B51
:1049400004E00168CA6B01E001680A6C002180F88C
:1049500038101046704790F83900704790F83900C9
:10496000704790F83900704790F83900704790F818
:104970003900704790F83900704710B5846842EAF2
:10498000032224F47F440A432243826010BD8268DC
:1049900022F070020A4342F007018160704710B5AF
:1049A000046A036A23F001030362836923F0F003BE
:1049B00043EA021324F00A020A438361026210BD33
:1049C00010B5036A23F0100303628469036A24F4B8
:1049D000704444EA023223F0A00343EA01118261E9
:1049E000016210BD704730B587B00D46040050D04D
:1049F000022084F839002046FFF7F4FF211D2068CB
:104A0000FEF7C2F8AB68296803222068FFF711FBA4
:104A10002068816921F00C018161206881696A68E0
:104A2000114381612068416841F080014160206844
:104A3000816821F0700181602068816841F0400147
:104A400081602068816821F00701816020688168A9
:104A500041F00401816000207021059000910490D4
:104A6000069003900290E868019069462068FFF77D
:104A700045FA2068416821F0700141602068416872
:104A800041F050014160012084F83900002007B056
:104A900030BD0120FBE7704710B50446022084F8C2
:104AA00039002068016A41F21112114207D1016AEE
:104AB0009210114203D1016821F0010101602046EA
:104AC000FFF7E9FF002084F8390084F8380010BDB2
:104AD00010B50446006801220021FEF7A9F92068FC
:104AE000016841F001010160002010BD10B50446CD
:104AF000002200681146FEF79BF92068016A41F226
:104B00001112114207D1016A9210114203D10168BA
:104B100021F001010160002010BD10B504460068BD
:104B2000C16841F00201C160012200212068FEF746
:104B30007FF92068016841F001010160002010BD8B
:104B400010B50446002200681146FEF771F920688E
:104B5000C16821F00201C1602068016A41F21112AE
:104B6000114207D1016A9210114203D1016821F06C
:104B700001010160002010BD70B5044690F83900B5
:104B800015460E46022805D094F83900012805D1B3
:104B90000EB905B170BD022084F839000122002150
:104BA0002068FEF745F9216AF8482B46C863216A58
:104BB000F748324688642168206A3431FDF71DFECB
:104BC0002068C16841F40071C1602068016841F04B
:104BD00001010160002070BD10B50446002200688C
:104BE0001146FEF725F92068C16821F40071C16003
:104BF0002068016A41F21112114207D1016A921034
:104C0000114203D1016821F001010160002010BDB3
:104C100010B504460068042200F015FC2068416CC1
:104C200041F4004141642068016841F001010160E4
:104C3000002010BD10B504460068002200F003FCFF
:104C40002168086A41F21113184240F2444206D129
:104C5000086A104203D1486C20F400404864206880
:104C6000016A194206D1016A114203D1016821F09B
:104C700001010160002010BD10B50268044631B189
:104C8000042908D008291FD00C2908D120E0D068B9
:104C900040F0020002E0D06840F00400D0602068DC
:104CA000C26842F08002C2600422206800F0CBFBA0
:104CB0002068416C41F4004141642068016841F082
:104CC00001010160002010BDD06840F00800E5E758
:104CD000D06840F01000E1E710B50268044631B139
:104CE000042908D0082932D00C2908D133E0D06833
:104CF00020F0020002E0D06820F00400D060002222
:104D0000206800F0A0FB2068026A40F244410A4299
:104D100003D1C26822F08002C2602068026A41F2B8
:104D200011131A4206D1026A0A4203D1426C22F4DC
:104D3000004242642068026A1A4206D1026A0A42AC
:104D400003D1016821F001010160002010BDD0688D
:104D500020F00800D2E7D06820F01000CEE770B550
:104D6000044690F8390016460D46022805D094F8FE
:104D70003900012805D10EB903B170BD022084F8B5
:104D800039008448824935B1042D13D0082D31D023
:104D90000C2D1ED13DE0226AD063206A8164226816
:104DA00031463432206AFDF728FD2068C16841F49D
:104DB00000710DE0626AD063606A816422683146E6
:104DC0003832606AFDF719FD2068C16841F48061DE
:104DD000C16004222946206800F035FB2068416C40
:104DE00041F4004141642068016841F00101016023
:104DF000002070BDA26AD063A06A81642268314637
:104E00003C32A06AFDF7F9FC2068C16841F40061FA
:104E1000DEE7E26AD063E06A8164226831464032AC
:104E2000E06AFDF7EAFC2068C16841F48051CFE7F1
:104E300010B50268044631B1042908D008292DD0E4
:104E40000C2908D12EE0D06820F4007002E0D06870
:104E500020F48060D0600022206800F0F4FA20681E
:104E6000026A41F211131A4240F2444106D1026A29
:104E70000A4203D1426C22F4004242642068026A72
:104E80001A4206D1026A0A4203D1016821F00101E7
:104E90000160012084F83900002010BDD06820F4A2
:104EA0000060D7E7D06820F48050D3E710B50446FF
:104EB0000068042200F0C7FA2068416C41F4004108
:104EC00041642068016841F001010160002010BDCB
:104ED00010B504460068002200F0B5FA2168086A9F
:104EE00041F21113184240F2444206D1086A1042BE
:104EF00003D1486C20F4004048642068016A1942DC
:104F000006D1016A114203D1016821F0010101605B
:104F1000002010BD10B50268044631B1042908D044
:104F200008291FD00C2908D120E0D06840F00200E9
:104F300002E0D06840F00400D0602068C26842F00F
:104F40008002C2600422206800F07DFA2068416C73
:104F500041F4004141642068016841F001010160B1
:104F6000002010BDD06840F00800E5E7D06840F0B0
:104F70001000E1E710B50268044669B104290FD0BA
:104F8000082939D00C290FD13AE000002F3600084B
:104F9000192D0008DB2F0008D06820F0020002E085
:104FA000D06820F00400D0600022206800F04BFAA6
:104FB0002068026A40F244410A4203D1C26822F0EA
:104FC0008002C2602068026A41F211131A4206D1BF
:104FD000026A0A4203D1426C22F400424264206811
:104FE000026A1A4206D1026A0A4203D1016821F01C
:104FF00001010160002010BDD06820F00800D2E758
:10500000D06820F01000CEE770B5044690F8390063
:1050100016460D46022805D094F83900012805D11E
:105020000EB903B170BD022084F83900F848F9497F
:1050300035B1042D13D0082D31D00C2D1ED13DE0FB
:10504000226AD063206A8164226831463432206A41
:10505000FDF7D3FB2068C16841F400710DE0626A7E
:10506000D063606A8164226831463832606AFDF735
:10507000C4FB2068C16841F48061C16004222946F4
:10508000206800F0E0F92068416C41F4004141647F
:105090002068016841F001010160002070BDA26A32
:1050A000D063A06A8164226831463C32A06AFDF771
:1050B000A4FB2068C16841F40061DEE7E26AD063C6
:1050C000E06A8164226831464032E06AFDF795FB70
:1050D0002068C16841F48051CFE710B502680446EA
:1050E00031B1042908D008292DD00C2908D12EE08F
:1050F000D06820F4007002E0D06820F48060D060B6
:105100000022206800F09FF92068026A41F2111322
:105110001A4240F2444106D1026A0A4203D1426C6B
:1051200022F4004242642068026A1A4206D1026AEE
:105130000A4203D1016821F001010160012084F8D5
:105140003900002010BDD06820F40060D7E7D06897
:1051500020F48050D3E710B504460068042200F024
:1051600072F92068416C41F400414164002010BD97
:1051700010B504460068002200F065F92168086A4D
:1051800041F21113184240F2444206D1086A10421B
:1051900003D1486C20F4004048642068016A194239
:1051A00006D1016A114203D1016821F001010160B9
:1051B000002010BD10B504460068C26842F002022B
:1051C000C2602068C26842F00402C2600422206803
:1051D00000F039F92068416C41F40041416400203D
:1051E00010BD10B504460068C26822F00202C26019
:1051F0002068C26822F00402C2600022206800F029
:1052000022F92068026A41F211131A4240F2444125
:1052100006D1026A0A4203D1426C22F4004242647F
:105220002068026A1A4206D1026A0A4203D1016862
:1052300021F001010160002010BD10B590F8383058
:10524000012B0AD0012380F8383041B1102906D053
:10525000202904D0302902D00AE0022010BD0368C2
:105260009C6824F070049C6003689C680C439C60FC
:1052700001684B6843F001034B6001684B6823F001
:1052800004034B6001684B6813434B60002180F8B6
:105290003810084610BD10B590F83830012B0AD0F0
:1052A000012380F8383041B1102906D0202904D0DC
:1052B000302902D00AE0022010BD03689C6824F067
:1052C00070049C6003689C680C439C6001684B6898
:1052D00043F001034B6001684B6823F004034B600B
:1052E00001684B6813434B600168CA6842F02002B2
:1052F000CA60002180F83810084610BD704710B50C
:10530000806B012180F83910FFF7F8FF10BD10B550
:1053100090F83830012B0AD0012380F8383041B1A1
:10532000102906D0202904D0302902D00AE002201A
:1053300010BD03689C6824F070049C6003689C683E
:105340000C439C6001684B6843F001034B600168AB
:105350004B6823F004034B6001684B6813434B60B8
:10536000AFF26501026BD163026B2A499164016857
:10537000CA6842F40052CA60002180F8381008461A
:1053800010BD30B590F83820012A20D0012380F8D4
:105390003830022280F839200268546824F0700402
:1053A0005460026854680D682C4354600268946825
:1053B00024F0800494600268946849680C43946007
:1053C00080F83930002180F83810084630BD0220BE
:1053D00030BD30B590F83820012A1DD0012400F8E6
:1053E000384F02224270D1E900231A43D1E9023535
:1053F0002B431A430B691A434B6989691A430A43C1
:1054000050F8381C4A64447000210170084630BDD1
:10541000DB2F0008192D00080220F8E790F838204B
:10542000012A0AD0012200F8382F50F8383C1965BB
:105430004270002101700846704702207047704793
:1054400090F83900704710B50423046A8B409C43E0
:105450000462036A8A401343036210BDF0B50C680E
:1054600050F82450F74A1540D1E90123D1E90367E8
:105470001A433E4332434E6932438E693243CE690A
:1054800032430E6A32434E6A32438E6A3243CE6AE8
:105490003243CE6B32430E6B32434E6B32432A4360
:1054A000082B01D142F0400240F824204A6BB2F5AB
:1054B000801F08D10A6832B14FF480720A61E24954
:1054C0000268114301600020F0BD50F8223023F043
:1054D000010340F8223062B143F2D20340F8223097
:1054E00000EB82006FF07043436041F822300020EF
:1054F000704743F2DB030360F2E7F0B500EB820292
:1055000053688E8903F04044D1E9003543EA05131E
:105510008D682D0245EA06452B430E8ACB4D05EBDF
:10552000065633430E7D6F0107EB066633438E69E3
:105530003343234353600268D20207D54268098A85
:1055400022F4700205EB0151114341600020F0BDCF
:1055500070B5B3F5804F05D06FF0704140F8221060
:10556000002070BD50F82230B94C2340D1E90045ED
:1055700044EA05148D688E892D0245EA064589693D
:105580002C430C431C4340F82240E9E750F821200B
:1055900042F4805240F821200020704750F821202A
:1055A00022F4805240F821200020704730B50A686C
:1055B000102A1AD0026AA74B02EA0302D1E9013489
:1055C00043EA0403D1E9034544EA050443EA04033A
:1055D0004C69896943EA442343EA413141EA0201C3
:1055E00041F0080103D1016002E00268E3E70162D3
:1055F0004FF0000030BD102A0FD0826AD1E900239D
:1056000042EA03220B89097B4FEA034343EA016123
:1056100042EA010203D1826002E08268EEE7826220
:105620004FF000007047102A0FD0C26AD1E9002362
:1056300042EA03220B89097B4FEA034343EA0161F3
:1056400042EA010203D1C26002E0C268EEE7C26230
:105650004FF00000704710B5182340244FF0FC3283
:10566000102909D0016A21F0040101620362446239
:105670008262C262002010BD016821F00401016055
:10568000036044608260C260F4E7102905D0016ABB
:1056900041F04001016200207047016841F0400183
:1056A0000160F8E7102905D0016A21F0400101628C
:1056B00000207047016821F040010160F8E72DE902
:1056C000F0411C46174688460546FAF77DFF064618
:1056D0000AE0601C08D024B1FAF776FF801BA042D4
:1056E00002D90320BDE8F081102F0BD0686AC0F307
:1056F00080100028EDD0102F06D0696B0020C8F86C
:105700000010EFE76868F2E76969F7E710B502682B
:10571000514B8C681A404B6809685B0243EA44337A
:1057200011430B4343F010010160002010BD82685B
:10573000D1E9002342EA03220B89097B1B0443EAD7
:1057400001610A43826000207047C268D1E90023EA
:1057500042EA03220B89097B1B0443EA01610A43E5
:10576000C260002070470269D1E9002342EA0322A7
:105770000B89097B1B0443EA01610A430261002093
:105780007047016821F004010160182101600021C7
:1057900041604FF0FC318160C160016100207047C1
:1057A00030B5D1E901231A43D1E9033423431A4325
:1057B0004B690D681A438B691A43D1E90734012DEF
:1057C000496A05686FF30E0505D01A4322430A4360
:1057D0002A43026008E0234329430B4341680360E6
:1057E0006FF30E010A434260002030BDF0B5D1E9ED
:1057F00000346FF00F0505EB04145B1E2E012343EC
:105800008C682F0306EB042423430D8A8E8ACC6810
:10581000DFF838C0097E4FF07F4E07EB05450CEBF3
:1058200006560EEB0161012A18D082683F1107EB82
:10583000043423432B43334302F070420B4313439E
:1058400083601BE08000E0FF000110000000F0FF1B
:105850000000F0CF8101F0FFCD01FEFFC2682B43B5
:105860000B4302F070428168134301F07042210340
:10587000A1F5805131431143C36081600020F0BD28
:105880004FF4347240F8212000EB81016FF0704238
:105890008A6000210161416181610846704750F8CA
:1058A000212042F4007240F821200020704750F877
:1058B000212022F4007240F8212000207047F8B522
:1058C00014460546D1E9000210438A686FF01F03B1
:1058D000C96803EB421242EA412108430090286163
:1058E000FAF772FE064609E0601C07D024B1FAF709
:1058F0006BFE801BA04201D90320F8BDA869800679
:10590000F2D40020F8BD426942EA41014161002021
:105910007047026942EA41110161002070478069C5
:1059200019B100F018008008704700F006007047B9
:10593000704770B515460E46040003D094F8490030
:1059400010B107E0012070BD002084F84800204617
:1059500001F0A7FC04F108012068FFF77FFD314644
:10596000A2682068FFF7C9FDD4E901022946236B2C
:10597000FFF7EEFDA168206850F8212042F00102F7
:1059800040F82120002070BD704710B50446FFF795
:10599000FBFF94E80700FFF798FD002084F849001A
:1059A00084F8480010BD7047704730B590F8484003
:1059B000012C13D0012480F84840022580F849507A
:1059C0002BB111F8015B02F8015B5B1EF9D180F885
:1059D0004940002180F84810084630BD022030BD03
:1059E00030B590F84940042C17D090F84840012C6D
:1059F00015D0012480F84840022580F849502BB189
:105A000012F8015B01F8015B5B1EF9D180F8494097
:105A1000002180F84810084630BD012030BD02202A
:105A200030BD30B590F84840012C13D0012480F8E7
:105A30004840022580F849502BB131F8025B22F82A
:105A4000025B5B1EF9D180F84940002180F84810C4
:105A5000084630BD022030BD30B590F84940042CD6
:105A600017D090F84840012C15D0012480F8484008
:105A7000022580F849502BB132F8025B21F8025B15
:105A80005B1EF9D180F84940002180F84810084693
:105A900030BD012030BD022030BD30B590F8484007
:105AA000012C11D0012480F84840022580F849508B
:105AB0001BB120C95B1E20C2FBD180F849400021E8
:105AC00080F84810084630BD022030BD30B590F84F
:105AD0004940042C15D090F84840012C13D00124E3
